:020000040000FA
:060000000A128A11D42F40
:10000C00383400343934BA34831203132808AE0060
:10001C002908AF002A08B00003102F0D300DB100D5
:10002C003108B2003208031D1C281D28242800307A
:10003C00A8000030A9000030AA00EE282B08AE0062
:10004C002C08AF002D08B00003102F0D300DB1009F
:10005C003108B7003708031D342835283C280030F8
:10006C00A8000030A9000030AA00EE2837087B3E1B
:10007C00AE002E08B2072808AE002908AF002A08E7
:10008C00B00010300310B00CAF0CAE0CFF3E031DD3
:10009C0048282E08B1003108B7002B08AE002C08F8
:1000AC00AF002D08B00010300310B00CAF0CAE0C2C
:1000BC00FF3E031D5A282E08B1003108B7068030C8
:1000CC00AE002E08B705A917AC17FF30AB05FF30F3
:1000DC00AC050030AD050030B3000030B40000308A
:1000EC00B5000730AE002E08B600281C7E287F28ED
:1000FC008F282B08B3072C08031103182C0A03199B
:10010C008828B4072D08031103182D0A03198F280A
:10011C00B50701300310AA0CA90CA80CFF3E031D57
:10012C00902801300310AB0DAC0DAD0DFF3E031D3F
:10013C0098280130B602031DA428A5287B28093075
:10014C00AE002E08B600281CAC28AD28BD282B0804
:10015C00B3072C08031103182C0A0319B628B4078B
:10016C002D08031103182D0A0319BD28B5070130FA
:10017C000310AA0CA90CA80CFF3E031DBE280130CD
:10018C000310B50CB40CB30CFF3E031DC628013094
:10019C00B602031DD228D328A9283308F00034084E
:1001AC00F1003508F2003208AE002E08F3003708D3
:1001BC00AF002F08F4000A168A115F220A128A1166
:1001CC00700883120313A8007108A9007208AA0012
:1001DC00080083120313C7006E304702031CF72874
:1001EC00F828CF290330BB003B08A4004708BC000B
:1001FC00BD013C08F2003D08F3006430F000003013
:10020C00F1000A168A11A0200A128A117108F9004D
:10021C007008F8000A30F6000030F7000A168A154C
:10022C0068270A128A1176080A128A150C200A12FB
:10023C008A11433E84000A168A1100200A128A1180
:10024C0083120313A8000A168A1100200A128A11BD
:10025C00A9000A168A1100200A128A11AA0003307A
:10026C00BE003E08A4004708BF00C0013F08F800CC
:10027C004008F9006430F6000030F7000A168A15C1
:10028C0068270A128A1176080A128A150C200A129B
:10029C008A115E3E84000A168A1100200A128A1105
:1002AC0083120313AB000A168A1100200A128A115A
:1002BC00AC000A168A1100200A128A11AD000A122B
:1002CC008A110A200A128A11831203132808C40007
:1002DC002908C5002A08C6000330BB003B08A4004F
:1002EC004708BC00BD013C08F2003D08F3000A3091
:1002FC00F0000030F1000A168A11A0200A128A11AF
:10030C0070080A128A150C200A128A11283E8400E1
:10031C000A168A1100200A128A1183120313A800EC
:10032C000A168A1100200A128A11A9000A168A11CB
:10033C0000200A128A11AA004408AB004508AC0040
:10034C004608AD000A128A110A200A128A11831279
:10035C0003132808C1002908C2002A08C300003072
:10036C00A8000030A9003F30AA004108AB004208A9
:10037C00AC004308AD000A128A110A200A128A1135
:10038C00831203132808B8002908B9002A08BA00F8
:10039C008F2A0B304702031CD429D5295C2A033041
:1003AC00BB003B08A4004708BC00BD013C08F200A0
:1003BC003D08F3000A30F0000030F1000A168A11F3
:1003CC00A0200A128A1170080A128A150C200A122F
:1003DC008A11283E84000A168A1100200A128A11FA
:1003EC0083120313A8000A168A1100200A128A111C
:1003FC00A9000A168A1100200A128A11AA000330D9
:10040C00BE003E08A4004708BF00C0013F08F8002A
:10041C004008F9000A30F6000030F7000A168A1579
:10042C0068270A128A1176080A128A150C200A12F9
:10043C008A11433E84000A168A1100200A128A117E
:10044C0083120313AB000A168A1100200A128A11B8
:10045C00AC000A168A1100200A128A11AD000A1289
:10046C008A110A200A128A11831203132808C40065
:10047C002908C5002A08C6000030A8000030A900D1
:10048C003F30AA004408AB004508AC004608AD005C
:10049C000A128A110A200A128A11831203132808DD
:1004AC00B8002908B9002A08BA008F2A0030A80021
:1004BC000030A9003F30AA000330BB003B08A40069
:1004CC0047080A128A150C200A128A11283E840049
:1004DC000A168A1100200A128A1183120313AB0028
:1004EC000A168A1100200A128A11AC000A168A1107
:1004FC0000200A128A11AD000A128A110A200A126F
:10050C008A11831203132808B8002908B9002A0895
:10051C00BA00080083160313350834043304031996
:10052C00982A992A292B330883120313C1008316A6
:10053C000313340883120313C20083160313350804
:10054C0083120313C3000A168A11DB220A128A11C2
:10055C00831203134408430442044104031DB72AC5
:10056C00B82A292B831603133108803AFF008030F8
:10057C007F02031DC32A02303002031CC62AC72A7D
:10058C00292B831603132C08F0002D08F1002E08DC
:10059C00F2007030F3008930F4004030F5000A1698
:1005AC008A1530270A128A110318DD2ADE2AE72A57
:1005BC00F73083160313B0070318B10AFF30B107E5
:1005CC00EF2AF83083160313B0070318B10AFF3073
:1005DC00B10730080A128A1585220A128A11831271
:1005EC000313380883160313AC0083120313390862
:1005FC0083160313AD00831203133A0883160313F7
:10060C00AE003308F0003408F1003508F2002C0875
:10061C00F3002D08F4002E08F5000A168A11B024F8
:10062C000A128A11730883160313A7007208A60016
:10063C007108A5007008A4000030B3000030B400AD
:10064C000030B500982B8316031333088312031361
:10065C00C10083160313340883120313C2008316DC
:10066C000313350883120313C3000A168A11DB2205
:10067C000A128A1183120313440883160313A7006A
:10068C0083120313430883160313A6008312031368
:10069C00420883160313A500831203134108831623
:1006AC000313A4002708FD002608FC002508FB0006
:1006BC002408FA000A168A15C7260A128A117A0823
:1006CC0083120313D5007B08D6007C08D700831651
:1006DC000313330883120313D8008316031334084F
:1006EC0083120313D90083160313350883120313E3
:1006FC00DA000A168A152A260A128A1183120313A3
:10070C00550883160313B30083120313560883167C
:10071C000313B40083120313570883160313B50095
:10072C00B001B101B801B80A380883120313DF0015
:10073C0001300310DF0DFF3E031D9F2B03105F0DD7
:10074C004F3E84000A168A1100200A128A11E0001A
:10075C000A168A1100200A128A11E1000A168A115F
:10076C0000200A128A11E2000A168A1100200A12CD
:10077C008A11E3006308831603132702031DDC2B85
:10078C00831203136208831603132602031DDC2B4A
:10079C00831203136108831603132502031DDC2B3C
:1007AC008312031360088316031324020318DF2B30
:1007BC00E02BE12BEF2B013083120313DF005F08DA
:1007CC0083160313B8070A303806031DEE2BEF2BE4
:1007DC009A2B3808360783120313DF008316031392
:1007EC0037080318370A83120313E0008316031328
:1007FC003008831203135F07E100831603133108DB
:10080C000318310A831203136007E2006108831690
:10081C000313AA0283120313620883160313031C27
:10082C00AB03AB023608370403191D2C1E2C242CE9
:10083C00FF30AA070318AB0AFF30AB0703302805BB
:10084C0083120313DF000030831603132905831270
:10085C000313E0005F0860040319352C362C532C6D
:10086C00FF3083160313AA070318AB0AFF30AB073C
:10087C00532C203083120313DF008316031332082A
:10088C008400831203135F08831380000130DF00A0
:10089C005F0883160313B207362C831603132B0839
:1008AC00803AFF0080307F02031D5E2C01302A024B
:1008BC000318612C622C3F2C03308316031328057C
:1008CC0083120313DF0000308316031329058312F0
:1008DC000313E0005F0860040319752C762CFA2CC6
:1008EC002D30DF00831603133208840083120313A8
:1008FC005F08831380000130DF005F088316031349
:10090C00B207FA2C380883120313DF0001300310EE
:10091C00DF0DFF3E031D8D2C03105F0D4F3E840039
:10092C000A168A1100200A128A11F0000A168A117E
:10093C0000200A128A11F1000A168A1100200A12EC
:10094C008A11F2000A168A1100200A128A11F30089
:10095C00831603132708F7002608F6002508F50070
:10096C002408F4000A168A1190210A128A117308BD
:10097C0083160313AF007208AE007108AD00700847
:10098C00AC000030F3000030F2000030F1000A300F
:10099C00F0002F08F7002E08F6002D08F5002C08A3
:1009AC00F4000A168A15AC270A128A1173088316EA
:1009BC000313AF007208AE007108AD007008AC00F4
:1009CC002C08303E83120313DF0083160313320806
:1009DC008400831203135F08831380000130DF004F
:1009EC005F0883160313B207013083160313B80292
:1009FC00380A031D022D032D882C1D2D3030831237
:100A0C000313DF00831603133208840083120313CD
:100A1C005F08831380000130DF005F088316031327
:100A2C00B207FF30B0070318B10AFF30B107310825
:100A3C00803AFF0080307F02031D262D01303002EA
:100A4C000318292D2A2D042D831603133708803AF9
:100A5C00FF0080307F02031D352D09303602031C48
:100A6C00382D392D422D083083120313DF005F0817
:100A7C0083160313B8004C2D831603133608831208
:100A8C000313DF005F0883160313B80038088312C2
:100A9C000313DF00E0015F0883160313B602831211
:100AAC000313600883160313031CB703B70238083B
:100ABC000319612D622D752D2E3083120313DF0067
:100ACC008316031332088400831203135F08831305
:100ADC0080000130DF005F0883160313B20738086B
:100AEC000A128A1585220A128A11831203133808F6
:100AFC0083160313A0008312031339088316031300
:100B0C00A100831203133A0883160313A2002008D2
:100B1C0083120313AB0083160313210883120313F0
:100B2C00AC0083160313220883120313AD00831643
:100B3C000313330883120313A8008316031334081A
:100B4C0083120313A90083160313350883120313AE
:100B5C00AA000A128A110A200A128A11831203139C
:100B6C002808C1002908C2002A08C3000A168A11E5
:100B7C00DB220A128A11831203134408831603130F
:100B8C00A70083120313430883160313A6008312D2
:100B9C000313420883160313A500831203134108A1
:100BAC0083160313A4008B2E380883120313DF0063
:100BBC0001300310DF0DFF3E031DDF2D03105F0D11
:100BCC004F3E84000A168A1100200A128A11F00086
:100BDC000A168A1100200A128A11F1000A168A11CB
:100BEC0000200A128A11F2000A168A1100200A1239
:100BFC008A11F300831603132708F7002608F60062
:100C0C002508F5002408F4000A168A1190210A120E
:100C1C008A11730883160313AF007208AE007108B3
:100C2C00AD007008AC000030F3000030F200003072
:100C3C00F1000A30F0002F08F7002E08F6002D08FE
:100C4C00F5002C08F4000A168A15AC270A128A1132
:100C5C00730883160313AF007208AE007108AD0061
:100C6C007008AC002C08303E83120313DF0083168F
:100C7C00031332088400831203135F08831380006C
:100C8C000130DF005F0883160313B20738088312A4
:100C9C000313DF0001300310DF0DFF3E031D512E47
:100CAC0003105F0D4F3E84000A168A1100200A12B1
:100CBC008A11F0000A168A1100200A128A11F1001A
:100CCC000A168A1100200A128A11F2000A168A11D9
:100CDC0000200A128A11F300831603132708F70069
:100CEC002608F6002508F5002408F4000A168A15D3
:100CFC00AC270A128A11730883160313A700720813
:100D0C00A6007108A5007008A4000130B802380ACA
:100D1C00031D912E922EDA2DAC2E3030831203133C
:100D2C00DF008316031332088400831203135F0859
:100D3C00831380000130DF005F0883160313B207B2
:100D4C00FF30B6070318B70AFF30B7073608370469
:100D5C00031DB12EB22E932EB62F83160313360815
:100D6C003704031DBA2EBB2EC92E270826042504D2
:100D7C002404031DC22EC32EC92E0130B60703183E
:100D8C00B70A0030B7073708803A803C031DD02ED5
:100D9C00360838020318D32ED42EDF2E83160313F5
:100DAC00360883120313DF005F0883160313B800A1
:100DBC00032F831603133708803A83120313DF00C3
:100DCC0080305F02031DEE2E8316031338083602A3
:100DDC000318F12EF22E032F8316031338088312F7
:100DEC000313DF00E0015F0883160313B6008312C0
:100DFC000313600883160313B700831603132A0822
:100E0C002B0403190A2F0B2F252F033028058312CF
:100E1C000313DF0000308316031329058312031319
:100E2C00E0005F08600403191C2F1D2F252FFF30D5
:100E3C0083160313AA070318AB0AFF30AB078316FC
:100E4C000313291F2A2F2B2F4E2F3708803A83127A
:100E5C000313DF00831603132B08803A831203134A
:100E6C005F02031D3D2F831603132A083602031855
:100E7C00402F412F4A2F831603133608AA02370836
:100E8C00031CAB03AB024E2F83160313AA01AB0159
:100E9C002B08803A803C031D552F2A083802031872
:100EAC00582F592F6D2F83160313380883120313F1
:100EBC00DF00E0015F0883160313AA0283120313F9
:100ECC00600883160313031CAB03AB02712F83164C
:100EDC000313AA01AB012A082B040319762F772FD1
:100EEC00962F203083120313DF008316031332086E
:100EFC008400831203135F08831380000130DF002A
:100F0C005F0883160313B207FF30AA070318AB0A56
:100F1C00FF30AB072A082B04031D952F962F772F34
:100F2C000330280583120313DF00003083160313EC
:100F3C00290583120313E0005F0860040319A72F2F
:100F4C00A82FB62F2D30DF00831603133208840030
:100F5C00831203135F08831380000A128A15512D24
:100F6C0001308312DB07FF305B0784000A168A11FD
:100F7C0000200A128A11DF005F0883160313B800E1
:100F8C003808031DCA2FCD2F0A128A153E2D831641
:100F9C000313320884008313800108008313DC30B0
:100FAC00FD001D30FE00D330FF00CF3084000A1648
:100FBC008A151B260A128A117030FD000030FE00C3
:100FCC000630FF006C3084000A168A151B260A12A4
:100FDC008A11B9308400CF300A168A15A1250A125D
:100FEC008A11E701E801E901EA01EB0183010A1624
:100FFC008A11042C0730F1007D30F000F00B04282E
:10100C00F10B0428831203131A080800831203132C
:10101C00A700A601271C1328142818282408A500AB
:10102C002508A6070310A40D0310A70C2708031D01
:10103C002028212810282608080070308400000879
:10104C00F600840A0008F700840A0008F800840AF5
:10105C000008F9000310780D790DFA007A08831254
:10106C000313A5002508031D3C283D284628003005
:10107C00F3000030F2000030F1000030F0004E2997
:10108C00733084000008F600840A0008F700840A14
:10109C000008F800840A0008F9000310780D790D97
:1010AC00FA007A08A4002408031D5D285E285F2836
:1010BC003D287030840000308004840A00308004A5
:1010CC00840A80308004840A0030800470308400EC
:1010DC00FF308005840AFF308005840AFF308005CC
:1010EC00840A003080057330840000308004840A48
:1010FC0000308004840A80308004840A003080042C
:10110C0073308400FF308005840AFF308005840A28
:10111C00FF308005840A003080050030A3000030C9
:10112C00A2000030A1000030A0007F30A502A0304A
:10113C002407F6007608A5022030F6007608A400F5
:10114C000130F6000310A00DA10DA20DA30DF60B9E
:10115C00A828733084000008F600840A0008F70001
:10116C00840A0008F800840A0008F9007030840032
:10117C000008FA00840A0008FB00840A0008FC003E
:10118C00840A0008FD0079087D02031DD728780821
:10119C007C02031DD72877087B02031DD72876080D
:1011AC007A02031CDA28DB28FE287330840000083E
:1011BC00F600840A0008F700840A0008F800840A84
:1011CC000008F9007030840076088002840A7708E1
:1011DC00031C770F8002840A7808031C780F8002A6
:1011EC00840A7908031C790A8002033084022014D3
:1011FC00703084000310800D840A800D840A800DE9
:10120C00840A800D8403840384030130A402031D2B
:10121C0010291129A628A51F142915292F292508BD
:10122C00803A9F3E03181B291C291D293D2801309B
:10123C000310A30CA20CA10CA00CFF3E031D1E2935
:10124C000130F6007608A507031D2D292E291D292E
:10125C00462920302502031C3429352941293D28F3
:10126C000130F6000310A00DA10DA20DA30DF60B7D
:10127C0038290130A5022508031D452946293629A0
:10128C002308F3002208F2002108F1002008F000E6
:10129C000800831203134808CE004908CF004A08FF
:1012AC00D00003104F0D500DD1005108D4004B0845
:1012BC00CE004C08CF004D08D00003104F0D500D40
:1012CC00D1005108D300540803196D296E297E29C9
:1012DC005308540203187329742985295308CE0026
:1012EC005408CE0219304E02031C7D297E29852913
:1012FC004B08C8004C08C9004D08CA00842A530882
:10130C00031989298A299A295408530203188F2909
:10131C0090299B295408CE005308CE0219304E0256
:10132C00031C99299A299B29842A0630CE004E0841
:10133C00D200CA1FA229A329A429D217CD1FA729DD
:10134C00A829A9295217C917FF30C805FF30C905AC
:10135C000030CA05CC17FF30CB05FF30CC05003070
:10136C00CD05530854020318BC29BD29E9290130C5
:10137C000310CB0DCC0DCD0DFF3E031DBE2901304E
:10138C00D302530854060319CC29CD29E229013084
:10139C00D20252080739031DD429D529BD29E229C7
:1013AC0001300310CA0CC90CC80CFF3E031DD72911
:1013BC000130CE004E08D40754085306031DE7290C
:1013CC00E829D6291A2A540853020318EE29EF29C2
:1013DC001A2A01300310C80DC90DCA0DFF3E031D9A
:1013EC00F0290130D402530854060319FE29FF29B1
:1013FC00142A0130D20252080739031D062A072A83
:10140C00EF29142A01300310CD0CCC0CCB0CFF3E71
:10141C00031D092A0130CE004E08D3075408530689
:10142C00031D192A1A2A082AD21F1D2A1E2A2E2AFF
:10143C00FF30C806FF30C906FF30CA060130C807A6
:10144C00003003180130C907003003180130CA07F7
:10145C00521F312A322A422AFF30CB06FF30CC06EB
:10146C00FF30CD060130CB07003003180130CC071C
:10147C00003003180130CD07D2014808CB074908CA
:10148C0003110318490A03194C2ACC074A08031103
:10149C0003184A0A0319532ACD07CD1F562A572A77
:1014AC00692AFF30CB06FF30CC06FF30CD06013069
:1014BC00CB07003003180130CC0700300318013083
:1014CC00CD07D201D20A4B08F0004C08F1004D08B0
:1014DC00F2005408CE004E08F3005208CF004F081B
:1014EC00F4000A168A115F220A128A1570088312F8
:1014FC000313C8007108C9007208CA0008008312DF
:10150C000313C000C01F8B2A8C2ADF2BC009C00A12
:10151C004008803A123E031C942A952A4D2B033026
:10152C00BB003B08A4004008F200F301F21BF303DC
:10153C006430F0000030F1000A168A11DA200A1229
:10154C008A157108FA007008F9000A30F7000030AB
:10155C00F8000A168A11F6210A128A1577080A125F
:10156C008A150C200A128A15433E84000A168A1129
:10157C0000200A128A1583120313A8000A168A1176
:10158C0000200A128A15A9000A168A1100200A12D4
:10159C008A15AA000330BC003C08A4004008F900DE
:1015AC00FA01F91BFA036430F7000030F8000A1650
:1015BC008A11F6210A128A1577080A128A150C204C
:1015CC000A128A155E3E84000A168A1100200A123D
:1015DC008A1583120313AB000A168A1100200A1213
:1015EC008A15AC000A168A1100200A128A15AD0061
:1015FC000A128A110A200A128A1583120313280868
:10160C00BD002908BE002A08BF000330BB003B0800
:10161C00A4004008F200F301F21BF3030A30F000BF
:10162C000030F1000A168A11DA200A128A157008A5
:10163C000A128A150C200A128A15283E84000A16F2
:10164C008A1100200A128A1583120313A8000A16A5
:10165C008A1100200A128A15A9000A168A11002084
:10166C000A128A15AA003D08AB003E08AC003F08E0
:10167C00AD000A128A110A200A128A15831203136A
:10168C002808B8002908B9002A08BA002F2D4008EC
:10169C00803A753E031C532B542BBE2B0330BB00DE
:1016AC003B08A4004008F200F301F21BF3030A30DC
:1016BC00F0000030F1000A168A11DA200A128A159D
:1016CC0070080A128A150C200A128A15283E84000A
:1016DC000A168A1100200A128A1583120313A80015
:1016EC000A168A1100200A128A15A9000A168A11F4
:1016FC0000200A128A15AA000330BC003C08A40082
:10170C004008F900FA01F91BFA030A30F70000301F
:10171C00F8000A168A11F6210A128A1577080A129D
:10172C008A150C200A128A15433E84000A168A1167
:10173C0000200A128A1583120313AB000A168A11B1
:10174C0000200A128A15AC000A168A1100200A120F
:10175C008A15AD000A128A110A200A128A15831200
:10176C0003132808B8002908B9002A08BA002F2D3D
:10177C000330BB003B08A40040080A128A150C2059
:10178C000A128A15283E84000A168A1100200A12B1
:10179C008A1583120313B8000A168A1100200A1244
:1017AC008A15B9000A168A1100200A128A15BA0085
:1017BC002F2D4008803A123E031CE52BE62B9E2C65
:1017CC000330BB003B08A4004008F200F301F21BFD
:1017DC00F3036430F0000030F1000A168A11DA20AD
:1017EC000A128A157108FA007008F9000A30F7001D
:1017FC000030F8000A168A11F6210A128A157708A9
:10180C000A128A150C200A128A151C3E84000A162C
:10181C008A1100200A128A1583120313A8000A16D3
:10182C008A1100200A128A15A9000A168A110020B2
:10183C000A128A15AA000330BC003C08A400400818
:10184C00F900FA01F91BFA036430F7000030F800D4
:10185C000A168A11F6210A128A1577080A128A15B5
:10186C000C200A128A15373E84000A168A110020B1
:10187C000A128A1583120313AB000A168A11002070
:10188C000A128A15AC000A168A1100200A128A154F
:10189C00AD000A128A110A200A128A158312031348
:1018AC002808BD002908BE002A08BF000330BB0071
:1018BC003B08A4004008F200F301F21BF3030A30CA
:1018CC00F0000030F1000A168A11DA200A128A158B
:1018DC0070080A128A150C200A128A15013E84001F
:1018EC000A168A1100200A128A1583120313A80003
:1018FC000A168A1100200A128A15A9000A168A11E2
:10190C0000200A128A15AA003D08AB003E08AC0064
:10191C003F08AD000A128A110A200A128A15831296
:10192C0003132808B8002908B9002A08BA002F2D7B
:10193C004008803A753E031CA42CA52C0F2D0330B7
:10194C00BB003B08A4004008F200F301F21BF303B8
:10195C000A30F0000030F1000A168A11DA200A125F
:10196C008A1570080A128A150C200A128A15013E73
:10197C0084000A168A1100200A128A158312031396
:10198C00A8000A168A1100200A128A15A9000A1644
:10199C008A1100200A128A15AA000330BC003C08E8
:1019AC00A4004008F900FA01F91BFA030A30F70009
:1019BC000030F8000A168A11F6210A128A157708E7
:1019CC000A128A150C200A128A151C3E84000A166B
:1019DC008A1100200A128A1583120313AB000A160F
:1019EC008A1100200A128A15AC000A168A110020EE
:1019FC000A128A15AD000A128A110A200A128A15D7
:101A0C00831203132808B8002908B9002A08BA0061
:101A1C002F2D0330BB003B08A40040080A128A1586
:101A2C000C200A128A15013E84000A168A11002025
:101A3C000A128A1583120313B8000A168A110020A1
:101A4C000A128A15B9000A168A1100200A128A1580
:101A5C00BA00080083160313B2005C308312031320
:101A6C00DF005F0883160313A3000A128A11B62F36
:101A7C00253038060319432D442D582D3808831270
:101A8C000313DF008316031332088400831203133D
:101A9C005F08831380000130DF005F088316031397
:101AAC00B2073B2DAA01AB01A801A90183120313B4
:101ABC005B0884000A168A1100200A128A150A167D
:101ACC008A15E0250A128A15031C6D2D6E2DB82D72
:101ADC0083160313AA01AB010A30F0000030F100A9
:101AEC00831603132B08F3002A08F2000A168A1532
:101AFC004F260A128A15710883160313AB0070085F
:101B0C00AA00831203135B0884000A168A110020B2
:101B1C000A128A15D03EDF00FF3003180030E000B7
:101B2C005F0883160313AA070318AB0A8312031367
:101B3C00600883160313AB07013083120313DF0015
:101B4C005F08DB075B0884000A168A1100200A1262
:101B5C008A150A168A15E0250A128A150318B72D5C
:101B6C00B82D722D831203135B0884000A168A1198
:101B7C0000200A128A152E3A031DC52DC62D1C2EC7
:101B8C00831603132917013083120313DF005F0838
:101B9C00DB0783160313B601B7010A2E0A30F000D7
:101BAC000030F100831603133708F3003608F200F7
:101BBC000A168A154F260A128A1571088316031302
:101BCC00B7007008B600831203135B0884000A1672
:101BDC008A1100200A128A15D03EDF00FF3003184C
:101BEC000030E0005F0883160313B6070318B70A2A
:101BFC0083120313600883160313B7070130831293
:101C0C000313DF005F08DB0783125B0884000A16EE
:101C1C008A1100200A128A150A168A15E0250A1262
:101C2C008A1503181A2E1B2ED42D262E8316031359
:101C3C00B601B7012916262E831603132915462E35
:101C4C00013083120313DB07FF305B0784000A1695
:101C5C008A1100200A128A1583160313B800831206
:101C6C000313DF00E0016008003A03193E2E3B2D00
:101C7C005F08003A0319FD2F663A0319222E3B2DFB
:101C8C000030280583120313DF000730831603137B
:101C9C00290583120313E0005F0860040319572E13
:101CAC005A2E0A128A11B32E83160313291E5F2E85
:101CBC00602E642E0630B6000030B7002308840076
:101CCC0083130008B300840A0008B400840A0008D7
:101CDC00B500033083120313DF005F088316031370
:101CEC00A3073308F0003408F1003508F200003087
:101CFC00F3000030F4000030F5000A168A15302786
:101D0C000A128A1503188B2E8C2EA52E83160313FC
:101D1C003308F0003408F1003508F2000A168A1571
:101D2C00BC250A128A15700883160313B3007108B8
:101D3C00B4007208B5000330A8040030A90483165F
:101D4C000313B001B1013508340433040319AF2E69
:101D5C00B02EA22FB3308400831300088312031318
:101D6C00DF00840A0008E000840A0008E100840A0D
:101D7C000008E2000F300310E20CE10CE00CDF0C69
:101D8C00FF3E031DC12EFF305F05E30000306005F0
:101D9C00E4006308823E83160313B000831203131E
:101DAC0064080318013EFF3E83160313B100FF3095
:101DBC00B0070318B10AFF30B1070330F000003050
:101DCC00F1003108F3003008F2000A168A154F268C
:101DDC000A128A15710883160313B1007008B0003B
:101DEC000A30F7000030F8003108FA003008F9002A
:101DFC000A168A11F6210A128A157808831603131B
:101E0C00B1007708B000B11F0C2F0D2F132FFF302E
:101E1C00B0070318B10AFF30B1073003FF3A0A12BA
:101E2C008A1585220A128A15831203133808831621
:101E3C000313AC0083120313390883160313AD008C
:101E4C00831203133A0883160313AE00330883126C
:101E5C000313A80083160313340883120313A90079
:101E6C0083160313350883120313AA008316031376
:101E7C002C0883120313AB00831603132D08831253
:101E8C000313AC00831603132E0883120313AD0047
:101E9C000A128A110A200A128A15831203132808BF
:101EAC0083160313AC008312031329088316031340
:101EBC00AD00831203132A0883160313AE002C08FB
:101ECC00F0002D08F1002E08F2000030F3008030F5
:101EDC00F4003F30F5000A168A1530270A128A15CD
:101EEC000318792F7A2F832FFF3083160313B00733
:101EFC000318B10AFF30B107A22F831603132C0865
:101F0C00F0002D08F1002E08F2000030F300203014
:101F1C00F4004130F5000A168A1530270A128A158A
:101F2C00031C992F9A2FA22F013083160313B0078D
:101F3C000318B10A0030B107831603133708803A2F
:101F4C00FF0080307F02031DAD2F0D3036020318C9
:101F5C00B02FB12FEA2F8316031336080A128A11F9
:101F6C00EF200A128A15831203133808C8003908A7
:101F7C00C9003A08CA0083160313330883120313EB
:101F8C00CB0083160313340883120313CC0083167F
:101F9C000313350883120313CD000A128A154F213F
:101FAC000A128A1583120313480883160313B3000D
:101FBC0083120313490883160313B400831203130B
:101FCC004A0883160313B500831603133108803AAD
:101FDC00FF0080307F02031DF52F0A3030020318FA
:101FEC00FA2F0A128A11902A0A128A11C72A0A1287
:101FFC008A11CD2F10308A000408840A820700341D
:10200C00003480343F340034203441340034C8343C
:10201C00423400347A34443440341C344634503422
:10202C00C3344734243474344934973418344B341F
:10203C00BC34BE344C346B346E344E3403341534EF
:10204C0050347934AD346034F33449347134003461
:10205C0080343F34CD34CC343D34D73423343C3409
:10206C00123483343A34B734D1343834C634273448
:10207C003734383486343534C034D6343334CC34F5
:10208C002B343234703489343034E734DB342E342E
:10209C00E5343C341E344234A2340D340134003463
:1020AC00003400340A340034003400346434003416
:1020BC0000340034E8340334003400341034273452
:1020CC0000340034A03486340134003440344234BB
:1020DC000F34003480349634983400340034E134B6
:1020EC00F53405340034CA349A343B342534323454
:1020FC002E343134663420342034203425343234B8
:10210C002E34313466342034003454343134203499
:10211C0020342034483431342034203420340A34F0
:10212C0000340A168A15C6250A168A11831603135B
:10213C0011150800700871040319A528A628D528C4
:10214C00F501F50AB42801300310F00DF10DFF3E36
:10215C00031DAA280130F4007408F507F11FB728F5
:10216C00B828A92871087302031DBE2870087202D2
:10217C00031CC128C228C8287008F2027108031C6D
:10218C00F303F30201300310F10CF00CFF3E031DBE
:10219C00C9280130F502031DD428D528B8287308A6
:1021AC00F1007208F0000800F601F31FDE28DF28AA
:1021BC00E628F209F309F20A0319F30AF601F60A02
:1021CC00F11FE928EA28EF28F009F109F00A0319B0
:1021DC00F10A700871040319F428F5282429F50173
:1021EC00F50A032901300310F00DF10DFF3E031D1C
:1021FC00F9280130F4007408F507F11F06290729A6
:10220C00F82871087302031D0D2970087202031C53
:10221C001029112917297008F2027108031CF30305
:10222C00F30201300310F10CF00CFF3E031D1829D2
:10223C000130F502031D23292429072976080319E7
:10224C00282929292E29F209F309F20A0319F30A7C
:10225C007308F1007208F00008000030F600F70077
:10226C000A168A11F7260A168A117908FD007808D1
:10227C00FC007708FB007608FA000A168A15C726B8
:10228C000A168A117A0883120313D8007B08D90026
:10229C007C08DA000030C8004830C900C230CA00DF
:1022AC000030B8008030B9004930BA000030A800C6
:1022BC004830A9004330AA005808AB005908AC00BC
:1022CC005A08AD000A128A110A200A168A118312C2
:1022DC0003132808BB002908BC002A08BD000A16F5
:1022EC008A116D250A168A11831203133808CB0044
:1022FC003908CC003A08CD000A128A154F210A166B
:10230C008A11831203134808D5004908D6004A08DD
:10231C00D70008000030FC000030FB000030FA0051
:10232C000030F900730872047104700403199F29BA
:10233C00A029ED29FD01FD0AB0290130F800031098
:10234C00F00DF10DF20DF30DF80BA5290130F8008D
:10235C007808FD07F31FB329B429A3290130F8002D
:10236C000310F90DFA0DFB0DFC0DF80BB6297308D3
:10237C007702031DCB2972087602031DCB29710845
:10238C007502031DCB2970087402031CCE29CF29BA
:10239C00DE297008F4027108031C710FF502720833
:1023AC00031C720FF6027308031C730FF7027914E7
:1023BC0001300310F30CF20CF10CF00CFF3E031D7A
:1023CC00DF290130FD02031DEC29ED29B4297C081D
:1023DC00F3007B08F2007A08F1007908F00008009D
:1023EC0083120313A101F81FFC29FD29042AF70904
:1023FC00F809F70A0319F80AA101A10AFA1F072A1A
:10240C00082A112AF909FA09F90A0319FA0A0130FA
:10241C00FB007B08A106A201A3017708780403192D
:10242C00182A192A502AA001A00A272A01300310C1
:10243C00F70DF80DFF3E031D1D2A0130FB007B0834
:10244C00A007F81F2A2A2B2A1C2A01300310A20DE0
:10245C00A30DFF3E031D2C2A78087A02031D382A8F
:10246C0077087902031C3B2A3C2A432A7708F90295
:10247C007808031CFA03FA02221401300310F80C3A
:10248C00F70CFF3E031D442A0130A002031D4F2A06
:10249C00502A2B2A21080319542A552A5A2AA209F0
:1024AC00A309A20A0319A30A2308F8002208F700BB
:1024BC00080073080319632A642A6B2A72087104D2
:1024CC007004031D6A2A6B2A7E2A0030F00000304B
:1024DC00F1000030F200DA2A0130F5007508F3073C
:1024EC0001300310F20CF10CF00CFF3E031D772AA7
:1024FC00FE307205031D832A842A722A9B2A01301E
:10250C00F5007508F3070130F007003003180130AF
:10251C00F107003003180130F20701300310F20C00
:10252C00F10CF00CFF3E031D942AFF307205031DC5
:10253C00A02AA12A852AAC2A0130F302013003100B
:10254C00F00DF10DF20DFF3E031DA52AF11BAF2A74
:10255C00B02AB62A023073020318B52AB62AA22A68
:10256C007318B92ABA2AC02AFF30F0057F30F1055A
:10257C00FF30F2050310F30C7308F500F601F701B8
:10258C0010300310F50DF60DF70DFF3E031DC72A95
:10259C007508F0047608F1047708F204740803193E
:1025AC00D82AD92ADA2AF217080083120313410811
:1025BC00C5004208C6004308C7000310460D470D6E
:1025CC00C8004808CE004E08031DED2AEE2AF72A53
:1025DC000030C4000030C3000030C2000030C10025
:1025EC00662B4108C5004208C6004308C7001730D7
:1025FC000310C70CC60CC50CFF3E031DFE2A450874
:10260C00C8004808C900C217FF30C105FF30C20519
:10261C000030C3054108CA004208CB004308CC0077
:10262C00CD018E30CE02CE1F1C2B1D2B372B4E080E
:10263C00803A8F3E0318232B242B252BEE2A0130B6
:10264C000310CD0CCC0CCB0CCA0CFF3E031D262B5F
:10265C000130C5004508CE07031D352B362B252B25
:10266C004E2B18304E02031C3C2B3D2B492BEE2AD3
:10267C000130C5000310CA0DCB0DCC0DCD0DC50B13
:10268C00402B0130CE024E08031D4D2B4E2B3E2B02
:10269C0049080319522B532B5E2BCA09CB09CC09C1
:1026AC00CD09CA0A0319CB0A0319CC0A0319CD0A9E
:1026BC004D08C4004C08C3004B08C2004A08C100B6
:1026CC00080083120313A101F31F6D2B6E2B7B2BC0
:1026DC00F009F109F209F309F00A0319F10A0319D7
:1026EC00F20A0319F30AA101A10AF71F7E2B7F2B13
:1026FC008E2BF409F509F609F709F40A0319F50A02
:10270C000319F60A0319F70A0130F8007808A10634
:10271C000030A5000030A4000030A3000030A2005F
:10272C00730872047104700403199D2B9E2BEB2B00
:10273C00A001A00AAE2B0130F8000310F00DF10D32
:10274C00F20DF30DF80BA32B0130F8007808A0075D
:10275C00F31FB12BB22BA12B0130F8000310A20DEB
:10276C00A30DA40DA50DF80BB42B73087702031D54
:10277C00C92B72087602031DC92B71087502031D43
:10278C00C92B70087402031CCC2BCD2BDC2B7008CE
:10279C00F4027108031C710FF5027208031C720F0E
:1027AC00F6027308031C730FF70222140130031096
:1027BC00F30CF20CF10CF00CFF3E031DDD2B013081
:1027CC00A002031DEA2BEB2BB22B21080319EF2BD4
:1027DC00F02BFB2BA209A309A409A509A20A031932
:1027EC00A30A0319A40A0319A50A2508F30024084F
:1027FC00F2002308F1002208F00008000A168A15DE
:10280C0004260A168A11803083120313A600253081
:10281C00A7000A168A112F260A168A110030831275
:10282C000313A3000130A2008630A100A030A00049
:10283C000A168A15F8260A168A110A168A15A92567
:10284C000A168A113930F0000030F1000A168A1588
:10285C00B2250A168A110D3083120313E600FB30E1
:10286C00E500E50B372CE60B372C0A168A113321C1
:10287C000A168A11831203135508E7005608E8005C
:10288C005708E90086300A168A1574260A168A112A
:10289C00773083120313E5006508DB006708DC0062
:1028AC006808DD006908DE00BB300A128A15302585
:1028BC000A168A11BB300A168A15F2250A168A11D5
:1028CC000D300A168A15F2250A168A110A300A16D4
:1028DC008A15F2250A168A110D3083120313E600AD
:1028EC00FB30E500E50B782CE60B782C0A128A15E8
:1028FC0000200A168A1183120313E500E60165080D
:10290C00EA006608EB006A036B04031D8E2C8F2C07
:10291C00912C0814232C02306A066B04031D972C8F
:10292C00982C9A2C8814232C03306A066B04031DF4
:10293C00A02CA12CA32C0810232C04306A066B04A9
:10294C00031DA92CAA2CAC2C8810232C232C0A1286
:10295C008A1100287008F6007108F7007208F80058
:10296C000310770D780DF900790883120313A50075
:10297C002508031DC22CC32CCC2C0030F3000030D6
:10298C00F2000030F1000030F0006C2D7308F600FE
:10299C007408F7007508F8000310770D780DF9002E
:1029AC007908A4002408031DDC2CDD2CDE2CC32CA0
:1029BC00F117FF30F005FF30F1050030F205F41788
:1029CC00FF30F305FF30F4050030F5050030A300AF
:1029DC000030A2000030A1000030A0007F30A50222
:1029EC0098302407F6007608A5021830F600760811
:1029FC00A4000130F6000310A00DA10DA20DA30D33
:102A0C00F60B012D75087202031D122D740871024C
:102A1C00031D122D73087002031C152D162D212D6C
:102A2C007308F0027408031C740FF1027508031C80
:102A3C00750AF202201401300310F00DF10DF20DA5
:102A4C00FF3E031D222D0130A402031D2E2D2F2D20
:102A5C00FF2CA51F322D332D4D2D2508803A973E86
:102A6C000318392D3A2D3B2DC32C01300310A30C28
:102A7C00A20CA10CA00CFF3E031D3C2D0130F60056
:102A8C007608A507031D4B2D4C2D3B2D642D1830BE
:102A9C002502031C522D532D5F2DC32C0130F60043
:102AAC000310A00DA10DA20DA30DF60B562D013098
:102ABC00A5022508031D632D642D542D2308F30056
:102ACC002208F2002108F1002008F000080083120F
:102ADC0003133B08BE003C08BF003D08C0000310B8
:102AEC003F0D400DC1004108C6004608031D7F2D57
:102AFC00802D872D0030B8000030B9000030BA00AE
:102B0C002E2E3808BE003908BF003A08C00003104A
:102B1C003F0D400DC1004108C7004708031D972D0C
:102B2C00982D9F2D0030B8000030B9000030BA004D
:102B3C002E2E0030C3000030C4000030C500893098
:102B4C004707BE003E08C6023B08BE003C08BF005B
:102B5C003D08C00010300310C00CBF0CBE0CFF3E73
:102B6C00031DB12D3E08C1004108C7003808BE0046
:102B7C003908BF003A08C00010300310C00CBF0C5D
:102B8C00BE0CFF3E031DC32D3E08C1004108C70605
:102B9C008030BE003E08C705BC17FF30BB05FF30B8
:102BAC00BC050030BD05B917FF30B805FF30B905BD
:102BBC000030BA051830BE003E08C20001300310C8
:102BCC00C30DC40DC50DFF3E031DE52D3A083D0296
:102BDC00031DF62D39083C02031DF62D38083B0267
:102BEC00031CF92DFA2D052E3808BB023908031CDD
:102BFC00390FBC023A08031C3A0ABD0243140130D7
:102C0C000310BB0DBC0DBD0DFF3E031D062E013088
:102C1C00C202031D122E132EE42D4308F0004408AB
:102C2C00F1004508F2004608BE003E08F3004708D4
:102C3C00BF003F08F4000A168A115F220A168A1197
:102C4C00700883120313B8007108B9007208BA0037
:102C5C000800831203132708A9002608A8000630D1
:102C6C00FF000310A80DA90DFF0B372E2808F0004C
:102C7C002908F100F201F3012708AB002608AA008D
:102C8C000630FF000310AA0DAB0DFF0B482E2A08CF
:102C9C00AC002B08AD00AE01AF010030B000093024
:102CAC00B1003D30B2000030B3002C08B0022D084A
:102CBC00031C2D0F622E632EB1022E08031C2E0F47
:102CCC00682E692EB2022F08031C2F0F6E2E6F2E4A
:102CDC00B3023308F7003208F6003108F50030086B
:102CEC00F4000A168A1167230A168A117108FA0071
:102CFC007008F90001307A02003003197902031CC4
:102D0C00882E892EE12E831203132708A90026088A
:102D1C00A800A80EA90EF030A90528080F39A9049F
:102D2C00F030A8052808F0002908F100F201F301A1
:102D3C002708AB002608AA00AA0EAB0EF030AB0594
:102D4C002A080F39AB04F030AA052A08AC002B086E
:102D5C00AD00AE01AF010030B0000930B1003D3024
:102D6C00B2000030B3002C08B0022D08031C2D0F4C
:102D7C00C02EC12EB1022E08031C2E0FC62EC72E3C
:102D8C00B2022F08031C2F0FCC2ECD2EB30233080A
:102D9C00F7003208F6003108F5003008F4000A1686
:102DAC008A1167230A168A117108FA007008F90053
:102DBC0083160313181501307A02003003197902B7
:102DCC000318E92EEA2EF62E7908831603139900C0
:102DDC0018128312031398171816831603139816D8
:102DEC0008000A168A15A9250A168A1183160313D8
:102DFC00510883120313A000A1012008F000210840
:102E0C00F1000A168A15B2250A168A110A168A11B9
:102E1C0097200A168A11823083120313A100DD3029
:102E2C00A000A00B172FA10B172F0A168A15A92586
:102E3C000A168A1183120313C801512F0130F000B6
:102E4C000030F1000A168A1599260A168A117008A4
:102E5C0083120313A0007108A100A201A30148086A
:102E6C00A40001300310A40DFF3E031D382F0310E6
:102E7C00240D2C3E8400200883138000840A210832
:102E8C008000840A22088000840A23088000013014
:102E9C00A0002008C8070130F0000030F1000A162D
:102EAC008A1599260A168A1170087104031D5F2F62
:102EBC00602F242F760877040319652F662FB42F03
:102ECC00831203133808A0003908A1003A08A200A5
:102EDC003B08A3003408A4003508A5003608A6005A
:102EEC003708A70008300310A40DA50DA60DA70DDB
:102EFC00FF3E031D792F3008A8003108A9003208C5
:102F0C00AA003308AB0010300310A80DA90DAA0DB0
:102F1C00AB0DFF3E031D8A2F2808A4042908A50425
:102F2C002A08A6042B08A7042408A0042508A10439
:102F3C002608A2042708A30404300310A30CA20C37
:102F4C00A10CA00CFF3E031DA32F2308C7002208D1
:102F5C00C6002108C5002008C400F72F83120313F4
:102F6C003C08A0003D08A1003E08A2003F08A300B9
:102F7C0008300310A00DA10DA20DA30DFF3E031DE3
:102F8C00BF2F0C302C3E84000F3083130005A4009F
:102F9C00840A00300005A500840A00300005A60054
:102FAC00840A00300005A70010300310A40DA50DF5
:102FBC00A60DA70DFF3E031DDB2F2408A00425083A
:102FCC00A1042608A2042708A30440082004C40076
:102FDC0041082104C50042082204C600430823040A
:102FEC00C7004708F9004608F8004508F7004408F0
:042FFC00F6000800D3
:103B420064008001840A0406031900340406A22DCD
:103B52000A168A15C6250A168A1583160313111426
:103B620008000A168A15C6250A168A1570088312D5
:103B72000313930008007208710470040319C22D24
:103B8200C32DC52D8030F2060800831603131419C5
:103B9200CB2DCC2DC62D11081F39031DD12DD22DB1
:103BA200C62D0800AC3433340034A8340034003459
:103BB200E134083400340134003439340034F10083
:103BC200F0013A3071020318E72DE82DF02D303064
:103BD2007102031CED2DEE2DF02DF001F00A700C98
:103BE2000800F1007108831203139900FD2DA6301D
:103BF200F000F00BFA2D000083160313981C022E1E
:103C0200032EF82D08008316031388018316031769
:103C1200880189018312031388010B17831603138A
:103C22008C16831203138C128B1708007E088A00ED
:103C32007F0882000A168A1517260A168A1580003E
:103C4200840A04087D0603190034FF0A0319FE0AD8
:103C52001B2E831203135708560455040319322EE0
:103C6200332E352E8030D7065808C8005908C900AF
:103C72005A08CA005508CB005608CC005708CD0098
:103C82000A128A154F210A168A158312031348084D
:103C9200D5004908D6004A08D7000800F401F5010A
:103CA200701C542E552E5B2E7208F4070318F50A69
:103CB2007308F50701300310F20DF30DFF3E031DEB
:103CC2005C2E01300310F10CF00CFF3E031D632E3D
:103CD20070087104031D6E2E6F2E512E7508F100AF
:103CE2007408F0000800F400F201F3018B2E720850
:103CF200740784000A168A1100200A168A150A1609
:103D02008A15F2250A168A150130F2070318F30AFA
:103D12000030F3077208740784000A168A11002023
:103D22000A168A150A3A031D972E982E782E080035
:103D32000A168A15C6250A168A15831603139115C3
:103D42000A168A15C6250A168A1583120313130842
:103D5200F200F3017208F4007308F5000A168A15DE
:103D6200C6250A168A1570037104031DB92EBA2ED0
:103D7200BE2E831603139112C12E831603139116BE
:103D820011167508F1007408F00008008E308312D5
:103D92000313C9004908CA00DB2E01300310FD0CD1
:103DA200FC0CFB0CFA0CFF3E031DCF2E0130C900A8
:103DB2004908CA07FF307D05031DE02EE12ECE2EF5
:103DC2007A08F0007B08F1007C08F2004A08C9007A
:103DD2004908F300F4010A168A115F220A168A15AD
:103DE2007008FA007108FB007208FC000800283015
:103DF2008312031394008316031391018312031396
:103E02002008A4002108A5002208A6002308A70074
:103E120002300310A40DA50DA60DA70DFF3E031D34
:103E22000A2F2708F3002608F2002508F1002408CB
:103E3200F0000030F7003D30F6000930F5000030A8
:103E4200F4000A168A1190210A168A157008FF3E9C
:103E52008316031393009401871507160800F21FB7
:103E6200332F342F412F7008003CF0007108031CDF
:103E7200710F003CF1007208031C720F803CF200CB
:103E8200F51F442F452F522F7308003CF30074088E
:103E9200031C740F003CF4007508031C750F803C72
:103EA200F5008030F2068030F50675087202031DB7
:103EB200602F74087102031D602F730870020318CB
:103EC200632F642F662F0310672F03140800FB0172
:103ED200FC017608770403196F2F702FA72FFD01BD
:103EE200FD0A7E2F01300310F60DF70DFF3E031D74
:103EF200742F0130FA007A08FD07F71F812F822FF5
:103F0200732F01300310FB0DFC0DFF3E031D832FA9
:103F120077087902031D8F2F76087802031C922FEF
:103F2200932F9A2F7608F8027708031CF903F902F7
:103F32007B1401300310F70CF60CFF3E031D9B2F80
:103F42000130FD02031DA62FA72F822F7C08F70048
:103F52007B08F600080073087204710470040319E8
:103F6200B32FB42FF72FF901F90AC42F0130F8004B
:103F72000310F00DF10DF20DF30DF80BB92F013016
:103F8200F8007808F907F31FC72FC82FB72F730857
:103F92007702031DD62F72087602031DD62F7108F1
:103FA2007502031DD62F70087402031CD92FDA2F55
:103FB200E82F7008F4027108031C710FF5027208F1
:103FC200031C720FF6027308031C730FF702013011
:103FD2000310F30CF20CF10CF00CFF3E031DE92F61
:103FE2000130F902031DF62FF72FC82F7708F300CF
:0E3FF2007608F2007508F1007408F00008006F
:04400E00D420FF3F7C
:00000001FF
