:020000040000FA
:060000000A128A110C280F
:10000800FE00030EF1000A08F2000A128A11CB2D35
:100018000A128A110F2883137030FD000630FE0083
:100028002E30FF00613084000A128A11FA250A1264
:100038008A110A128A1159260A128A11F8000A121C
:100048008A115A260A128A11F90043308400613055
:100058000A128A1149260A128A11FA0183010A1220
:100068008A11BE2BFF0000308A007F0882073B28D8
:1000780083120313B5002A30AE002E08B1002E2AD1
:1000880025303906031949284A2856283908AE0068
:10009800350884002E08831380000130AE002E0836
:1000A800B5072E2AB601B701B201290884000A1241
:1000B8008A1153250A128A110A128A111C260A1259
:1000C8008A11031C68286928A92883120313B6011A
:1000D800B7010A30F3000030F40083120313370825
:1000E800F6003608F5000A128A117E250A128A11CE
:1000F800740883120313B7007308B6002908840034
:100108000A128A1153250A128A11D03EAE00FF3016
:1001180003180030AF002E08B6070318B70A2F08D7
:10012800B7070130AE002E08A907290884000A1273
:100138008A1153250A128A110A128A111C260A12D8
:100148008A110318A828A9286D28831203132908DF
:1001580084000A128A1153250A128A112E3A031DA5
:10016800B628B728EE280130AE002E08A907B80136
:10017800DD28831203133808AE002E08F3000A3076
:100188000A128A11E1250A128A1183120313AF0099
:100198002F08B800290884000A128A1153250A1268
:1001A8008A11D03EAE002E08B8070130AE002E08E6
:1001B800A907290884000A128A1153250A128A11EC
:1001C8000A128A111C260A128A110318EC28ED2833
:1001D800BD28EF28B801013083120313A907FF30A7
:1001E800290784000A128A1153250A128A11B900B4
:1001F800AE00AF012F08003A031903292E2A2E0852
:10020800003A0319402A643A03190E290D3A0319D2
:100218000E292E2A3108840083130008B300840AAB
:100228000008B4000230AE002E08B107B41F1D2923
:100238001E2927290330AE002E08B204B309B409D9
:10024800B30A0319B40A3808031D2B292C293629A7
:1002580033083404031D3129322936290130AE0010
:100268002E08B807B901B90A3908AE002E07013EB1
:1002780084000A128A1153250A128A11AF000A1241
:100288008A1153250A128A11B00030083402031D5E
:100298004F292F08330203185229532954295E295C
:1002A8000130AE002E08B90705303906031D5D2957
:1002B8005E2938293808AE00AF01AE1BAF032F08FE
:1002C800803A803C031D6A292E08390203186D29DB
:1002D8006E297529831203133808AE002E08B90059
:1002E8008F29831203133808AE00AF01AE1BAF038A
:1002F8002F08803AB00080303002031D8529390864
:100308002E020318882989298F2983120313390893
:10031800AE002E08B80083120313360837040319F9
:1003280096299729A3293208033903199C299D295D
:10033800A329FF30B6070318B70AFF30B7073708F5
:10034800803A803C031DAA29360839020318AD29D2
:10035800AE29BA29831203133908AE00AF012E085B
:10036800B6022F08031CB703B702BE298312031372
:10037800B601B701360837040319C329C429DB2994
:100388002030AE00350884002E0883138000013029
:10039800AE002E08B507FF30B6070318B70AFF30BE
:1003A800B70736083704031DDA29DB29C4293208C0
:1003B80003390319E029E129252A2D30AE00350833
:1003C80084002E08831380000130AE002E08B50784
:1003D800252A0A30A3000030A4003808AE002E07F2
:1003E800013E84000A128A1153250A128A11F30069
:1003F8000A128A1153250A128A11F4003408F600E9
:100408003308F5000A128A1197240A128A1174080F
:1004180083120313A6007308A5000A128A11DD24AB
:100428000A128A11831203132308303EAF002F08E3
:10043800B9003908AE00350884002E0883138000FF
:10044800E829FF30AE002E08B807380A031D2D2A08
:100458002E2AED290130A907FF30290784000A1246
:100468008A1153250A128A11AE002E08B9003908DC
:10047800031D3F2A402A442835088400831380013D
:100488000800831203132E08B2002F08B3003008A7
:10049800B4003108B50006300310B20DB30DB40D29
:1004A800B50DFF3E031D502A3508A3003408A200ED
:1004B8003308A1003208A0002E08B6002F08B700A4
:1004C8003008B8003108B90006300310B60DB70D72
:1004D800B80DB90DFF3E031D692A0030BA0012306D
:1004E800BB007A30BC000030BD003608BA023708BD
:1004F800031C370F802A812ABB023808031C380FD7
:10050800862A872ABC023908031C390F8C2A8D2AAF
:10051800BD023D08A7003C08A6003B08A5003A0814
:10052800A4000A128A1121230A128A1183120313C2
:100538002108F5002008F400013075020030031985
:100548007402031CA82AA92A052B2E08B2002F081A
:10055800B3003008B4003108B50004300310B20D00
:10056800B30DB40DB50DFF3E031DB22A3508A30027
:100578003408A2003308A1003208A0002E08B600F3
:100588002F08B7003008B8003108B900043003104C
:10059800B60DB70DB80DB90DFF3E031DCB2A0030BF
:1005A800BA001230BB007A30BC000030BD003608FB
:1005B800BA023708031C370FE22AE32ABB023808BD
:1005C800031C380FE82AE92ABC023908031C390F32
:1005D800EE2AEF2ABD023D08A7003C08A6003B080A
:1005E800A5003A08A4000A128A1121230A128A11C6
:1005F800831203132108F5002008F400831603135F
:1006080018150130750200300319740203180D2BF8
:100618000E2B202B740883160313990018128312CB
:1006280003139817831603138717071383120313EB
:100638001816831603139816080083120313A901CA
:10064800A31F272B282B352BA009A109A209A30931
:10065800A00A0319A10A0319A20A0319A30AA901E6
:10066800A90AA71F382B392B482BA409A509A609C5
:10067800A709A40A0319A50A0319A60A0319A70AB0
:100688000130F3007308A9060030AD000030AC005B
:100698000030AB000030AA00230822042104200403
:1006A8000319572B582BA52BA801A80A682B013032
:1006B800F3000310A00DA10DA20DA30DF30B5D2BEC
:1006C8000130F3007308A807A31F6B2B6C2B5B2B5F
:1006D8000130F3000310AA0DAB0DAC0DAD0DF30BFB
:1006E8006E2B23082702031D832B22082602031DD5
:1006F800832B21082502031D832B20082402031CB9
:10070800862B872B962B2008A4022108031C210F77
:10071800A5022208031C220FA6022308031C230F8C
:10072800A7022A1401300310A30CA20CA10CA00CE0
:10073800FF3E031D972B0130A802031DA42BA52BF8
:100748006C2B29080319A92BAA2BB52BAA09AB09CD
:10075800AC09AD09AA0A0319AB0A0319AC0A0319B3
:10076800AD0A2D08A3002C08A2002B08A1002A0816
:10077800A00008000A128A1109260A128A110030FC
:1007880083120313B1000030B0002530AF00803071
:10079800AE000A128A1145220A128A110030831209
:1007A8000313B0000130AF008630AE00A030AD00BA
:1007B8000A128A1119250A128A11C53083120313E5
:1007C800BE003E08CC00C530BE003E08CB001A3043
:1007D8000A128A11A9250A128A110B3083120313EF
:1007E800BE003E08A9004C08BF00C0013F08AA008F
:1007F8004008AB004B08C100C2014108AC004208E8
:10080800AD004D300A128A113C200A128A114D306F
:100818000A128A113D260A128A110D300A128A110B
:100828003D260A128A110A300A128A113D260A1236
:100838008A11063083120313C0001330BF00AD3095
:10084800BE00BE0B252CBF0B252CC00B252CE12B85
:100858000A128A110C28003083120313AB000030EF
:10086800AA000030A9000030A800230822042104AF
:1008780020040319402C412C8E2CAC01AC0A512CBD
:100888000130F3000310A00DA10DA20DA30DF30B71
:10089800462C0130F3007308AC07A31F542C552CC9
:1008A800442C0130F3000310A80DA90DAA0DAB0DBF
:1008B800F30B572C23082702031D6C2C2208260251
:1008C800031D6C2C21082502031D6C2C2008240212
:1008D800031C6F2C702C7F2C2008A4022108031CF9
:1008E800210FA5022208031C220FA6022308031CBD
:1008F800230FA702281401300310A30CA20CA10C8B
:10090800A00CFF3E031D802C0130AC02031D8D2C72
:100918008E2C552C2B08A3002A08A2002908A10018
:100928002808A000080083120313A101A20173087C
:1009380074040319A02CA12CD82CA001A00AAF2C58
:1009480001300310F30DF40DFF3E031DA52C0130FB
:10095800F7007708A007F41FB22CB32CA42C0130A1
:100968000310A10DA20DFF3E031DB42C74087602DE
:10097800031DC02C73087502031CC32CC42CCB2C7C
:100988007308F5027408031CF603F60221140130FB
:100998000310F40CF30CFF3E031DCC2C0130A00215
:1009A800031DD72CD82CB32C2208F4002108F300FF
:1009B800080083120313230824040319E42CE52CEC
:1009C800142DA801A80AF32C01300310A30DA40DBF
:1009D800FF3E031DE92C0130A7002708A807A41F24
:1009E800F62CF72CE82C24082602031DFD2C2308DE
:1009F8002502031C002D012D072D2308A50224081C
:100A0800031CA603A60201300310A40CA30CFF3E8E
:100A1800031D082D0130A802031D132D142DF72CDA
:100A28002608A4002508A300080028308312031311
:100A38009400831603139101831203132D08F40005
:100A48002E08F5002F08F6003008F70002300310D2
:100A5800F40DF50DF60DF70DFF3E031D2B2D770850
:100A6800A3007608A2007508A1007408A000003051
:100A7800A7007A30A6001230A5000030A4000A12A0
:100A88008A112F240A128A11831203132008FF3EA9
:100A98008316031393009401871507160800053081
:100AA8008A000408840A82070034013400340A34B6
:100AB800003464340034E8340334103427342534E3
:100AC80032342E3431346434203420342034253404
:100AD80032342E34313464342034003454343134D4
:100AE8002034203420344834313420342034203425
:100AF8000A34003483120313A001A101731C852D4D
:100B0800862D8E2D750883120313A0070318A10ADA
:100B18007608A10701300310F50DF60DFF3E031D01
:100B28008F2D01300310F40CF30CFF3E031D962D9E
:100B380073087404031DA12DA22D822D83120313A3
:100B48002108F4002008F3000800F500F601BD2D87
:100B58007608750784000A128A1153250A128A1129
:100B68000A128A113D260A128A110130F40074080B
:100B7800F6077608750784000A128A1153250A12A7
:100B88008A11003A031DC92DCA2DAC2D0800831205
:100B980003138C1ED02DD12DDA2D8C120A128A1136
:100BA80051260A128A11F0007008FA0072088A00A9
:100BB800710E8300FE0E7E0E0900F600F501761C0C
:100BC800E62DE72DEB2D7308F4007408F5070310E4
:100BD800F30D0310F60C7608031DF32DF42DE32D09
:100BE800750808007E088A007F0882000A128A11A8
:100BF800F6250A128A118000840A04087D06031962
:100C08000034FF0A0319FE0AFA2D8316031386011E
:100C180083160317880189018312031386010B17B2
:100C2800831603138C16831203138C128B17080078
:100C3800F400F3013A3074020318232E242E2C2ECC
:100C480030307402031C292E2A2E2C2EF301F30AAD
:100C5800730C0800AC3433340034A8340034003446
:100C6800E134083400340134003439340034383481
:100C78000034F30083160313981C432E442E3E2E93
:100C88007308831203139900080064008001840A22
:100C980004060319003404064A2E831203138C1E1B
:0E0CA800562E572E512E1A0808003834BA3432
:04400E00D420FF3F7C
:00000001FF
