:020000040000FA
:060000000A128A110C280F
:10000800FE00030EF1000A08F2000A168A15502DA8
:100018000A128A110F288313EA30FD000830FE0007
:100028000130FF00DB3084000A168A1541250A12C8
:100038008A110A128A11FF270A128A11EC000A1281
:100048008A11FE270A128A11FA00BF308400DB30B9
:100058000A168A15D1240A128A11EB01F801F9014E
:1000680083010A168A11CE2B831603133B083A0420
:100078003904031940284128FF283908831203133B
:10008800C800831603133A0883120313C9008316A2
:1000980003133B0883120313CA000A168A11A52208
:1000A8000A128A11831203134B084A0449044804AC
:1000B800031D5F286028FF28831603133708803A3A
:1000C800FF0080307F02031D6B2802303602031CBC
:1000D8006E286F28FF288316031332088312031330
:1000E800A00083160313330883120313A100831699
:1000F8000313340883120313A2007030A30089305D
:10010800A4004030A5000A168A158C260A128A1106
:1001180003188F2890289928F73083160313B607F9
:100128000318B70AFF30B707A128F830831603135E
:10013800B6070318B70AFF30B70736080A128A1538
:1001480073220A128A11831203133F0883160313BA
:10015800B20083120313400883160313B3008312FB
:100168000313410883160313B400390883120313D9
:10017800A000831603133A0883120313A100831601
:1001880003133B0883120313A200831603133208D8
:1001980083120313A3008316031333088312031374
:1001A800A40083160313340883120313A5000A1648
:1001B8008A117B240A128A118312031323088316D7
:1001C8000313AD0083120313220883160313AC0034
:1001D80083120313210883160313AB00831203133E
:1001E800200883160313AA000030B9000030BA00B3
:1001F8000030BB007C2983160313390883120313CC
:10020800C800831603133A0883120313C900831620
:1002180003133B0883120313CA000A168A11A52286
:100228000A128A11831203134B0883160313AD00B5
:10023800831203134A0883160313AC0083120313B3
:10024800490883160313AB00831203134808831667
:100258000313AA002D0883120313D2008316031375
:100268002C0883120313D100831603132B0883125F
:100278000313D000831603132A0883120313CF0035
:100288000A168A151F260A128A11831203134F08A9
:10029800DC005008DD005108DE008316031339081E
:1002A80083120313DF00831603133A088312031320
:1002B800E000831603133B0883120313E1000A16B8
:1002C8008A159F250A128A11831203135C08831664
:1002D8000313B900831203135D0883160313BA00CE
:1002E800831203135E0883160313BB00B601B7011C
:1002F800BE01BE0A3E08A00001300310A00DFF3E5B
:10030800031D81290310200D4F3E84000A168A110F
:1003180000200A128A11A1000A168A1100200A1266
:100328008A11A2000A168A1100200A128A11A30053
:100338000A168A1100200A128A11A40024082D0224
:10034800031DB02923082C02031DB02922082B0203
:10035800031DB02921082A020318B329B429B52995
:10036800BF290130A0002008BE070A303E06031D41
:10037800BE29BF297E293E083C07A0003D08031876
:100388003D0AA10036082007A20037080318370ADB
:100398002107A3002208B0022308031CB103B102FD
:1003A8003C083D040319D929DA29E029FF30B007B0
:1003B8000318B10AFF30B10703302E05A000003042
:1003C8002F05A100200821040319EB29EC29012A93
:1003D800FF30B0070318B10AFF30B107012A2030F7
:1003E80083160313A00038088400200883138000B4
:1003F8000130A0002008B807EC293108803AFF0036
:1004080080307F02031D0A2A0130300203180D2AAA
:100418000E2AF3290330831603132E05A00000309B
:100428002F05A1002008210403191B2A1C2ACE2A03
:100438002D30A00038088400200883138000013084
:10044800A0002008B807CE2A3E08A00001300310FB
:10045800A00DFF3E031D2B2A0310200D4F3E8400E4
:100468000A168A1100200A128A1183120313A000A7
:100478000A168A1100200A128A11A1000A168A1186
:1004880000200A128A11A2000A168A1100200A12F4
:100498008A11A300831603132D0883120313A700E0
:1004A800831603132C0883120313A6008316031361
:1004B8002B0883120313A500831603132A0883123B
:1004C8000313A4000A168A1152210A128A118312F0
:1004D8000313230883160313B5008312031322089A
:1004E80083160313B400831203132108831603131E
:1004F800B30083120313200883160313B2000030DD
:1005080083120313A3000030A2000030A1000A30B8
:10051800A00083160313350883120313A70083165C
:100528000313340883120313A60083160313330836
:1005380083120313A50083160313320883120313CF
:10054800A4000A168A119B200A128A118312031327
:10055800230883160313B500831203132208831696
:100568000313B40083120313210883160313B30083
:1005780083120313200883160313B2003208303E97
:10058800A000380884002008831380000130A000F0
:100598002008B8070130BE023E0A031DD42AD52A16
:1005A800282AE92A303083160313A000380884006B
:1005B8002008831380000130A0002008B807FF300E
:1005C800B6070318B70AFF30B7073708803AFF00A5
:1005D80080307F02031DF22A013036020318F52A03
:1005E800F62AD62A831603133D08803AFF00803086
:1005F8007F02031D012B09303C02031C042B052B31
:100608000C2B083083160313A0002008BE00122B01
:10061800831603133C08A0002008BE003E08A00073
:10062800A1012008BC022108031CBD03BD023E082D
:1006380003191F2B202B2B2B2E30A00038088400E9
:100648002008831380000130A0002008B8073E0866
:100658000A128A1573220A128A11831203133F0899
:1006680083160313A600831203134008831603138B
:10067800A70083120313410883160313A800260852
:1006880083120313B200831603132708831203137C
:10069800B30083160313280883120313B4008316C8
:1006A8000313390883120313AF00831603133A08A0
:1006B80083120313B000831603133B08831203133A
:1006C800B1000A168A1114260A128A11831203131A
:1006D8002F08C8003008C9003108CA000A168A1154
:1006E800A5220A128A11831203134B0883160313D7
:1006F800AD00831203134A0883160313AC00831258
:100708000313490883160313AB0083120313480825
:1007180083160313AA00912C3E08A0000130031091
:10072800A00DFF3E031D932B0310200D4F3E8400A8
:100738000A168A1100200A128A1183120313A000D4
:100748000A168A1100200A128A11A1000A168A11B3
:1007580000200A128A11A2000A168A1100200A1221
:100768008A11A300831603132D0883120313A7000D
:10077800831603132C0883120313A600831603138E
:100788002B0883120313A500831603132A08831268
:100798000313A4000A168A1152210A128A1183121D
:1007A8000313230883160313B500831203132208C7
:1007B80083160313B400831203132108831603134B
:1007C800B30083120313200883160313B20000300A
:1007D80083120313A3000030A2000030A1000A30E6
:1007E800A00083160313350883120313A70083168A
:1007F8000313340883120313A60083160313330864
:1008080083120313A50083160313320883120313FC
:10081800A4000A168A119B200A128A118312031354
:10082800230883160313B5008312031322088316C3
:100838000313B40083120313210883160313B300B0
:1008480083120313200883160313B2003208303EC4
:10085800A000380884002008831380000130A0001D
:100868002008B8073E08A00001300310A00DFF3E85
:10087800031D392C0310200D4F3E84000A168A11DF
:1008880000200A128A1183120313A0000A168A1183
:1008980000200A128A11A1000A168A1100200A12E1
:1008A8008A11A2000A168A1100200A128A11A300CE
:1008B800831603132D0883120313A700831603134B
:1008C8002C0883120313A600831603132B08831224
:1008D8000313A500831603132A0883120313A40025
:1008E8000A168A119B200A128A11831203132308FD
:1008F80083160313AD008312031322088316031310
:10090800AC0083120313210883160313AB00831270
:100918000313200883160313AA000130BE023E0AFF
:10092800031D972C982C902BAA2C3030A000380847
:1009380084002008831380000130A0002008B80735
:10094800FF30BC070318BD0AFF30BD073C083D0453
:10095800031DAF2CB02C992C762D3C083D04031DAB
:10096800B62CB72CC52C2D082C042B042A04031DE7
:10097800BE2CBF2CC52C0130BC070318BD0A0030A3
:10098800BD073D08803A803C031DCC2C3C083E0244
:100998000318CF2CD02CD72C831603133C08A000A7
:1009A8002008BE00EF2C831603133D08803AA000F0
:1009B80080302002031DE22C3E083C020318E52C7F
:1009C800E62CEF2C831603133E08A000A101200893
:1009D800BC002108BD008316031330083104031935
:1009E800F62CF72C092D03302E05A00000302F051A
:1009F800A100200821040319022D032D092DFF3021
:100A0800B0070318B10AFF30B1072F1F0C2D0D2DA9
:100A1800282D3D08803AA0003108803A2002031DA5
:100A2800172D30083C0203181A2D1B2D242D831670
:100A380003133C08B0023D08031CB103B102282D82
:100A480083160313B001B1013108803A803C031DBD
:100A58002F2D30083E020318322D332D3F2D8316DB
:100A680003133E08A000A1012008B0022108031CBE
:100A7800B103B102432D83160313B001B10130084D
:100A880031040319482D492D602D2030A000380865
:100A980084002008831380000130A0002008B807D4
:100AA800FF30B0070318B10AFF30B107300831042E
:100AB800031D5F2D602D492D03302E05A000003049
:100AC8002F05A1002008210403196B2D6C2D762D0C
:100AD8002D30A000380884002008831380000A12F3
:100AE8008A15452D013083120313E207FF30620790
:100AF80084000A168A1100200A128A118316031329
:100B0800A0002008BE003E08031D8B2D8E2D0A1262
:100B18008A15382D38088400831380010800831251
:100B28000313CE006E304E02031C9B2D9C2D792E94
:100B38000330C2004208AB004E08C300C40143089A
:100B4800F5004408F6006430F3000030F4000A169B
:100B58008A15C6260A128A11740883120313A40080
:100B68007308A3000A30A1000030A2000A168A15F3
:100B780002270A128A118312031321080A168A15FA
:100B880066250A128A11433E84000A168A1100203B
:100B98000A128A1183120313AF000A168A11002061
:100BA8000A128A11B0000A168A1100200A128A1144
:100BB800B1000330C5004508AB004E08C600C701A8
:100BC8004608A3004708A4006430A1000030A20032
:100BD8000A168A1502270A128A118312031321089A
:100BE8000A168A1566250A128A115E3E84000A16BC
:100BF8008A1100200A128A1183120313B2000A16FE
:100C08008A1100200A128A11B3000A168A110020DC
:100C18000A128A11B4000A168A1114260A128A11B5
:100C2800831203132F08CB003008CC003108CD0005
:100C38000330C2004208AB004E08C300C401430899
:100C4800F5004408F6000A30F3000030F4000A16F4
:100C58008A15C6260A128A1173080A168A15662585
:100C68000A128A11283E84000A168A1100200A12E4
:100C78008A1183120313AF000A168A1100200A1280
:100C88008A11B0000A168A1100200A128A11B100CE
:100C98004B08B2004C08B3004D08B4000A168A117C
:100CA80014260A128A11831203132F08C800300869
:100CB800C9003108CA000030AF000030B0003F3032
:100CC800B1004808B2004908B3004A08B4000A163F
:100CD8008A1114260A128A11831203132F08BF00DF
:100CE8003008C0003108C1003B2F0B304E02031CF6
:100CF8007E2E7F2E082F0330C2004208AB004E081C
:100D0800C300C4014308F5004408F6000A30F300A4
:100D18000030F4000A168A15C6260A128A117308CA
:100D28000A168A1566250A128A11283E84000A16B0
:100D38008A1100200A128A1183120313AF000A16BF
:100D48008A1100200A128A11B0000A168A1100209E
:100D58000A128A11B1000330C5004508AB004E08DD
:100D6800C600C7014608A3004708A4000A30A1002E
:100D78000030A2000A168A1502270A128A11831265
:100D8800031321080A168A1566250A128A11433E9A
:100D980084000A168A1100200A128A11831203138A
:100DA800B2000A168A1100200A128A11B3000A1624
:100DB8008A1100200A128A11B4000A168A11142610
:100DC8000A128A11831203132F08CB003008CC00B3
:100DD8003108CD000030AF000030B0003F30B10026
:100DE8004B08B2004C08B3004D08B4000A168A112B
:100DF80014260A128A11831203132F08BF00300821
:100E0800C0003108C1003B2F0030AF000030B000F7
:100E18003F30B1000330C2004208AB004E080A164A
:100E28008A1566250A128A11283E84000A168A1134
:100E380000200A128A1183120313B2000A168A11BB
:100E480000200A128A11B3000A168A1100200A1219
:100E58008A11B4000A168A1114260A128A118312FA
:100E680003132F08BF003008C0003108C100080074
:100E7800831203134208C5004308C6004408C7008C
:100E88000310460D470DC8004808CD004D08031D46
:100E98004E2F4F2F562F0030BF000030C0000030BB
:100EA800C100FD2F3F08C5004008C6004108C70023
:100EB8000310460D470DC8004808CE004E08031D14
:100EC800662F672F6E2F0030BF000030C000003043
:100ED800C100FD2F0030CA000030CB000030CC002C
:100EE80089304E07C5004508CD024208C5004308B1
:100EF800C6004408C70010300310C70CC60CC50C48
:100F0800FF3E031D802F4508C8004808CE003F0853
:100F1800C5004008C6004108C70010300310C70CC0
:100F2800C60CC50CFF3E031D922F4508C800480893
:100F3800CE068030C5004508CE05C317FF30C20570
:100F4800FF30C3050030C405C017FF30BF05FF30B0
:100F5800C0050030C1051830C5004508C90001307A
:100F68000310CA0DCB0DCC0DFF3E031DB42F410855
:100F78004402031DC52F40084302031DC52F3F0827
:100F88004202031CC82FC92FD42F3F08C2024008B1
:100F9800031C400FC3024108031C410AC4024A143F
:100FA80001300310C20DC30DC40DFF3E031DD52F24
:100FB8000130C902031DE12FE22FB32F4A08F300C5
:100FC8004B08F4004C08F5004D08C5004508F6002C
:100FD8004E08C6004608F7000A168A1123220A128C
:100FE8008A11730883120313BF007408C0007508C0
:080FF800C10008003834BA34CE
:10100200AC3433340034A83400340034E1340834CE
:1010120000340134003439340034383400342030A0
:1010220084008313000883120313A600840A0008B5
:10103200A700840A0008A800840A0008A900031077
:10104200280D290DAA002A08B3003308031D2A28F7
:101052002B2834280030A3000030A2000030A10069
:101062000030A0003C29233084000008A600840A36
:101072000008A700840A0008A800840A0008A90042
:101082000310280D290DAA002A08B2003208031DF8
:101092004B284C284D282B28203084000030800417
:1010A200840A00308004840A80308004840A00307C
:1010B200800420308400FF308005840AFF308005E0
:1010C200840AFF308005840A0030800523308400C2
:1010D20000308004840A00308004840A8030800456
:1010E200840A0030800423308400FF308005840AA3
:1010F200FF308005840AFF308005840A00308005B5
:101102000030B1000030B0000030AF000030AE005F
:101112007F30B302A0303207A6002608B302203087
:10112200A6002608B2000130A6000310AE0DAF0DD6
:10113200B00DB10DA60B9628233084000008A6003E
:10114200840A0008A700840A0008A800840A00088C
:10115200A900203084000008AA00840A0008AB001D
:10116200840A0008AC00840A0008AD0029082D0298
:10117200031DC52828082C02031DC52827082B0299
:10118200031DC52826082A02031CC828C928EC28E2
:10119200233084000008A600840A0008A700840AFD
:1011A2000008A800840A0008A9002030840026084C
:1011B2008002840A2708031C270F8002840A280859
:1011C200031C280F8002840A2908031C290A8002B2
:1011D200033084022E14203084000310800D840A10
:1011E200800D840A800D840A800D840384038403A5
:1011F2000130B202031DFE28FF289428B31F0229E2
:1012020003291D293308803A9F3E031809290A2918
:101212000B292B2801300310B10CB00CAF0CAE0C13
:10122200FF3E031D0C290130A6002608B307031D4B
:101232001B291C290B29342920303302031C2229A3
:1012420023292F292B280130A6000310AE0DAF0D44
:10125200B00DB10DA60B26290130B3023308031DD0
:101262003329342924293108A3003008A2002F0889
:10127200A1002E08A0000800831203134F08D50016
:101282005008D6005108D7000310560D570DD8004C
:101292005808DB005208D5005308D6005408D7007E
:1012A2000310560D570DD8005808DA005B080319D1
:1012B2005B295C296C295A085B020318612962299F
:1012C20073295A08D5005B08D50219305502031C50
:1012D2006B296C2973295208CF005308D000540897
:1012E200D100722A5A0803197729782988295B08BC
:1012F2005A0203187D297E2989295B08D5005A08DC
:10130200D50219305502031C872988298929722A96
:101312000630D5005508D900D11F9029912992296C
:10132200D917D41F9529962997295917D017FF3015
:10133200CF05FF30D0050030D105D317FF30D205DD
:10134200FF30D3050030D4055A085B020318AA29DE
:10135200AB29D72901300310D20DD30DD40DFF3E96
:10136200031DAC290130DA025A085B060319BA29B7
:10137200BB29D0290130D90259080739031DC229D6
:10138200C329AB29D02901300310D10CD00CCF0CCA
:10139200FF3E031DC5290130D5005508DB075B0858
:1013A2005A06031DD529D629C429082A5B085A02E0
:1013B2000318DC29DD29082A01300310CF0DD00DD6
:1013C200D10DFF3E031DDE290130DB025A085B0608
:1013D2000319EC29ED29022A0130D90259080739EB
:1013E200031DF429F529DD29022A01300310D40C4A
:1013F200D30CD20CFF3E031DF7290130D50055084E
:10140200DA075B085A06031D072A082AF629D91F9C
:101412000B2A0C2A1C2AFF30CF06FF30D006FF30E1
:10142200D1060130CF07003003180130D007003059
:1014320003180130D107591F1F2A202A302AFF30F2
:10144200D206FF30D306FF30D4060130D207003077
:1014520003180130D307003003180130D407D90133
:101462004F08D207500803110318500A03193A2AE9
:10147200D307510803110318510A0319412AD4074B
:10148200D41F442A452A572AFF30D206FF30D306FA
:10149200FF30D4060130D207003003180130D307E1
:1014A200003003180130D407D901D90A5208F300D9
:1014B2005308F4005408F5005B08D5005508F600FF
:1014C2005908D6005608F7000A168A1123220A1272
:1014D2008A15730883120313CF007408D0007508AD
:1014E200D100080083120313C700C71F792A7A2A82
:1014F200D52BC709C70A4708803A123E031C822A25
:10150200832A412B0330C2004208AB004708F50092
:10151200F601F51BF6036430F3000030F4000A16FE
:101522008A1548270A128A15740883120313A50024
:101532007308A4000A30A2000030A3000A168A1120
:10154200BA210A128A158312031322080A168A156F
:1015520066250A128A15433E84000A168A11002063
:101562000A128A1583120313AF000A168A11002089
:101572000A128A15B0000A168A1100200A128A1568
:10158200B1000330C3004308AB004708A400A50123
:10159200A41BA5036430A2000030A3000A168A111E
:1015A200BA210A128A158312031322080A168A150F
:1015B20066250A128A155E3E84000A168A110020E8
:1015C2000A128A1583120313B2000A168A11002026
:1015D2000A128A15B3000A168A1100200A128A1505
:1015E200B4000A168A1114260A128A1583120313EA
:1015F2002F08C4003008C5003108C6000330C200FD
:101602004208AB004708F500F601F51BF6030A3065
:10161200F3000030F4000A168A1548270A128A15C8
:1016220073080A168A1566250A128A15283E84004E
:101632000A168A1100200A128A1583120313AF00B8
:101642000A168A1100200A128A15B0000A168A1197
:1016520000200A128A15B1004408B2004508B300FE
:101662004608B4000A168A1114260A128A15831231
:1016720003132F08BF003008C0003108C1002D2D10
:101682004708803A753E031C472B482BB42B033086
:10169200C2004208AB004708F500F601F51BF6034D
:1016A2000A30F3000030F4000A168A1548270A129D
:1016B2008A1573080A168A1566250A128A15283EA3
:1016C20084000A168A1100200A128A158312031353
:1016D200AF000A168A1100200A128A15B0000A16F3
:1016E2008A1100200A128A15B1000330C300430890
:1016F200AB004708A400A501A41BA5030A30A20061
:101702000030A3000A168A11BA210A128A1583121E
:10171200031322080A168A1566250A128A15433E01
:1017220084000A168A1100200A128A1583120313F2
:10173200B2000A168A1100200A128A15B3000A168C
:101742008A1100200A128A15B4000A168A11142678
:101752000A128A15831203132F08BF003008C00033
:101762003108C1002D2D0330C2004208AB004708EA
:101772000A168A1566250A128A15283E84000A1658
:101782008A1100200A128A1583120313BF000A1657
:101792008A1100200A128A15C0000A168A11002036
:1017A2000A128A15C1002D2D4708803A123E031CE9
:1017B200DB2BDC2B9A2C0330C2004208AB0047081B
:1017C200F500F601F51BF6036430F3000030F40077
:1017D2000A168A1548270A128A15740883120313F7
:1017E200A5007308A4000A30A2000030A3000A1664
:1017F2008A11BA210A128A158312031322080A16C1
:101802008A1566250A128A151C3E84000A168A1158
:1018120000200A128A1583120313AF000A168A11D6
:1018220000200A128A15B0000A168A1100200A1234
:101832008A15B1000330C3004308AB004708A40077
:10184200A501A41BA5036430A2000030A3000A1660
:101852008A11BA210A128A158312031322080A1660
:101862008A1566250A128A15373E84000A168A11DD
:1018720000200A128A1583120313B2000A168A1173
:1018820000200A128A15B3000A168A1100200A12D1
:101892008A15B4000A168A1114260A128A158312AE
:1018A20003132F08C4003008C5003108C6000330F6
:1018B200C2004208AB004708F500F601F51BF6032B
:1018C2000A30F3000030F4000A168A1548270A127B
:1018D2008A1573080A168A1566250A128A15013EA8
:1018E20084000A168A1100200A128A158312031331
:1018F200AF000A168A1100200A128A15B0000A16D1
:101902008A1100200A128A15B1004408B200450863
:10191200B3004608B4000A168A1114260A128A1560
:10192200831203132F08BF003008C0003108C10022
:101932002D2D4708803A753E031CA02CA12C0D2D9D
:101942000330C2004208AB004708F500F601F51B60
:10195200F6030A30F3000030F4000A168A1548270D
:101962000A128A1573080A168A1566250A128A153A
:10197200013E84000A168A1100200A128A15831277
:101982000313AF000A168A1100200A128A15B0004A
:101992000A168A1100200A128A15B1000330C30008
:1019A2004308AB004708A400A501A41BA5030A3005
:1019B200A2000030A3000A168A11BA210A128A155F
:1019C2008312031322080A168A1566250A128A153B
:1019D2001C3E84000A168A1100200A128A158312FC
:1019E2000313B2000A168A1100200A128A15B300E4
:1019F2000A168A1100200A128A15B4000A168A11E0
:101A020014260A128A15831203132F08BF00300806
:101A1200C0003108C1002D2D0330C2004208AB00C6
:101A220047080A168A1566250A128A15013E84009D
:101A32000A168A1100200A128A1583120313BF00A4
:101A42000A168A1100200A128A15C0000A168A1183
:101A520000200A128A15C100080083160313B80079
:101A62006330A0002008A9000A128A11762D2530C1
:101A72003E0603193D2D3E2D4A2D3E08A000380892
:101A820084002008831380000130A0002008B807DA
:101A9200352DB001B101AE01AF018312031362080B
:101AA20084000A168A1100200A128A150A168A155B
:101AB20018250A128A15031C5F2D602DA62D831688
:101AC2000313B001B1010A30F3000030F4008316B1
:101AD20003133108F6003008F5000A168A15C425EA
:101AE2000A128A15740883160313B1007308B00032
:101AF20083120313620884000A168A1100200A1254
:101B02008A15D03E83160313A000FF30031800305D
:101B1200A1002008B0070318B10A2108B10701305B
:101B2200A000200883120313E207620884000A1649
:101B32008A1100200A128A150A168A1518250A1215
:101B42008A150318A52DA62D642D8312031362088E
:101B520084000A168A1100200A128A152E3A031DE1
:101B6200B32DB42D062E831603132F170130A000B8
:101B7200200883120313E20783160313BC01BD017D
:101B8200F42D0A30F3000030F400831603133D08ED
:101B9200F6003C08F5000A168A15C4250A128A15B1
:101BA200740883160313BD007308BC008312031369
:101BB200620884000A168A1100200A128A15D03E91
:101BC20083160313A000FF3003180030A100200881
:101BD200BC070318BD0A2108BD070130A000200878
:101BE20083120313E2078312620884000A168A1121
:101BF20000200A128A150A168A1518250A128A1551
:101C02000318042E052EC22D0E2E83160313BC01BB
:101C1200BD012F160E2E2F152C2E01308312031309
:101C2200E207FF30620784000A168A1100200A12B6
:101C32008A1583160313BE00A000A1012108003AF1
:101C42000319242E352D2008003A0319FD2F663A78
:101C520003190C2E352D00302E05A00007302F055C
:101C6200A100200821040319372E3A2E0A128A11E4
:101C7200B12C2F1E3D2E3E2E422E0630BC000030CF
:101C8200BD002908840083130008B900840A0008F3
:101C9200BA00840A0008BB000330A0002008A9078C
:101CA200390883120313A000831603133A08831220
:101CB2000313A100831603133B0883120313A2002C
:101CC2000030A3000030A4000030A5000A168A15D7
:101CD2008C260A128A1503186F2E702E892E8316EF
:101CE20003133908F3003A08F4003B08F5000A161A
:101CF2008A15F5240A128A15730883160313B9008C
:101D02007408BA007508BB000330AE040030AF049B
:101D120083160313B601B7013B083A0439040319C9
:101D2200932E942EA22FB930840083130008A000B2
:101D3200840A0008A100840A0008A200840A00089C
:101D4200A3000F300310A30CA20CA10CA00CFF3EA9
:101D5200031DA32EFF302005A40000302105A5009D
:101D62002408823EB60025080318013EFF3EB70054
:101D7200FF30B6070318B70AFF30B7070330F30086
:101D82000030F4003708F6003608F5000A168A1506
:101D9200C4250A128A15740883160313B700730840
:101DA200B6000A3083120313A2000030A300831688
:101DB2000313370883120313A5008316031336088F
:101DC20083120313A4000A168A11BA210A128A1571
:101DD20083120313230883160313B700831203131A
:101DE200220883160313B600B71FF82EF92EFF2E12
:101DF200FF30B6070318B70AFF30B7073603FF3ABA
:101E02000A128A1573220A128A15831203133F08D3
:101E120083160313B20083120313400883160313BD
:101E2200B30083120313410883160313B400390865
:101E320083120313AF00831603133A0883120313AA
:101E4200B000831603133B0883120313B1008316F9
:101E52000313320883120313B200831603133308E9
:101E620083120313B300831603133408831203137C
:101E7200B4000A168A1114260A128A158312031351
:101E82002F0883160313B20083120313300883163C
:101E92000313B30083120313310883160313B40030
:101EA200320883120313A00083160313330883122C
:101EB2000313A10083160313340883120313A20031
:101EC2000030A3008030A4003F30A5000A168A1516
:101ED2008C260A128A1503186F2F702F792FFF3064
:101EE20083160313B6070318B70AFF30B707A22FEA
:101EF20083160313320883120313A00083160313FD
:101F0200330883120313A1008316031334088312C8
:101F12000313A2000030A3002030A4004130A5002A
:101F22000A168A158C260A128A15031C992F9A2FD3
:101F3200A22F013083160313B6070318B70A003025
:101F4200B707831603133D08803AFF0080307F02F3
:101F5200031DAD2F0D303C020318B02FB12FEA2F15
:101F6200831603133C080A128A1193250A128A1552
:101F7200831203133F08CF004008D0004108D1006C
:101F820083160313390883120313D2008316031333
:101F92003A0883120313D300831603133B088312F8
:101FA2000313D4000A128A153D210A128A158312DC
:101FB20003134F0883160313B90083120313500847
:101FC20083160313BA0083120313510883160313F3
:101FD200BB00831603133708803AFF0080307F026C
:101FE200031DF52F0A3036020318FA2F0A128A113E
:101FF20038280A128A116F280A128A118E2D10307F
:102002008A000408840A82070034003480343F3492
:102012000034203441340034C834423400347A3439
:10202200443440341C3446345034C33447342434AA
:1020320074344934973418344B34BC34BE344C3481
:102042006B346E344E340334153450347934AD3439
:102052006034F33449347134003480343F34CD3445
:10206200CC343D34D73423343C34123483343A34C0
:10207200B734D1343834C63427343734383486341C
:102082003534C034D6343334CC342B343234703417
:1020920089343034E734DB342E34E5343C341E34B6
:1020A2004234A2340D3401340034003400340A3492
:1020B2000034003400346434003400340034E83432
:1020C2000334003400341034273400340034A03494
:1020D200863401340034403442340F3400348034C6
:1020E2009634983400340034E134F5340534003445
:1020F200CA349A343B34253432342E343134663483
:10210200203420342034253432342E3431346634B1
:1021120020340034543431342034203420344834D0
:1021220031342034203420340A3400346134003411
:102136008312031323082204210420040319A4286C
:10214600A528E828F401F40AB5280130F3000310A5
:10215600A00DA10DA20DA30DF30BAA280130F300CB
:102166007308F407A31FB828B928A828230827024C
:10217600031DC72822082602031DC7282108250299
:10218600031DC72820082402031CCA28CB28D928E7
:102196002008A4022108031C210FA5022208031C03
:1021A600220FA6022308031C230FA70201300310E7
:1021B600A30CA20CA10CA00CFF3E031DDA280130D3
:1021C600F402031DE728E828B9282708A3002608F3
:1021D600A2002508A1002408A000080000308312F0
:1021E6000313A200A3000A168A11F9260A168A11F9
:1021F600831203132508D2002408D1002308D00037
:102206002208CF000A168A151F260A168A1183127B
:1022160003134F08DF005008E0005108E1000030CA
:10222600CF004830D000C230D1000030BF0080302F
:10223600C0004930C1000030AF004830B000433024
:10224600B1005F08B2006008B3006108B4000A1666
:102256008A1114260A168A11831203132F08C20044
:102266003008C3003108C4000A128A113C270A1636
:102276008A11831203133F08D2004008D300410895
:10228600D4000A128A153D210A168A1183120313F5
:102296004F08DC005008DD005108DE000800003061
:1022A60083120313AB000030AA000030A9000030EF
:1022B600A8002308220421042004031963296429A1
:1022C600B129AC01AC0A74290130F3000310A00D4A
:1022D600A10DA20DA30DF30B69290130F3007308BC
:1022E600AC07A31F7729782967290130F30003106B
:1022F600A80DA90DAA0DAB0DF30B7A292308270209
:10230600031D8F2922082602031D8F292108250275
:10231600031D8F2920082402031C92299329A22930
:102326002008A4022108031C210FA5022208031C71
:10233600220FA6022308031C230FA702281401302C
:102346000310A30CA20CA10CA00CFF3E031DA32995
:102356000130AC02031DB029B12978292B08A3004E
:102366002A08A2002908A1002808A0000800831254
:102376000313A801A31FC029C129C829A209A309BB
:10238600A20A0319A30AA801A80AA51FCB29CC29CA
:10239600D529A409A509A40A0319A50A0130A6008E
:1023A6002608A806A901AA01220823040319DC2984
:1023B600DD29142AA701A70AEB2901300310A20D73
:1023C600A30DFF3E031DE1290130A6002608A7073D
:1023D600A31FEE29EF29E02901300310A90DAA0D4C
:1023E600FF3E031DF02923082502031DFC292208B0
:1023F6002402031CFF29002A072A2208A402230814
:10240600031CA503A502291401300310A30CA20C7A
:10241600FF3E031D082A0130A702031D132A142AB2
:10242600EF2928080319182A192A1E2AA909AA0910
:10243600A90A0319AA0A2A08A3002908A200080063
:1024460076080319272A282A2F2A75087404730484
:10245600031D2E2A2F2A442A0030F3000030F400F0
:102466000030F500A42A013083120313A0002008CF
:10247600F60701300310F50CF40CF30CFF3E031DB8
:102486003D2AFE307505031D492A4A2A362A632A43
:10249600013083120313A0002008F6070130F3076A
:1024A600003003180130F407003003180130F50737
:1024B60001300310F50CF40CF30CFF3E031D5C2AEF
:1024C600FF307505031D682A692A4B2A742A0130D4
:1024D600F60201300310F30DF40DF50DFF3E031D5A
:1024E6006D2AF41B772A782A7E2A02307602031890
:1024F6007D2A7E2A6A2A7618812A822A882AFF302D
:10250600F3057F30F405FF30F5050310F60C760869
:1025160083120313A000A101A20110300310A00D25
:10252600A10DA20DFF3E031D912A2008F3042108E8
:10253600F4042208F50477080319A22AA32AA42A78
:10254600F5170800831203134808CC004908CD008C
:102556004A08CE0003104D0D4E0DCF004F08D50092
:102566005508031DB72AB82AC12A0030CB0000300F
:10257600CA000030C9000030C800302B4808CC0023
:102586004908CD004A08CE0017300310CE0CCD0CFA
:10259600CC0CFF3E031DC82A4C08CF004F08D000C4
:1025A600C917FF30C805FF30C9050030CA054808FD
:1025B600D1004908D2004A08D300D4018E30D50292
:1025C600D51FE62AE72A012B5508803A8F3E0318C5
:1025D600ED2AEE2AEF2AB82A01300310D40CD30CC8
:1025E600D20CD10CFF3E031DF02A0130CC004C0862
:1025F600D507031DFF2A002BEF2A182B183055028A
:10260600031C062B072B132BB82A0130CC00031012
:10261600D10DD20DD30DD40DCC0B0A2B0130D50222
:102626005508031D172B182B082B500803191C2BB4
:102636001D2B282BD109D209D309D409D10A031994
:10264600D20A0319D30A0319D40A5408CB00530833
:10265600CA005208C9005108C800080083120313B3
:10266600A901A31F372B382B452BA009A109A209C5
:10267600A309A00A0319A10A0319A20A0319A30AA6
:10268600A901A90AA71F482B492B582BA409A5095C
:10269600A609A709A40A0319A50A0319A60A031974
:1026A600A70A0130F3007308A9060030AD00003018
:1026B600AC000030AB000030AA002308220421043D
:1026C60020040319672B682BB52BA801A80A782BC1
:1026D6000130F3000310A00DA10DA20DA30DF30B05
:1026E6006D2B0130F3007308A807A31F7B2B7C2BEF
:1026F6006B2B0130F3000310AA0DAB0DAC0DAD0D25
:10270600F30B7E2B23082702031D932B2208260298
:10271600031D932B21082502031D932B2008240259
:10272600031C962B972BA62B2008A4022108031C1A
:10273600210FA5022208031C220FA6022308031C50
:10274600230FA7022A1401300310A30CA20CA10C1C
:10275600A00CFF3E031DA72B0130A802031DB42BBE
:10276600B52B7C2B29080319B92BBA2BC52BAA0923
:10277600AB09AC09AD09AA0A0319AB0A0319AC0ADD
:102786000319AD0A2D08A3002C08A2002B08A100EE
:102796002A08A00008000A168A152A250A168A1190
:1027A600003083120313B1000130B000C230AF0015
:1027B6000030AE000A168A1138250A168A11003032
:1027C60083120313B0000130AF008630AE00A03094
:1027D600AD000A168A1552260A168A1192300A1672
:1027E6008A15FF240A168A110A168A15A3270A16BD
:1027F6008A1183120313550883160313C20083122A
:102806000313560883160313C300831203135708D2
:1028160083160313C4000A168A11F1200A168A11B8
:10282600831203135C0883160313BF00831203137A
:102836005D0883160313C000831203135E08831614
:102846000313C10086300A168A157D250A168A11D9
:10285600773083120313E9006908E2008316031335
:10286600420883120313E3008316031343088312FB
:102876000313E40083160313440883120313E500CD
:10288600831603133F0883120313E600831603130C
:10289600400883120313E7008316031341088312CB
:1028A6000313E800C7300A128A152E250A168A1164
:1028B600C7300A168A15FF240A168A110D300A1621
:1028C6008A15FF240A168A110A300A168A15FF2469
:1028D6000A168A11823083120313EA00DD30E900FA
:1028E600E90B732CEA0B732CF12B0A128A110C28B4
:1028F600831203132008F3002108F4002208F500D0
:102906000310740D750DF6007608AB002B08031D39
:102916008D2C8E2C972C0030A3000030A2000030A6
:10292600A1000030A000372D2308F3002408F4008E
:102936002508F5000310740D750DF6007608AA003B
:102946002A08031DA72CA82CA92C8E2CA117FF3012
:10295600A005FF30A1050030A205A417FF30A3058E
:10296600FF30A4050030A5050030A9000030A800FE
:102976000030A7000030A6007F30AB0298302A074F
:10298600F3007308AB021830F3007308AA00013095
:10299600F3000310A60DA70DA80DA90DF30BCC2C63
:1029A60025082202031DDD2C24082102031DDD2C2F
:1029B60023082002031CE02CE12CEC2C2308A002A7
:1029C6002408031C240FA1022508031C250AA202C1
:1029D600261401300310A00DA10DA20DFF3E031D0C
:1029E600ED2C0130AA02031DF92CFA2CCA2CAB1FC0
:1029F600FD2CFE2C182D2B08803A973E0318042D2B
:102A0600052D062D8E2C01300310A90CA80CA70C41
:102A1600A60CFF3E031D072D0130F3007308AB071C
:102A2600031D162D172D062D2F2D18302B02031CD6
:102A36001D2D1E2D2A2D8E2C0130F3000310A60D00
:102A4600A70DA80DA90DF30B212D0130AB022B0804
:102A5600031D2E2D2F2D1F2D2908A3002808A200A7
:102A66002708A1002608A0000800831203132E08D9
:102A7600B2002F08B3003008B4003108B5000630A4
:102A86000310B20DB30DB40DB50DFF3E031D432D5E
:102A96003508A3003408A2003308A1003208A000BC
:102AA6002E08B6002F08B7003008B8003108B90064
:102AB60006300310B60DB70DB80DB90DFF3E031D58
:102AC6005C2D8030BA001A30BB000630BC000030E6
:102AD600BD003608BA023708031C370F732D742D54
:102AE600BB023808031C380F792D7A2DBC02390831
:102AF600031C390F7F2D802DBD023D08A7003C0821
:102B0600A6003B08A5003A08A4000A168A1131233C
:102B16000A168A11831203132108F5002008F4000F
:102B260001307502003003197402031C9B2D9C2D85
:102B3600F82D2E08B2002F08B3003008B400310873
:102B4600B50004300310B20DB30DB40DB50DFF3E44
:102B5600031DA52D3508A3003408A2003308A100E3
:102B66003208A0002E08B6002F08B7003008B800BB
:102B76003108B90004300310B60DB70DB80DB90D04
:102B8600FF3E031DBE2D8030BA001A30BB00063052
:102B9600BC000030BD003608BA023708031C370FE8
:102BA600D52DD62DBB023808031C380FDB2DDC2DA6
:102BB600BC023908031C390FE12DE22DBD023D0888
:102BC600A7003C08A6003B08A5003A08A4000A1680
:102BD6008A1131230A168A11831203132108F5007C
:102BE6002008F4008316031318150130750200300F
:102BF600031974020318002E012E132E740883166F
:102C060003139900181283120313981783160313DC
:102C160087170713831203131816831603139816C0
:102C26000800831203132F08B5003008B6003108D8
:102C3600B7000310360D370DB8003808B90039084B
:102C4600031D262E272E2E2E0030AF000030B0009A
:102C56000030B100F82E3208B5003308B60034084B
:102C6600B7000310360D370DB8003808BE003E0811
:102C7600031D3E2E3F2E462E0030AF000030B00022
:102C86000030B100F82E3E087B3EB5003508B90786
:102C96002F08B5003008B6003108B7001030031011
:102CA600B70CB60CB50CFF3E031D522E3508B80006
:102CB6003808BE003208B5003308B6003408B7003D
:102CC60010300310B70CB60CB50CFF3E031D642E76
:102CD6003508B8003808BE068030B5003508BE0590
:102CE600B017B317FF30B205FF30B3050030B40597
:102CF6000030BA000030BB000030BC000730B50021
:102D06003508BD002F1C882E892E992E3208BA0749
:102D1600330803110318330A0319922EBB0734082C
:102D260003110318340A0319992EBC070130031046
:102D3600B10CB00CAF0CFF3E031D9A2E01300310F0
:102D4600B20DB30DB40DFF3E031DA22E0130BD0220
:102D5600031DAE2EAF2E852E0930B5003508BD00F9
:102D66002F1CB62EB72EC72E3208BA07330803110A
:102D76000318330A0319C02EBB07340803110318BE
:102D8600340A0319C72EBC0701300310B10CB00C6E
:102D9600AF0CFF3E031DC82E01300310BC0CBB0C4C
:102DA600BA0CFF3E031DD02E0130BD02031DDC2EE2
:102DB600DD2EB32E3A08F3003B08F4003C08F5007C
:102DC6003908B5003508F6003E08B6003608F700A3
:102DD6000A168A1123220A168A117308831203130C
:102DE600AF007408B0007508B10008000A168A150D
:102DF600D9240A168A11831603135D088312031356
:102E0600A600A7012608F3002708F4000A168A156B
:102E1600EB240A168A110A168A15E2240A168A1162
:102E26000D3083120313A700FB30A600A60B192F43
:102E3600A70B192F0A168A15D9240A168A11831286
:102E46000313CE01532F0130F3000030F4000A16AD
:102E56008A15EF250A168A11730883120313A60032
:102E66007408A700A801A9014E08AA0001300310A2
:102E7600AA0DFF3E031D3A2F03102A0D323E840091
:102E8600260883138000840A27088000840A2808FD
:102E96008000840A290880000130A6002608CE0793
:102EA6000130F3000030F4000A168A15EF250A16E1
:102EB6008A1173087404031D612F622F262F831253
:102EC6000313220823040319692F6A2FB62F3E081D
:102ED600A6003F08A7004008A8004108A9003A0834
:102EE600AA003B08AB003C08AC003D08AD0008302A
:102EF6000310AA0DAB0DAC0DAD0DFF3E031D7B2FD0
:102F06003608AE003708AF003808B0003908B100FF
:102F160010300310AE0DAF0DB00DB10DFF3E031D09
:102F26008C2F2E08AA042F08AB043008AC043108F5
:102F3600AD042A08A6042B08A7042C08A8042D080B
:102F4600A90404300310A90CA80CA70CA60CFF3E7C
:102F5600031DA52F2908CD002808CC002708CB0083
:102F66002608CA00F72F4208A6004308A70044080F
:102F7600A8004508A90008300310A60DA70DA80D46
:102F8600A90DFF3E031DBF2F0C30323E84000F30CB
:102F960083130005AA00840A00300005AB00840AEA
:102FA60000300005AC00840A00300005AD0010308A
:102FB6000310AA0DAB0DAC0DAD0DFF3E031DDB2FAF
:102FC6002A08A6042B08A7042C08A8042D08A9047F
:102FD60046082604CA0047082704CB0048082804E8
:102FE600CC0049082904CD004D08A5004C08A400D2
:0A2FF6004B08A3004A08A2000800DF
:10399200831203138C1ECE2CCF2CC92C1A080800BC
:1039A20064008001840A0406031900340406D22C40
:1039B2000A168A150B250A168A1583160313111483
:1039C20008000A168A150B250A168A158316031390
:1039D200111508000A168A150B250A168A1573088E
:1039E2008312031393000800750874047304031907
:1039F200FB2CFC2CFE2C8030F5060800F30083160D
:103A02000313981C052D062D002D73088312031332
:103A120099000800831603131419102D112D0B2D74
:103A220011081F39031D162D172D0B2D0800F40048
:103A3200F3013A30740203181F2D202D282D303047
:103A42007402031C252D262D282DF301F30A730C75
:103A52000800831603138601831603178801890160
:103A62008312031386010B17831603138C1683121A
:103A720003138C128B1708007E088A007F088200CD
:103A82000A168A153D250A168A158000840A04083A
:103A92007D0603190034FF0A0319FE0A412D831221
:103AA20003138C1E552D562D5F2D8C120A168A1566
:103AB200C9240A168A15F0007008F90072088A00F3
:103AC200710E8300FE0E7E0E090083120313AE00F8
:103AD200AD012E1C6D2D6E2D722D2B08AC002C0805
:103AE200AD070310AB0D0310AE0C2E08031D7A2D8B
:103AF2007B2D6A2D2D080800F500F601912D760820
:103B0200750784000A168A1100200A168A150A16F9
:103B12008A15FF240A168A150130F4007408F60784
:103B22007608750784000A168A1100200A168A157B
:103B3200003A031D9D2D9E2D802D08008312031334
:103B42005E085D045C040319A72DA82DAA2D803000
:103B5200DE065F08CF006008D0006108D1005C0873
:103B6200D2005D08D3005E08D4000A128A153D21F6
:103B72000A168A15831203134F08DC005008DD0071
:103B82005108DE00080083120313A001A101731C77
:103B9200CB2DCC2DD42D750883120313A007031847
:103BA200A10A7608A10701300310F50DF60DFF3EBC
:103BB200031DD52D01300310F40CF30CFF3E031D41
:103BC200DC2D73087404031DE72DE82DC82D831224
:103BD20003132108F4002008F30008000A168A15CE
:103BE2000B250A168A158316031391150A168A15D0
:103BF2000B250A168A15831203131308F500F60122
:103C02007508A0007608A1000A168A150B250A1667
:103C12008A1573037404031D0F2E102E142E83169F
:103C220003139112172E8316031391161116831282
:103C320003132108F4002008F30008008E308312D9
:103C42000313D3005308D400332E01300310D20CD7
:103C5200D10CD00CCF0CFF3E031D272E0130D30018
:103C62005308D407FF305205031D382E392E262E55
:103C72004F08F3005008F4005108F5005408D3002F
:103C82005308F600F7010A168A1123220A168A152A
:103C9200730883120313CF007408D0007508D10093
:103CA2000800283083120313940083160313910132
:103CB200831203132D08F4002E08F5002F08F600D6
:103CC2003008F70002300310F40DF50DF60DF70D74
:103CD200FF3E031D642E7708A3007608A200750834
:103CE200A1007408A0000030A7000630A6001A3018
:103CF200A5008030A4000A168A1152210A168A15DC
:103D0200831203132008FF3E8316031393009401CA
:103D120087150716080083120313A21F912E922EF5
:103D22009F2E2008003CA0002108031C210F003C0C
:103D3200A1002208031C220F803CA200A51FA22E74
:103D4200A32EB02E2308003CA3002408031C240F3A
:103D5200003CA4002508031C250F803CA5008030F0
:103D6200A2068030A50625082202031DBE2E2408C5
:103D72002102031DBE2E230820020318C12EC22ECB
:103D8200C42E0310C52E031408007308740403190B
:103D9200CB2ECC2EFD2E83120313A001A00ADC2E03
:103DA20001300310F30DF40DFF3E031DD22E01303E
:103DB200F7007708A007F41FDF2EE02ED12E74083B
:103DC2007602031DE62E73087502031CE92EEA2E05
:103DD200F02E7308F5027408031CF603F602013094
:103DE2000310F40CF30CFF3E031DF12E0130A00270
:103DF200031DFC2EFD2EE02E7608F4007508F3005C
:103E0200080083120313A701A80121082204031941
:103E12000B2F0C2F432FA601A60A1A2F01300310D5
:103E2200A10DA20DFF3E031D102F0130A500250894
:103E3200A607A21F1D2F1E2F0F2F01300310A70D43
:103E4200A80DFF3E031D1F2F22082402031D2B2F46
:103E520021082302031C2E2F2F2F362F2108A30205
:103E62002208031CA403A402271401300310A20C8D
:103E7200A10CFF3E031D372F0130A602031D422F66
:103E8200432F1E2F2808A2002708A1000800831232
:103E92000313A101F61F4E2F4F2F562FF509F609D6
:103EA200F50A0319F60AA101A10AF41F592F5A2F84
:103EB2005F2FF309F409F30A0319F40A730874046F
:103EC2000319642F652F942FA001A00A732F0130CC
:103ED2000310F30DF40DFF3E031D692F0130F700AF
:103EE2007708A007F41F762F772F682F74087602C1
:103EF200031D7D2F73087502031C802F812F872FCE
:103F02007308F5027408031CF603F602013003106D
:103F1200F40CF30CFF3E031D882F0130A002031D99
:103F2200932F942F772F21080319982F992F9E2FC3
:103F3200F509F609F50A0319F60A7608F400750878
:103F4200F3000800013083120313A2000030A30023
:103F52000A168A11F9260A168A15831203132508EE
:103F6200D2002408D1002308D0002208CF000A166C
:103F72008A151F260A168A15831203134F08D800C2
:103F82005008D9005108DA005A0859045804031D90
:103F9200CB2FCC2FD32F0030D5000030D6000030ED
:103FA200D700FF2F0030BF008030C0004930C10071
:103FB2000030AF00C830B0004230B1005808B20043
:103FC2005908B3005A08B4000A168A1114260A16B0
:103FD2008A15831203132F08C2003008C300310868
:103FE200C4000A128A113C270A168A158312031387
:0E3FF2003F08D5004008D6004108D70008005F
:04400E00D420FF3F7C
:00000001FF
