:020000040000FA
:060000000A128A110C280F
:10000800FE00030EF1000A08F2000A128A11B82A4B
:100018000A128A110F2883135130FD000230FE00A6
:10002800F430FF00413084000A128A11D2220A12E9
:100038008A110A128A1120230A128A11FA00D101A0
:10004800D201D301D401D501D601D701D801D901F4
:10005800F801F90183010A128A11192AFF000030F8
:100068008A007F0882073728831203132E08B200FC
:100078002F08B3003008B4003108B500063003106B
:10008800B20DB30DB40DB50DFF3E031D4328350861
:10009800A3003408A2003308A1003208A0002E08EB
:1000A800B6002F08B7003008B8003108B90006308C
:1000B8000310B60DB70DB80DB90DFF3E031D5C2832
:1000C8000030BA001230BB007A30BC000030BD00EE
:1000D8003608BA023708031C370F73287428BB0286
:1000E8003808031C380F79287A28BC023908031C01
:1000F800390F7F288028BD023D08A7003C08A600CC
:100108003B08A5003A08A4000A128A1114210A1211
:100118008A11831203132108F5002008F400013026
:100128007502003003197402031C9B289C28F828C8
:100138002E08B2002F08B3003008B4003108B5000B
:1001480004300310B20DB30DB40DB50DFF3E031D01
:10015800A5283508A3003408A2003308A1003208F6
:10016800A0002E08B6002F08B7003008B8003108E4
:10017800B90004300310B60DB70DB80DB90DFF3E28
:10018800031DBE280030BA001230BB007A30BC0014
:100198000030BD003608BA023708031C370FD528CF
:1001A800D628BB023808031C380FDB28DC28BC0221
:1001B8003908031C390FE128E228BD023D08A700D1
:1001C8003C08A6003B08A5003A08A4000A128A11B8
:1001D80014210A128A11831203132108F50020083A
:1001E800F400831603131815013075020030031943
:1001F80074020318002901291329740883160313AC
:10020800990018128312031398178316031387177C
:10021800071383120313181683160313981608007E
:1002280083120313A901A31F1A291B292829A0092E
:10023800A109A209A309A00A0319A10A0319A20A7C
:100248000319A30AA901A90AA71F2B292C293B29AD
:10025800A409A509A609A709A40A0319A50A031947
:10026800A60A0319A70A0130F3007308A90600308B
:10027800AD000030AC000030AB000030AA0023080D
:1002880022042104200403194A294B299829A8018A
:10029800A80A5B290130F3000310A00DA10DA20DDF
:1002A800A30DF30B50290130F3007308A807A31F0F
:1002B8005E295F294E290130F3000310AA0DAB0D0A
:1002C800AC0DAD0DF30B612923082702031D762918
:1002D80022082602031D762921082502031D7629F6
:1002E80020082402031C79297A2989292008A402D4
:1002F8002108031C210FA5022208031C220FA602B5
:100308002308031C230FA7022A1401300310A30C8F
:10031800A20CA10CA00CFF3E031D8A290130A802E3
:10032800031D972998295F29290803199C299D29C4
:10033800A829AA09AB09AC09AD09AA0A0319AB0A8D
:100348000319AC0A0319AD0A2D08A3002C08A20052
:100358002B08A1002A08A00008000030831203130C
:10036800AB000030AA000030A9000030A800230824
:100378002204210420040319C229C329102AAC012C
:10038800AC0AD3290130F3000310A00DA10DA20D72
:10039800A30DF30BC8290130F3007308AC07A31FA2
:1003A800D629D729C6290130F3000310A80DA90DB5
:1003B800AA0DAB0DF30BD92923082702031DEE293B
:1003C80022082602031DEE2921082502031DEE2915
:1003D80020082402031CF129F229012A2008A4027A
:1003E8002108031C210FA5022208031C220FA602C4
:1003F8002308031C230FA702281401300310A30CA1
:10040800A20CA10CA00CFF3E031D022A0130AC0275
:10041800031D0F2A102AD7292B08A3002A08A20097
:100428002908A1002808A00008000A128A11E12260
:100438000A128A11003083120313B1000030B00091
:100448002530AF008030AE000A128A1138200A1217
:100458008A11003083120313B0000130AF008630D8
:10046800AE00A030AD000A128A1160220A128A1169
:1004780001300A128A1104230A128A11C9300A1299
:100488008A119A220A128A11C9300A128A119A22EA
:100498000A128A110B3083120313C0002630BF00E2
:1004A8005D30BE00BE0B562ABF0B562AC00B562A1B
:1004B8003C2A0A128A110C2828308312031394004C
:1004C800831603139101831203132D08F4002E08D9
:1004D800F5002F08F6003008F70002300310F40D7D
:1004E800F50DF60DF70DFF3E031D722A7708A300E0
:1004F8007608A2007508A1007408A0000030A700C3
:100508007A30A6001230A5000030A4000A128A1121
:10051800B1210A128A11831203132008FF3E8316A1
:10052800031393009401871507160800F600F501D8
:10053800AC2A75087607F4007408840000080A12CB
:100548008A1104230A128A110130F4007408F5078D
:1005580075087607F4007408840083130008031DE7
:10056800B62AB72A9D2A0800831203138C1EBD2AB7
:10057800BE2AC72A8C120A128A1118230A128A1153
:10058800F0007008F90072088A00710E8300FE0EF0
:100598007E0E09007E088A007F0882000A128A11EE
:1005A800CE220A128A118000840A04087D060319E3
:1005B8000034FF0A0319FE0AD22A831603138601A0
:1005C80083160317880189018312031386010B1709
:1005D800831603138C16831203138C128B170800CF
:1005E800AC3433340034A83400340034E1340834F3
:1005F8000034013400343934003438340034BA3427
:10060800F30083160313981C0A2B0B2B052B730876
:10061800831203139900080003308A000408840A2F
:100628008207003461340034831203138C1E1D2B9F
:0A0638001E2B182B1A080800383496
:04400E00D420FF3F7C
:00000001FF
