:020000040000FA
:060000000A128A11AA2F6A
:100F06000A128A110028AC3433340034A834003471
:100F16000034E13408340034013400343934003408
:100F2600383400343834BA347E088A007F088200A8
:100F36000A128A1197270A128A118000840A040865
:100F46007D0603190034FF0A0319FE0A9B2F83133B
:100F56002630FD000730FE008630FF00203084007A
:100F66000A128A119B270A128A110A128A118C27E1
:100F76000A128A11F0000A128A118D270A128A11A2
:100F8600F1000A128A118E270A128A11F2000A1239
:100F96008A118F270A128A11F3000A128A119027E2
:100FA6000A128A11F4000A128A1191270A128A116A
:100FB600F5000A128A1192270A128A11F6000A12FD
:100FC6008A1193270A128A11F7000A128A119427A6
:100FD6000A128A11F8000A128A1195270A128A1132
:100FE600F9000A128A1196270A128A11FA00FB01E1
:0A0FF600FC0183010A128A11832F07
:04400E00D420FF3F7C
:00000001FF
