:020000040000FA
:100000000A128A11D62F0A168A1500260A128A1198
:100010008316031311150800831203132808AE007A
:100020002908AF002A08B00003102F0D300DB100D1
:100030003108B2003208031D1E281F282628003070
:10004000A8000030A9000030AA00F0282B08AE005C
:100050002C08AF002D08B00003102F0D300DB1009B
:100060003108B7003708031D362837283E280030EE
:10007000A8000030A9000030AA00F02837087B3E15
:10008000AE002E08B2072808AE002908AF002A08E3
:10009000B00010300310B00CAF0CAE0CFF3E031DCF
:1000A0004A282E08B1003108B7002B08AE002C08F2
:1000B000AF002D08B00010300310B00CAF0CAE0C28
:1000C000FF3E031D5C282E08B1003108B7068030C2
:1000D000AE002E08B705A917AC17FF30AB05FF30EF
:1000E000AC050030AD050030B3000030B400003086
:1000F000B5000730AE002E08B600281C80288128E5
:1001000091282B08B3072C08031103182C0A031994
:100110008A28B4072D08031103182D0A0319912802
:10012000B50701300310AA0CA90CA80CFF3E031D53
:10013000922801300310AB0DAC0DAD0DFF3E031D39
:100140009A280130B602031DA628A7287D28093069
:10015000AE002E08B600281CAE28AF28BF282B08FA
:10016000B3072C08031103182C0A0319B828B40785
:100170002D08031103182D0A0319BF28B5070130F4
:100180000310AA0CA90CA80CFF3E031DC0280130C7
:100190000310B50CB40CB30CFF3E031DC82801308E
:1001A000B602031DD428D528AB283308F000340844
:1001B000F1003508F2003208AE002E08F3003708CF
:1001C000AF002F08F4000A168A118F220A128A1132
:1001D000700883120313A8007108A9007208AA000E
:1001E000080083120313C7006E304702031CF9286E
:1001F000FA28D1290330BB003B08A4004708BC0003
:10020000BD013C08F2003D08F3006430F00000300E
:10021000F1000A168A1582270A128A117108F9005C
:100220007008F8000A30F6000030F7000A168A1548
:10023000BC270A128A1176080A128A150C200A12A3
:100240008A11433E84000A168A1100200A128A117C
:1002500083120313A8000A168A1100200A128A11B9
:10026000A9000A168A1100200A128A11AA00033076
:10027000BE003E08A4004708BF00C0013F08F800C8
:100280004008F9006430F6000030F7000A168A15BD
:10029000BC270A128A1176080A128A150C200A1243
:1002A0008A115E3E84000A168A1100200A128A1101
:1002B00083120313AB000A168A1100200A128A1156
:1002C000AC000A168A1100200A128A11AD000A1227
:1002D0008A110C200A128A11831203132808C40001
:1002E0002908C5002A08C6000330BB003B08A4004B
:1002F0004708BC00BD013C08F2003D08F3000A308D
:10030000F0000030F1000A168A1582270A128A11BD
:1003100070080A128A150C200A128A11283E8400DD
:100320000A168A1100200A128A1183120313A800E8
:100330000A168A1100200A128A11A9000A168A11C7
:1003400000200A128A11AA004408AB004508AC003C
:100350004608AD000A128A110C200A128A11831273
:1003600003132808C1002908C2002A08C30000306E
:10037000A8000030A9003F30AA004108AB004208A5
:10038000AC004308AD000A128A110C200A128A112F
:10039000831203132808B8002908B9002A08BA00F4
:1003A000912A0B304702031CD629D7295E2A033035
:1003B000BB003B08A4004708BC00BD013C08F2009C
:1003C0003D08F3000A30F0000030F1000A168A15EB
:1003D00082270A128A1170080A128A150C200A1242
:1003E0008A11283E84000A168A1100200A128A11F6
:1003F00083120313A8000A168A1100200A128A1118
:10040000A9000A168A1100200A128A11AA000330D4
:10041000BE003E08A4004708BF00C0013F08F80026
:100420004008F9000A30F6000030F7000A168A1575
:10043000BC270A128A1176080A128A150C200A12A1
:100440008A11433E84000A168A1100200A128A117A
:1004500083120313AB000A168A1100200A128A11B4
:10046000AC000A168A1100200A128A11AD000A1285
:100470008A110C200A128A11831203132808C4005F
:100480002908C5002A08C6000030A8000030A900CD
:100490003F30AA004408AB004508AC004608AD0058
:1004A0000A128A110C200A128A11831203132808D7
:1004B000B8002908B9002A08BA00912A0030A8001B
:1004C0000030A9003F30AA000330BB003B08A40065
:1004D00047080A128A150C200A128A11283E840045
:1004E0000A168A1100200A128A1183120313AB0024
:1004F0000A168A1100200A128A11AC000A168A1103
:1005000000200A128A11AD000A128A110C200A1268
:100510008A11831203132808B8002908B9002A0891
:10052000BA00080083160313350834043304031992
:100530009A2A9B2A2B2B330883120313C10083169C
:100540000313340883120313C20083160313350800
:1005500083120313C3000A168A1187230A128A1111
:10056000831203134408430442044104031DB92ABF
:10057000BA2A2B2B831603133108803AFF008030F0
:100580007F02031DC52A02303002031CC82AC92A73
:100590002B2B831603132C08F0002D08F1002E08D6
:1005A000F2007030F3008930F4004030F5000A1694
:1005B0008A154A270A128A110318DF2AE02AE92A33
:1005C000F73083160313B0070318B10AFF30B107E1
:1005D000F12AF83083160313B0070318B10AFF306D
:1005E000B10730080A128A1585220A128A1183126D
:1005F0000313380883160313AC008312031339085E
:1006000083160313AD00831203133A0883160313F2
:10061000AE003308F0003408F1003508F2002C0871
:10062000F3002D08F4002E08F5000A168A11B024F4
:100630000A128A11730883160313A7007208A60012
:100640007108A5007008A4000030B3000030B400A9
:100650000030B5009A2B831603133308831203135B
:10066000C10083160313340883120313C2008316D8
:100670000313350883120313C3000A168A11872354
:100680000A128A1183120313440883160313A70066
:1006900083120313430883160313A6008312031364
:1006A000420883160313A50083120313410883161F
:1006B0000313A4002708FD002608FC002508FB0002
:1006C0002408FA000A168A15E1260A128A117A0805
:1006D00083120313D5007B08D6007C08D70083164D
:1006E0000313330883120313D8008316031334084B
:1006F00083120313D90083160313350883120313DF
:10070000DA000A168A1544260A128A118312031384
:10071000550883160313B300831203135608831678
:100720000313B40083120313570883160313B50091
:10073000B001B101B801B80A380883120313DF0011
:1007400001300310DF0DFF3E031DA12B03105F0DD1
:100750004F3E84000A168A1100200A128A11E00016
:100760000A168A1100200A128A11E1000A168A115B
:1007700000200A128A11E2000A168A1100200A12C9
:100780008A11E3006308831603132702031DDE2B7F
:10079000831203136208831603132602031DDE2B44
:1007A000831203136108831603132502031DDE2B36
:1007B0008312031360088316031324020318E12B2A
:1007C000E22BE32BF12B013083120313DF005F08D0
:1007D00083160313B8070A303806031DF02BF12BDC
:1007E0009C2B3808360783120313DF00831603138C
:1007F00037080318370A83120313E0008316031324
:100800003008831203135F07E100831603133108D6
:100810000318310A831203136007E200610883168C
:100820000313AA0283120313620883160313031C23
:10083000AB03AB023608370403191F2C202C262CDF
:10084000FF30AA070318AB0AFF30AB0703302805B7
:1008500083120313DF00003083160313290583126C
:100860000313E0005F0860040319372C382C552C63
:10087000FF3083160313AA070318AB0AFF30AB0738
:10088000552C203083120313DF0083160313320824
:100890008400831203135F08831380000130DF009C
:1008A0005F0883160313B207382C831603132B0833
:1008B000803AFF0080307F02031D602C01302A0245
:1008C0000318632C642C412C033083160313280572
:1008D00083120313DF0000308316031329058312EC
:1008E0000313E0005F0860040319772C782CFC2CBC
:1008F0002D30DF00831603133208840083120313A4
:100900005F08831380000130DF005F088316031344
:10091000B207FC2C380883120313DF0001300310E8
:10092000DF0DFF3E031D8F2C03105F0D4F3E840033
:100930000A168A1100200A128A11F0000A168A117A
:1009400000200A128A11F1000A168A1100200A12E8
:100950008A11F2000A168A1100200A128A11F30085
:10096000831603132708F7002608F6002508F5006C
:100970002408F4000A168A11C0210A128A11730889
:1009800083160313AF007208AE007108AD00700843
:10099000AC000030F3000030F2000030F1000A300B
:1009A000F0002F08F7002E08F6002D08F5002C089F
:1009B000F4000A168A11B6200A128A1173088316E7
:1009C0000313AF007208AE007108AD007008AC00F0
:1009D0002C08303E83120313DF0083160313320802
:1009E0008400831203135F08831380000130DF004B
:1009F0005F0883160313B207013083160313B8028E
:100A0000380A031D042D052D8A2C1F2D303083122A
:100A10000313DF00831603133208840083120313C9
:100A20005F08831380000130DF005F088316031323
:100A3000B207FF30B0070318B10AFF30B107310821
:100A4000803AFF0080307F02031D282D01303002E4
:100A500003182B2D2C2D062D831603133708803AEF
:100A6000FF0080307F02031D372D09303602031C42
:100A70003A2D3B2D442D083083120313DF005F080D
:100A800083160313B8004E2D831603133608831202
:100A90000313DF005F0883160313B80038088312BE
:100AA0000313DF00E0015F0883160313B60283120D
:100AB0000313600883160313031CB703B702380837
:100AC0000319632D642D772D2E3083120313DF005D
:100AD0008316031332088400831203135F08831301
:100AE00080000130DF005F0883160313B207380867
:100AF0000A128A1585220A128A11831203133808F2
:100B000083160313A00083120313390883160313FB
:100B1000A100831203133A0883160313A2002008CE
:100B200083120313AB0083160313210883120313EC
:100B3000AC0083160313220883120313AD0083163F
:100B40000313330883120313A80083160313340816
:100B500083120313A90083160313350883120313AA
:100B6000AA000A128A110C200A128A118312031396
:100B70002808C1002908C2002A08C3000A168A11E1
:100B800087230A128A11831203134408831603135E
:100B9000A70083120313430883160313A6008312CE
:100BA0000313420883160313A5008312031341089D
:100BB00083160313A4008D2E380883120313DF005D
:100BC00001300310DF0DFF3E031DE12D03105F0D0B
:100BD0004F3E84000A168A1100200A128A11F00082
:100BE0000A168A1100200A128A11F1000A168A11C7
:100BF00000200A128A11F2000A168A1100200A1235
:100C00008A11F300831603132708F7002608F6005D
:100C10002508F5002408F4000A168A11C0210A12DA
:100C20008A11730883160313AF007208AE007108AF
:100C3000AD007008AC000030F3000030F20000306E
:100C4000F1000A30F0002F08F7002E08F6002D08FA
:100C5000F5002C08F4000A168A11B6200A128A112F
:100C6000730883160313AF007208AE007108AD005D
:100C70007008AC002C08303E83120313DF0083168B
:100C8000031332088400831203135F088313800068
:100C90000130DF005F0883160313B20738088312A0
:100CA0000313DF0001300310DF0DFF3E031D532E41
:100CB00003105F0D4F3E84000A168A1100200A12AD
:100CC0008A11F0000A168A1100200A128A11F10016
:100CD0000A168A1100200A128A11F2000A168A11D5
:100CE00000200A128A11F300831603132708F70065
:100CF0002608F6002508F5002408F4000A168A11D3
:100D0000B6200A128A11730883160313A70072080B
:100D1000A6007108A5007008A4000130B802380AC6
:100D2000031D932E942EDC2DAE2E30308312031330
:100D3000DF008316031332088400831203135F0855
:100D4000831380000130DF005F0883160313B207AE
:100D5000FF30B6070318B70AFF30B7073608370465
:100D6000031DB32EB42E952EB82F83160313360809
:100D70003704031DBC2EBD2ECB2E270826042504C8
:100D80002404031DC42EC52ECB2E0130B607031834
:100D9000B70A0030B7073708803A803C031DD22ECF
:100DA000360838020318D52ED62EE12E83160313EB
:100DB000360883120313DF005F0883160313B8009D
:100DC000052F831603133708803A83120313DF00BD
:100DD00080305F02031DF02E83160313380836029D
:100DE0000318F32EF42E052F8316031338088312ED
:100DF0000313DF00E0015F0883160313B6008312BC
:100E00000313600883160313B700831603132A081D
:100E10002B0403190C2F0D2F272F033028058312C5
:100E20000313DF0000308316031329058312031315
:100E3000E0005F08600403191E2F1F2F272FFF30CB
:100E400083160313AA070318AB0AFF30AB078316F8
:100E50000313291F2C2F2D2F502F3708803A831270
:100E60000313DF00831603132B08803A8312031346
:100E70005F02031D3F2F831603132A08360203184F
:100E8000422F432F4C2F831603133608AA0237082C
:100E9000031CAB03AB02502F83160313AA01AB0153
:100EA0002B08803A803C031D572F2A08380203186C
:100EB0005A2F5B2F6F2F83160313380883120313E7
:100EC000DF00E0015F0883160313AA0283120313F5
:100ED000600883160313031CAB03AB02732F831646
:100EE0000313AA01AB012A082B040319782F792FC9
:100EF000982F203083120313DF0083160313320868
:100F00008400831203135F08831380000130DF0025
:100F10005F0883160313B207FF30AA070318AB0A52
:100F2000FF30AB072A082B04031D972F982F792F2A
:100F30000330280583120313DF00003083160313E8
:100F4000290583120313E0005F0860040319A92F29
:100F5000AA2FB82F2D30DF00831603133208840028
:100F6000831203135F08831380000A128A15512D20
:100F700001308312DB07FF305B0784000A168A11F9
:100F800000200A128A11DF005F0883160313B800DD
:100F90003808031DCC2FCF2F0A128A153E2D831639
:100FA0000313320884008313800108008313DA30AE
:100FB000FD000830FE000130FF00CF3084000A162B
:100FC0008A11A7200A128A116D30FD001D30FE0023
:100FD000DF30FF00673084000A168A11A7200A124A
:100FE0008A11B9308400CF300A168A15E5250A1215
:100FF0008A11ED01EE01EF0183010A168A110B2B14
:10100200AC3433340034A83400340034E1340834CE
:1010120000340134003483120313A700A601271CF5
:101022001328142818282408A5002508A607031049
:10103200A40D0310A70C2708031D2028212810281F
:1010420026080800703084000008F600840A0008B0
:10105200F700840A0008F800840A0008F900031067
:10106200780D790DFA007A0883120313A50025087A
:10107200031D3C283D2846280030F3000030F200D2
:101082000030F1000030F0004E2973308400000877
:10109200F600840A0008F700840A0008F800840AAF
:1010A2000008F9000310780D790DFA007A08A400FF
:1010B2002408031D5D285E285F283D2870308400C7
:1010C20000308004840A00308004840A8030800466
:1010D200840A0030800470308400FF308005840A66
:1010E200FF308005840AFF308005840A00308005C5
:1010F2007330840000308004840A00308004840A43
:1011020080308004840A0030800473308400FF3011
:101112008005840AFF308005840AFF308005840A36
:10112200003080050030A3000030A2000030A10092
:101132000030A0007F30A502A0302407F600760818
:10114200A5022030F6007608A4000130F600031054
:10115200A00DA10DA20DA30DF60BA82873308400DB
:101162000008F600840A0008F700840A0008F80064
:10117200840A0008F900703084000008FA00840A2A
:101182000008FB00840A0008FC00840A0008FD0035
:1011920079087D02031DD72878087C02031DD72811
:1011A20077087B02031DD72876087A02031CDA2807
:1011B200DB28FE28733084000008F600840A000849
:1011C200F700840A0008F800840A0008F900703069
:1011D200840076088002840A7708031C770F800255
:1011E200840A7808031C780F8002840A7908031C99
:1011F200790A8002033084022014703084000310C4
:10120200800D840A800D840A800D840A800D840377
:10121200840384030130A402031D10291129A62886
:10122200A51F142915292F292508803A9F3E031846
:101232001B291C291D293D2801300310A30CA20CD7
:10124200A10CA00CFF3E031D1E290130F6007608FA
:10125200A507031D2D292E291D29462920302502E7
:10126200031C3429352941293D280130F600031099
:10127200A00DA10DA20DA30DF60B38290130A50278
:101282002508031D4529462936292308F30022088B
:10129200F2002108F1002008F00008008312031375
:1012A2004808CE004908CF004A08D00003104F0D6D
:1012B200500DD1005108D4004B08CE004C08CF008D
:1012C2004D08D00003104F0D500DD1005108D3002E
:1012D200540803196D296E297E29530854020318F4
:1012E2007329742985295308CE005408CE02193077
:1012F2004E02031C7D297E2985294B08C8004C0813
:10130200C9004D08CA00842A5308031989298A2969
:101312009A295408530203188F2990299B295408AB
:10132200CE005308CE0219304E02031C99299A2985
:101332009B29842A0630CE004E08D200CA1FA22959
:10134200A329A429D217CD1FA729A829A929521751
:10135200C917FF30C805FF30C9050030CA05CC17D0
:10136200FF30CB05FF30CC050030CD0553085402C9
:101372000318BC29BD29E92901300310CB0DCC0D7E
:10138200CD0DFF3E031DBE290130D3025308540682
:101392000319CC29CD29E2290130D202520807399A
:1013A200031DD429D529BD29E22901300310CA0C15
:1013B200C90CC80CFF3E031DD7290130CE004E08D0
:1013C200D40754085306031DE729E829D6291A2A07
:1013D200540853020318EE29EF291A2A0130031088
:1013E200C80DC90DCA0DFF3E031DF0290130D402FC
:1013F200530854060319FE29FF29142A0130D20288
:1014020052080739031D062A072AEF29142A013038
:101412000310CD0CCC0CCB0CFF3E031D092A01306E
:10142200CE004E08D30754085306031D192A1A2A60
:10143200082AD21F1D2A1E2A2E2AFF30C806FF3074
:10144200C906FF30CA060130C80700300318013050
:10145200C907003003180130CA07521F312A322A45
:10146200422AFF30CB06FF30CC06FF30CD060130DA
:10147200CB07003003180130CC07003003180130CD
:10148200CD07D2014808CB07490803110318490ABE
:1014920003194C2ACC074A08031103184A0A0319F4
:1014A200532ACD07CD1F562A572A692AFF30CB0669
:1014B200FF30CC06FF30CD060130CB0700300318D9
:1014C2000130CC07003003180130CD07D201D20A17
:1014D2004B08F0004C08F1004D08F2005408CE0011
:1014E2004E08F3005208CF004F08F4000A168A1182
:1014F2008F220A128A15700883120313C80071081A
:10150200C9007208CA00080083120313C000C01F7A
:101512008B2A8C2ADF2BC009C00A4008803A123E6F
:10152200031C942A952A4D2B0330BB003B08A400D0
:101532004008F200F301F21BF3036430F0000030C4
:10154200F1000A168A110A210A128A157108FA0094
:101552007008F9000A30F7000030F8000A168A1104
:1015620026220A128A1577080A128A150C200A12F4
:101572008A15433E84000A168A1100200A128A152F
:1015820083120313A8000A168A1100200A128A1570
:10159200A9000A168A1100200A128A15AA0003302D
:1015A200BC003C08A4004008F900FA01F91BFA0348
:1015B2006430F7000030F8000A168A1126220A1257
:1015C2008A1577080A128A150C200A128A155E3EBD
:1015D20084000A168A1100200A128A158312031344
:1015E200AB000A168A1100200A128A15AC000A16EC
:1015F2008A1100200A128A15AD000A128A110C20E3
:101602000A128A15831203132808BD002908BE0096
:101612002A08BF000330BB003B08A4004008F200C8
:10162200F301F21BF3030A30F0000030F1000A1656
:101632008A110A210A128A1570080A128A150C20C8
:101642000A128A15283E84000A168A1100200A12FC
:101652008A1583120313A8000A168A1100200A129F
:101662008A15A9000A168A1100200A128A15AA00F0
:101672003D08AB003E08AC003F08AD000A128A11DB
:101682000C200A128A15831203132808B8002908AD
:10169200B9002A08BA002F2D4008803A753E031C73
:1016A200532B542BBE2B0330BB003B08A400400835
:1016B200F200F301F21BF3030A30F0000030F100F4
:1016C2000A168A110A210A128A1570080A128A1544
:1016D2000C200A128A15283E84000A168A1100205C
:1016E2000A128A1583120313A8000A168A1100200F
:1016F2000A128A15A9000A168A1100200A128A15EE
:10170200AA000330BC003C08A4004008F900FA011A
:10171200F91BFA030A30F7000030F8000A168A11A2
:1017220026220A128A1577080A128A150C200A1232
:101732008A15433E84000A168A1100200A128A156D
:1017420083120313AB000A168A1100200A128A15AB
:10175200AC000A168A1100200A128A15AD000A127C
:101762008A110C200A128A15831203132808B80062
:101772002908B9002A08BA002F2D0330BB003B0804
:10178200A40040080A128A150C200A128A15283E63
:1017920084000A168A1100200A128A158312031382
:1017A200B8000A168A1100200A128A15B9000A1610
:1017B2008A1100200A128A15BA002F2D4008803A99
:1017C200123E031CE52BE62B9E2C0330BB003B088C
:1017D200A4004008F200F301F21BF3036430F000AE
:1017E2000030F1000A168A110A210A128A157108BC
:1017F200FA007008F9000A30F7000030F8000A1603
:101802008A1126220A128A1577080A128A150C20D2
:101812000A128A151C3E84000A168A1100200A1236
:101822008A1583120313A8000A168A1100200A12CD
:101832008A15A9000A168A1100200A128A15AA001E
:101842000330BC003C08A4004008F900FA01F91B6F
:10185200FA036430F7000030F8000A168A112622D3
:101862000A128A1577080A128A150C200A128A159A
:10187200373E84000A168A1100200A128A15831242
:101882000313AB000A168A1100200A128A15AC0053
:101892000A168A1100200A128A15AD000A128A114C
:1018A2000C200A128A15831203132808BD00290886
:1018B200BE002A08BF000330BB003B08A40040085A
:1018C200F200F301F21BF3030A30F0000030F100E2
:1018D2000A168A110A210A128A1570080A128A1532
:1018E2000C200A128A15013E84000A168A11002071
:1018F2000A128A1583120313A8000A168A110020FD
:101902000A128A15A9000A168A1100200A128A15DB
:10191200AA003D08AB003E08AC003F08AD000A1229
:101922008A110C200A128A15831203132808B800A0
:101932002908B9002A08BA002F2D4008803A753EBE
:10194200031CA42CA52C0F2D0330BB003B08A400C4
:101952004008F200F301F21BF3030A30F0000030FA
:10196200F1000A168A110A210A128A1570080A124F
:101972008A150C200A128A15013E84000A168A1161
:1019820000200A128A1583120313A8000A168A116C
:1019920000200A128A15A9000A168A1100200A12CA
:1019A2008A15AA000330BC003C08A4004008F900D4
:1019B200FA01F91BFA030A30F7000030F8000A16A0
:1019C2008A1126220A128A1577080A128A150C2011
:1019D2000A128A151C3E84000A168A1100200A1275
:1019E2008A1583120313AB000A168A1100200A1209
:1019F2008A15AC000A168A1100200A128A15AD0057
:101A02000A128A110C200A128A158312031328085B
:101A1200B8002908B9002A08BA002F2D0330BB00EC
:101A22003B08A40040080A128A150C200A128A15E3
:101A3200013E84000A168A1100200A128A158312B6
:101A42000313B8000A168A1100200A128A15B90077
:101A52000A168A1100200A128A15BA000800831693
:101A62000313B2005C3083120313DF005F08831696
:101A72000313A3000A128A11B82F2530380603195E
:101A8200432D442D582D380883120313DF0083168B
:101A9200031332088400831203135F088313800048
:101AA2000130DF005F0883160313B2073B2DAA0142
:101AB200AB01A801A901831203135B0884000A1673
:101AC2008A1100200A128A150A168A150D260A1290
:101AD2008A15031C6D2D6E2DB82D83160313AA01D2
:101AE200AB010A30F0000030F100831603132B081B
:101AF200F3002A08F2000A168A1569260A128A15C4
:101B0200710883160313AB007008AA008312031333
:101B12005B0884000A168A1100200A128A15D03E38
:101B2200DF00FF3003180030E0005F088316031364
:101B3200AA070318AB0A8312031360088316031360
:101B4200AB07013083120313DF005F08DB075B087A
:101B520084000A168A1100200A128A150A168A15AA
:101B62000D260A128A150318B72DB82D722D83126D
:101B720003135B0884000A168A1100200A128A15D0
:101B82002E3A031DC52DC62D1C2E831603132917AD
:101B9200013083120313DF005F08DB078316031390
:101BA200B601B7010A2E0A30F0000030F1008316A8
:101BB20003133708F3003608F2000A168A1569265D
:101BC2000A128A15710883160313B7007008B6004B
:101BD200831203135B0884000A168A1100200A127A
:101BE2008A15D03EDF00FF3003180030E0005F08A6
:101BF20083160313B6070318B70A83120313600888
:101C020083160313B707013083120313DF005F0843
:101C1200DB0783125B0884000A168A1100200A126D
:101C22008A150A168A150D260A128A1503181A2E03
:101C32001B2ED42D262E83160313B601B7012916A7
:101C4200262E831603132915462E01308312031301
:101C5200DB07FF305B0784000A168A1100200A1294
:101C62008A1583160313B80083120313DF00E00101
:101C72006008003A03193E2E3B2D5F08003A031913
:101C8200FD2F663A0319222E3B2D003028058312C0
:101C92000313DF000730831603132905831203138E
:101CA200E0005F0860040319572E5A2E0A128A11A7
:101CB200B52E83160313291E5F2E602E642E063066
:101CC200B6000030B7002308840083130008B30075
:101CD200840A0008B400840A0008B50003308312A5
:101CE2000313DF005F0883160313A3073308F00012
:101CF2003408F1003508F2000030F3000030F4003F
:101D02000030F5000A168A154A270A128A150318A6
:101D12008B2E8C2EA52E831603133308F000340865
:101D2200F1003508F2000A168A1199200A128A1562
:101D3200700883160313B3007108B4007208B5006B
:101D42000330A8040030A90483160313B001B101C3
:101D52003508340433040319AF2EB02EA22FB3304A
:101D620084008313000883120313DF00840A00082F
:101D7200E000840A0008E100840A0008E2000F3053
:101D82000310E20CE10CE00CDF0CFF3E031DC12E40
:101D9200FF305F05E30000306005E4006308823E27
:101DA20083160313B0008312031364080318013E61
:101DB200FF3E83160313B100FF30B0070318B10AC8
:101DC200FF30B1070330F0000030F1003108F300BA
:101DD2003008F2000A168A1569260A128A15710855
:101DE20083160313B1007008B0000A30F700003008
:101DF200F8003108FA003008F9000A168A11262282
:101E02000A128A15780883160313B1007708B00006
:101E1200B11F0C2F0D2F132FFF30B0070318B10A7B
:101E2200FF30B1073003FF3A0A128A1585220A12DF
:101E32008A1583120313380883160313AC00831226
:101E42000313390883160313AD00831203133A08F0
:101E520083160313AE00330883120313A8008316FC
:101E62000313340883120313A900831603133508DE
:101E720083120313AA00831603132C08831203137D
:101E8200AB00831603132D0883120313AC008316D1
:101E920003132E0883120313AD000A128A110C20B9
:101EA2000A128A1583120313280883160313AC003F
:101EB20083120313290883160313AD00831203133D
:101EC2002A0883160313AE002C08F0002D08F10037
:101ED2002E08F2000030F3008030F4003F30F500AD
:101EE2000A168A154A270A128A150318792F7A2F99
:101EF200832FFF3083160313B0070318B10AFF3094
:101F0200B107A22F831603132C08F0002D08F1004D
:101F12002E08F2000030F3002030F4004130F500CA
:101F22000A168A154A270A128A15031C992F9A2F14
:101F3200A22F013083160313B0070318B10A003031
:101F4200B107831603133708803AFF0080307F02FF
:101F5200031DAD2F0D3036020318B02FB12FEA2F1B
:101F62008316031336080A128A11F1200A128A15FF
:101F7200831203133808C8003908C9003A08CA0096
:101F820083160313330883120313CB008316031340
:101F9200340883120313CC0083160313350883120B
:101FA2000313CD000A128A154F210A128A158312D1
:101FB2000313480883160313B3008312031349085B
:101FC20083160313B400831203134A088316031300
:101FD200B500831603133108803AFF0080307F0278
:101FE200031DF52F0A3030020318FA2F0A128A1144
:101FF200922A0A128A11C92A0A128A11CF2F103084
:102002008A000408840A82070034003480343F3492
:102012000034203441340034C834423400347A3439
:10202200443440341C3446345034C33447342434AA
:1020320074344934973418344B34BC34BE344C3481
:102042006B346E344E340334153450347934AD3439
:102052006034F33449347134003480343F34CD3445
:10206200CC343D34D73423343C34123483343A34C0
:10207200B734D1343834C63427343734383486341C
:102082003534C034D6343334CC342B343234703417
:1020920089343034E734DB342E34E5343C341E34B6
:1020A2004234A2340D3401340034003400340A3492
:1020B2000034003400346434003400340034E83432
:1020C2000334003400341034273400340034A03494
:1020D200863401340034403442340F3400348034C6
:1020E2009634983400340034E134F5340534003445
:1020F200CA349A343B34253432342E343134663483
:10210200203420342034253432342E3431346634B1
:1021120020340034543431342034203420344834D0
:0C21220031342034203420340A340034DE
:1021320072087104700403199F28A028A228803015
:10214200F20608007E088A007F0882000A168A11B9
:10215200A3200A168A118000840A04087D06031946
:102162000034FF0A0319FE0AA728730872047104D7
:1021720070040319BD28BE280129F901F90ACE28E5
:102182000130F8000310F00DF10DF20DF30DF80B14
:10219200C3280130F8007808F907F31FD128D228A4
:1021A200C12873087702031DE02872087602031D16
:1021B200E02871087502031DE02870087402031CF0
:1021C200E328E428F2287008F4027108031C710F56
:1021D200F5027208031C720FF6027308031C730FD8
:1021E200F70201300310F30CF20CF10CF00CFF3E7D
:1021F200031DF3280130F902031D00290129D22809
:102202007708F3007608F2007508F1007408F00010
:102212000800F601F31F0E290F291629F209F30906
:10222200F20A0319F30AF601F60AF11F19291A290B
:102232001F29F009F109F00A0319F10A7008710463
:102242000319242925295429F501F50A33290130D6
:102252000310F00DF10DFF3E031D29290130F4009A
:102262007408F507F11F36293729282971087302E6
:10227200031D3D2970087202031C40294129472988
:102282007008F2027108031CF303F3020130031019
:10229200F10CF00CFF3E031D48290130F502031D2D
:1022A20053295429372976080319582959295E29AF
:1022B200F209F309F20A0319F30A7308F10072082A
:1022C200F00008000030F600F7000A168A11F7261F
:1022D2000A168A117908FD007808FC007708FB00CD
:1022E2007608FA000A168A15E1260A168A117A0871
:1022F20083120313D8007B08D9007C08DA0000306F
:10230200C8004830C900C230CA000030B80080306E
:10231200B9004930BA000030A8004830A900433063
:10232200AA005808AB005908AC005A08AD000A12BE
:102332008A110C200A168A11831203132808BB0083
:102342002908BC002A08BD000A168A116D250A1642
:102352008A11831203133808CB003908CC003A08DB
:10236200CD000A128A154F210A168A11831203130D
:102372004808D5004908D6004A08D70008000030AE
:10238200FC000030FB000030FA000030F900730856
:102392007204710470040319CF29D0291D2AFD018A
:1023A200FD0AE0290130F8000310F00DF10DF20DE5
:1023B200F30DF80BD5290130F8007808FD07F31F5B
:1023C200E329E429D3290130F8000310F90DFA0DAD
:1023D200FB0DFC0DF80BE62973087702031DFB29A0
:1023E20072087602031DFB2971087502031DFB2981
:1023F20070087402031CFE29FF290E2A7008F402D9
:102402007108031C710FF5027208031C720FF602A9
:102412007308031C730FF702791401300310F30CD5
:10242200F20CF10CF00CFF3E031D0F2A0130FD02ED
:10243200031D1C2A1D2AE4297C08F3007B08F200F4
:102442007A08F1007908F000080083120313A10151
:10245200F81F2C2A2D2A342AF709F809F70A03193A
:10246200F80AA101A10AFA1F372A382A412AF909D2
:10247200FA09F90A0319FA0A0130FB007B08A106DE
:10248200A201A301770878040319482A492A802A5D
:10249200A001A00A572A01300310F70DF80DFF3EE4
:1024A200031D4D2A0130FB007B08A007F81F5A2AA2
:1024B2005B2A4C2A01300310A20DA30DFF3E031D1F
:1024C2005C2A78087A02031D682A77087902031CBD
:1024D2006B2A6C2A732A7708F9027808031CFA031C
:1024E200FA02221401300310F80CF70CFF3E031D10
:1024F200742A0130A002031D7F2A802A5B2A210848
:102502000319842A852A8A2AA209A309A20A03197D
:10251200A30A2308F8002208F70008007308031929
:10252200932A942A9B2A720871047004031D9A2A22
:102532009B2AAE2A0030F0000030F1000030F20099
:102542000A2B0130F5007508F30701300310F20C75
:10255200F10CF00CFF3E031DA72AFE307205031D8D
:10256200B32AB42AA22ACB2A0130F5007508F30750
:102572000130F007003003180130F1070030031872
:102582000130F20701300310F20CF10CF00CFF3EA7
:10259200031DC42AFF307205031DD02AD12AB52A91
:1025A200DC2A0130F30201300310F00DF10DF20DBF
:1025B200FF3E031DD52AF11BDF2AE02AE62A02305C
:1025C20073020318E52AE62AD22A7318E92AEA2AAC
:1025D200F02AFF30F0057F30F105FF30F2050310DD
:1025E200F30C7308F500F601F70110300310F50D36
:1025F200F60DF70DFF3E031DF72A7508F004760865
:10260200F1047708F20474080319082B092B0A2B2A
:10261200F21708000A168A1531260A168A11803026
:1026220083120313A6002530A7000A168A112F264B
:102632000A168A11003083120313A3000130A2008C
:102642008630A100A030A0000A168A1512270A16A9
:102652008A110A168A15ED250A168A113930F000F8
:102662000030F1000A168A15F6250A168A110D3075
:1026720083120313E600FB30E500E50B3E2BE60B6D
:102682003E2B0A168A1163210A168A11831203133A
:102692005508ED005608EE005708EF0086300A167E
:1026A2008A158E260A168A11773083120313E500E3
:1026B2006508DB006D08DC006E08DD006F08DE00D7
:1026C200BB300A128A1530250A168A11BB300A1647
:1026D2008A151F260A168A110D300A168A151F2618
:1026E2000A168A110A300A168A151F260A168A1134
:1026F2000D3083120313E600FB30E500E50B7F2B60
:10270200E60B7F2B2A2B0A128A110028831203134D
:102712004108C5004208C6004308C7000310460D21
:10272200470DC8004808CE004E08031D992B9A2B6E
:10273200A32B0030C4000030C3000030C2000030C0
:10274200C100122C4108C5004208C6004308C70058
:1027520017300310C70CC60CC50CFF3E031DAA2B75
:102762004508C8004808C900C217FF30C105FF303C
:10277200C2050030C3054108CA004208CB00430825
:10278200CC00CD018E30CE02CE1FC82BC92BE32B3D
:102792004E08803A8F3E0318CF2BD02BD12B9A2B89
:1027A20001300310CD0CCC0CCB0CCA0CFF3E031D28
:1027B200D22B0130C5004508CE07031DE12BE22BC9
:1027C200D12BFA2B18304E02031CE82BE92BF52BE8
:1027D2009A2B0130C5000310CA0DCB0DCC0DCD0DC7
:1027E200C50BEC2B0130CE024E08031DF92BFA2B40
:1027F200EA2B49080319FE2BFF2B0A2CCA09CB0925
:10280200CC09CD09CA0A0319CB0A0319CC0A031948
:10281200CD0A4D08C4004C08C3004B08C2004A0848
:10282200C100080083120313A101F31F192C1A2CF3
:10283200272CF009F109F209F309F00A0319F10A48
:102842000319F20A0319F30AA101A10AF71F2A2C9C
:102852002B2C3A2CF409F509F609F709F40A0319A5
:10286200F50A0319F60A0319F70A0130F800780885
:10287200A1060030A5000030A4000030A300003003
:10288200A20073087204710470040319492C4A2CC3
:10289200972CA001A00A5A2C0130F8000310F00D69
:1028A200F10DF20DF30DF80B4F2C0130F800780802
:1028B200A007F31F5D2C5E2C4D2C0130F800031095
:1028C200A20DA30DA40DA50DF80B602C73087702C1
:1028D200031D752C72087602031D752C7108750292
:1028E200031D752C70087402031C782C792C882C1B
:1028F2007008F4027108031C710FF5027208031CC0
:10290200720FF6027308031C730FF70222140130D0
:102912000310F30CF20CF10CF00CFF3E031D892C9A
:102922000130A002031D962C972C5E2C210803195E
:102932009B2C9C2CA72CA209A309A409A509A20AD5
:102942000319A30A0319A40A0319A50A2508F30007
:102952002408F2002308F1002208F00008007008A1
:10296200F6007108F7007208F8000310770D780D71
:10297200F900790883120313A5002508031DC22C50
:10298200C32CCC2C0030F3000030F2000030F100F8
:102992000030F0006C2D7308F6007408F70075081B
:1029A200F8000310770D780DF9007908A4002408C7
:1029B200031DDC2CDD2CDE2CC32CF117FF30F005BF
:1029C200FF30F1050030F205F417FF30F305FF3058
:1029D200F4050030F5050030A3000030A2000030FD
:1029E200A1000030A0007F30A50298302407F60035
:1029F2007608A5021830F6007608A4000130F60029
:102A02000310A00DA10DA20DA30DF60B012D75084B
:102A12007202031D122D74087102031D122D730818
:102A22007002031C152D162D212D7308F002740857
:102A3200031C740FF1027508031C750AF2022014BC
:102A420001300310F00DF10DF20DFF3E031D222D9A
:102A52000130A402031D2E2D2F2DFF2CA51F322D78
:102A6200332D4D2D2508803A973E0318392D3A2DE6
:102A72003B2DC32C01300310A30CA20CA10CA00C03
:102A8200FF3E031D3C2D0130F6007608A507031D0D
:102A92004B2D4C2D3B2D642D18302502031C522D3D
:102AA200532D5F2DC32C0130F6000310A00DA10D94
:102AB200A20DA30DF60B562D0130A5022508031D0C
:102AC200632D642D542D2308F3002208F2002108FF
:102AD200F1002008F0000800831203133B08BE0037
:102AE2003C08BF003D08C00003103F0D400DC1006F
:102AF2004108C6004608031D7F2D802D872D00301A
:102B0200B8000030B9000030BA002E2E3808BE00DE
:102B12003908BF003A08C00003103F0D400DC10044
:102B22004108C7004708031D972D982D9F2D00309F
:102B3200B8000030B9000030BA002E2E0030C300B9
:102B42000030C4000030C50089304707BE003E088F
:102B5200C6023B08BE003C08BF003D08C000103062
:102B62000310C00CBF0CBE0CFF3E031DB12D3E086E
:102B7200C1004108C7003808BE003908BF003A0842
:102B8200C00010300310C00CBF0CBE0CFF3E031D72
:102B9200C32D3E08C1004108C7068030BE003E0872
:102BA200C705BC17FF30BB05FF30BC050030BD05B3
:102BB200B917FF30B805FF30B9050030BA05183033
:102BC200BE003E08C20001300310C30DC40DC50D86
:102BD200FF3E031DE52D3A083D02031DF62D39087F
:102BE2003C02031DF62D38083B02031CF92DFA2D79
:102BF200052E3808BB023908031C390FBC023A08FB
:102C0200031C3A0ABD02431401300310BB0DBC0D74
:102C1200BD0DFF3E031D062E0130C202031D122E02
:102C2200132EE42D4308F0004408F1004508F20099
:102C32004608BE003E08F3004708BF003F08F40004
:102C42000A168A118F220A168A1170088312031338
:102C5200B8007108B9007208BA00080083120313A1
:102C62002708A9002608A8000630FF000310A80DB7
:102C7200A90DFF0B372E2808F0002908F100F201F8
:102C8200F3012708AB002608AA000630FF00031054
:102C9200AA0DAB0DFF0B482E2A08AC002B08AD0085
:102CA200AE01AF010030B0000930B1003D30B200DA
:102CB2000030B3002C08B0022D08031C2D0F622E29
:102CC200632EB1022E08031C2E0F682E692EB2024B
:102CD2002F08031C2F0F6E2E6F2EB3023308F7003E
:102CE2003208F6003108F5003008F4000A168A119D
:102CF20013240A168A117108FA007008F9000130CB
:102D02007A02003003197902031C882E892EE12EE3
:102D1200831203132708A9002608A800A80EA90EEB
:102D2200F030A90528080F39A904F030A8052808B1
:102D3200F0002908F100F201F3012708AB00260890
:102D4200AA00AA0EAB0EF030AB052A080F39AB046D
:102D5200F030AA052A08AC002B08AD00AE01AF0185
:102D62000030B0000930B1003D30B2000030B30095
:102D72002C08B0022D08031C2D0FC02EC12EB1024B
:102D82002E08031C2E0FC62EC72EB2022F08031CBC
:102D92002F0FCC2ECD2EB3023308F7003208F600E7
:102DA2003108F5003008F4000A168A1113240A16B5
:102DB2008A117108FA007008F900831603131815B6
:102DC20001307A020030031979020318E92EEA2E43
:102DD200F62E79088316031399001812831203132F
:102DE2009817181683160313981608000A168A15E0
:102DF200ED250A168A118316031351088312031351
:102E0200A000A1012008F0002108F1000A168A158D
:102E1200F6250A168A110A128A1103200A168A1145
:102E2200823083120313A100DD30A000A00B172F04
:102E3200A10B172F0A168A15ED250A168A1183127D
:102E42000313C801512F0130F0000030F1000A16BF
:102E52008A15B3260A168A11700883120313A0007A
:102E62007108A100A201A3014808A40001300310C7
:102E7200A40DFF3E031D382F0310240D2C3E8400A9
:102E8200200883138000840A21088000840A220813
:102E92008000840A230880000130A0002008C807AF
:102EA2000130F0000030F1000A168A15B3260A1626
:102EB2008A1170087104031D5F2F602F242F76087A
:102EC20077040319652F662FB42F83120313380872
:102ED200A0003908A1003A08A2003B08A300340868
:102EE200A4003508A5003608A6003708A700083058
:102EF2000310A40DA50DA60DA70DFF3E031D792FEE
:102F02003008A8003108A9003208AA003308AB0033
:102F120010300310A80DA90DAA0DAB0DFF3E031D25
:102F22008A2F2808A4042908A5042A08A6042B0825
:102F3200A7042408A0042508A1042608A20427083F
:102F4200A30404300310A30CA20CA10CA00CFF3E9E
:102F5200031DA32F2308C7002208C6002108C500AD
:102F62002008C400F72F831203133C08A0003D0879
:102F7200A1003E08A2003F08A30008300310A00DE4
:102F8200A10DA20DA30DFF3E031DBF2F0C302C3E41
:102F920084000F3083130005A400840A003000056A
:102FA200A500840A00300005A600840A003000054E
:102FB200A70010300310A40DA50DA60DA70DFF3E0E
:102FC200031DDB2F2408A0042508A1042608A2045F
:102FD2002708A30440082004C40041082104C500B6
:102FE20042082204C60043082304C7004708F90028
:0E2FF2004608F8004508F7004408F6000800FD
:103BBE0039340034383400343934BA346400800176
:103BCE00840A0406031900340406E62D0A168A1523
:103BDE0000260A168A1583160313111408000A16F6
:103BEE008A1500260A168A1570088312031393008D
:103BFE000800831603131419052E062E002E110825
:103C0E001F39031D0B2E0C2E002E0800F100F001A3
:103C1E003A3071020318142E152E1D2E30307102FB
:103C2E00031C1A2E1B2E1D2EF001F00A700C08001C
:103C3E00F10071088312031399002A2EA630F000AA
:103C4E00F00B272E000083160313981C2F2E302EF8
:103C5E00252E080083160313880183160317880187
:103C6E0089018312031388010B17831603138C1615
:103C7E00831203138C128B17080083120313570839
:103C8E005604550403194C2E4D2E4F2E8030D70658
:103C9E005808C8005908C9005A08CA005508CB0070
:103CAE005608CC005708CD000A128A154F210A1665
:103CBE008A15831203134808D5004908D6004A080E
:103CCE00D7000800F401F501701C6E2E6F2E752EB4
:103CDE007208F4070318F50A7308F507013003108C
:103CEE00F20DF30DFF3E031D762E01300310F10C85
:103CFE00F00CFF3E031D7D2E70087104031D882EEF
:103D0E00892E6B2E7508F1007408F0000800F4007F
:103D1E00F201F301A52E7208740784000A168A11A7
:103D2E0000200A168A150A168A151F260A168A15E3
:103D3E000130F2070318F30A0030F3077208740714
:103D4E0084000A168A1100200A168A150A3A031DE3
:103D5E00B12EB22E922E08000A168A1500260A16C9
:103D6E008A158316031391150A168A1500260A164C
:103D7E008A15831203131308F200F3017208F4007C
:103D8E007308F5000A168A1500260A168A1570039E
:103D9E007104031DD32ED42ED82E83160313911225
:103DAE00DB2E83160313911611167508F100740895
:103DBE00F00008008E3083120313C9004908CA00B0
:103DCE00F52E01300310FD0CFC0CFB0CFA0CFF3E23
:103DDE00031DE92E0130C9004908CA07FF307D05D1
:103DEE00031DFA2EFB2EE82E7A08F0007B08F10058
:103DFE007C08F2004A08C9004908F300F4010A16CB
:103E0E008A118F220A168A157008FA007108FB00B3
:103E1E007208FC00080028308312031394008316E6
:103E2E0003139101831203132008A4002108A50097
:103E3E002208A6002308A70002300310A40DA50D2A
:103E4E00A60DA70DFF3E031D242F2708F3002608FD
:103E5E00F2002508F1002408F0000030F7003D3094
:103E6E00F6000930F5000030F4000A168A11C02160
:103E7E000A168A157008FF3E8316031393009401E9
:103E8E00871507160800F21F4D2F4E2F5B2F700857
:103E9E00003CF0007108031C710F003CF100720829
:103EAE00031C720F803CF200F51F5E2F5F2F6C2FEC
:103EBE007308003CF3007408031C740F003CF400FC
:103ECE007508031C750F803CF5008030F2068030BB
:103EDE00F50675087202031D7A2F74087102031D10
:103EEE007A2F7308700203187D2F7E2F802F0310F8
:103EFE00812F03140800700871040319872F882F6F
:103F0E00B72FF501F50A962F01300310F00DF10DC4
:103F1E00FF3E031D8C2F0130F4007408F507F11FCE
:103F2E00992F9A2F8B2F71087302031DA02F7008E3
:103F3E007202031CA32FA42FAA2F7008F20271087D
:103F4E00031CF303F30201300310F10CF00CFF3EDF
:103F5E00031DAB2F0130F502031DB62FB72F9A2F7D
:103F6E007308F1007208F0000800FB01FC017608EE
:103F7E0077040319C32FC42FFB2FFD01FD0AD22F87
:103F8E0001300310F60DF70DFF3E031DC82F013053
:103F9E00FA007A08FD07F71FD52FD62FC72F01304D
:103FAE000310FB0DFC0DFF3E031DD72F7708790282
:103FBE00031DE32F76087802031CE62FE72FEE2F62
:103FCE007608F8027708031CF903F9027B14013016
:103FDE000310F70CF60CFF3E031DEF2F0130FD0210
:103FEE00031DFA2FFB2FD62F7C08F7007B08F60057
:023FFE000800B9
:04400E00D420FF3F7C
:00000001FF
