:020000040000FA
:060000000A128A110C280F
:10000800FE00030EF4000A08F5000A168A15F52CFE
:100018000A128A110F288313EA30FD000830FE0007
:100028000330FF00DD3084000A168A15BE240A1248
:100038008A110A168A119A200A128A11EE000A16E3
:100048008A119B200A128A11EF000A128A150120D0
:100058000A128A11F9000A128A1502200A128A1154
:10006800FA00C1308400DD300A168A1574240A1299
:100078008A11F601F701F80183010A128A114C2F3F
:10008800831603133B083A04390403194C284D28F6
:100098000B29390883120313CD00831603133A087A
:1000A80083120313CE00831603133B088312031332
:1000B800CF000A168A1159220A128A1183120313D1
:1000C80050084F044E044D04031D6B286C280B295F
:1000D800831603133708803AFF0080307F02031D20
:1000E800772802303602031C7A287B280B298316CE
:1000F8000313320883120313A00083160313330873
:1001080083120313A1008316031334088312031305
:10011800A2007030A3008930A4004030A5000A1660
:100128008A1536260A128A1103189B289C28A528A6
:10013800F73083160313B6070318B70AFF30B7075B
:10014800AD28F83083160313B6070318B70AFF3033
:10015800B70736080A128A152B220A128A11831247
:100168000313440883160313B200831203134508CC
:1001780083160313B300831203134608831603136D
:10018800B400390883120313A000831603133A0836
:1001980083120313A100831603133B08831203136E
:1001A800A20083160313320883120313A3008316D5
:1001B8000313330883120313A400831603133408AC
:1001C80083120313A5000A168A1182230A128A11C0
:1001D80083120313230883160313AD00831203133A
:1001E800220883160313AC00831203132108831615
:1001F8000313AB0083120313200883160313AA000A
:100208000030B9000030BA000030BB0088298316DE
:100218000313390883120313CD00831603133A0816
:1002280083120313CE00831603133B0883120313B0
:10023800CF000A168A1159220A128A11831203134F
:10024800500883160313AD00831203134F08831657
:100258000313AC00831203134E0883160313AB0079
:10026800831203134D0883160313AA002D08831263
:100278000313D600831603132C0883120313D50027
:10028800831603132B0883120313D4008316031356
:100298002A0883120313D3000A168A15C9250A12DD
:1002A8008A11831203135308E1005408E200550829
:1002B800E30083160313390883120313E40083163B
:1002C80003133A0883120313E500831603133B084C
:1002D80083120313E6000A168A1522250A128A11C8
:1002E80083120313610883160313B90083120313DF
:1002F800620883160313BA00831203136308831674
:100308000313BB00B601B701BE01BE0A3E08A00038
:1003180001300310A00DFF3E031D8D290310200D91
:100328004F3E84000A168A1100200A128A11A10081
:100338000A168A1100200A128A11A2000A168A11C6
:1003480000200A128A11A3000A168A1100200A1234
:100358008A11A40024082D02031DBC2923082C029D
:10036800031DBC2922082B02031DBC2921082A02CF
:100378000318BF29C029C129CB290130A0002008B2
:10038800BE070A303E06031DCA29CB298A293E0822
:100398003C07A0003D0803183D0AA10036082007C5
:1003A800A20037080318370A2107A3002208B00261
:1003B8002308031CB103B1023C083D040319E529D5
:1003C800E629EC29FF30B0070318B10AFF30B1075E
:1003D80003302E05A00000302F05A10020082104BD
:1003E8000319F729F8290D2AFF30B0070318B10AB5
:1003F800FF30B1070D2A203083160313A0003808F8
:1004080084002008831380000130A0002008B8076A
:10041800F8293108803AFF0080307F02031D162A30
:10042800013030020318192A1A2AFF2903308316CB
:1004380003132E05A00000302F05A1002008210479
:100448000319272A282ADA2A2D30A0003808840020
:100458002008831380000130A0002008B807DA2A9A
:100468003E08A00001300310A00DFF3E031D372AEF
:100478000310200D4F3E84000A168A1100200A122C
:100488008A1183120313A0000A168A1100200A1287
:100498008A11A1000A168A1100200A128A11A200E4
:1004A8000A168A1100200A128A11A3008316031360
:1004B8002D0883120313A700831603132C08831235
:1004C8000313A600831603132B0883120313A50036
:1004D800831603132A0883120313A4000A168A1129
:1004E8000A210A128A11831203132308831603139D
:1004F800B50083120313220883160313B400831272
:100508000313210883160313B3008312031320086F
:1005180083160313B200003083120313A3000030C4
:10052800A2000030A1000A30A0008316031335088A
:1005380083120313A70083160313340883120313CB
:10054800A60083160313330883120313A50083162A
:100558000313320883120313A4000A168A15F2261D
:100568000A128A1183120313230883160313B50092
:1005780083120313220883160313B4008312031390
:10058800210883160313B30083120313200883166C
:100598000313B2003208303EA00038088400200857
:1005A800831380000130A0002008B8070130BE0284
:1005B8003E0A031DE02AE12A342AF52A3030831640
:1005C8000313A0003808840020088313800001303A
:1005D800A0002008B807FF30B6070318B70AFF3095
:1005E800B7073708803AFF0080307F02031DFE2AD4
:1005F800013036020318012B022BE22A831603135B
:100608003D08803AFF0080307F02031D0D2B093022
:100618003C02031C102B112B182B083083160313D4
:10062800A0002008BE001E2B831603133C08A00060
:100638002008BE003E08A000A1012008BC02210835
:10064800031CBD03BD023E0803192B2B2C2B372B93
:100658002E30A00038088400200883138000013061
:10066800A0002008B8073E080A128A152B220A1291
:100678008A1183120313440883160313A6008312F6
:100688000313450883160313A700831203134608B0
:1006980083160313A800260883120313B7008316D2
:1006A8000313270883120313B800831603132808BB
:1006B80083120313B9008316031339088312031333
:1006C800B400831603133A0883120313B500831684
:1006D80003133B0883120313B6000A128A1510206D
:1006E8000A128A11831203133408CD003508CE008C
:1006F8003608CF000A168A1159220A128A11831263
:100708000313500883160313AD00831203134F0815
:1007180083160313AC00831203134E0883160313C6
:10072800AB00831203134D0883160313AA009D2CF4
:100738003E08A00001300310A00DFF3E031D9F2BB3
:100748000310200D4F3E84000A168A1100200A1259
:100758008A1183120313A0000A168A1100200A12B4
:100768008A11A1000A168A1100200A128A11A20011
:100778000A168A1100200A128A11A300831603138D
:100788002D0883120313A700831603132C08831262
:100798000313A600831603132B0883120313A50063
:1007A800831603132A0883120313A4000A168A1156
:1007B8000A210A128A1183120313230883160313CA
:1007C800B50083120313220883160313B40083129F
:1007D8000313210883160313B3008312031320089D
:1007E80083160313B200003083120313A3000030F2
:1007F800A2000030A1000A30A000831603133508B8
:1008080083120313A70083160313340883120313F8
:10081800A60083160313330883120313A500831657
:100828000313320883120313A4000A168A15F2264A
:100838000A128A1183120313230883160313B500BF
:1008480083120313220883160313B40083120313BD
:10085800210883160313B300831203132008831699
:100868000313B2003208303EA00038088400200884
:10087800831380000130A0002008B8073E08A000BC
:1008880001300310A00DFF3E031D452C0310200D61
:100898004F3E84000A168A1100200A128A11831218
:1008A8000313A0000A168A1100200A128A11A10057
:1008B8000A168A1100200A128A11A2000A168A1141
:1008C80000200A128A11A300831603132D0883122D
:1008D8000313A700831603132C0883120313A6001F
:1008E800831603132B0883120313A500831603131F
:1008F8002A0883120313A4000A168A15F2260A127C
:100908008A1183120313230883160313AD0083127D
:100918000313220883160313AC0083120313210860
:1009280083160313AB0083120313200883160313E3
:10093800AA000130BE023E0A031DA32CA42C9C2B46
:10094800B62C3030A00038088400200883138000BB
:100958000130A0002008B807FF30BC070318BD0A03
:10096800FF30BD073C083D04031DBB2CBC2CA52C47
:10097800822D3C083D04031DC22CC32CD12C2D080C
:100988002C042B042A04031DCA2CCB2CD12C013097
:10099800BC070318BD0A0030BD073D08803A803CFB
:1009A800031DD82C3C083E020318DB2CDC2CE32C5E
:1009B800831603133C08A0002008BE00FB2C8316F6
:1009C80003133D08803AA00080302002031DEE2C5E
:1009D8003E083C020318F12CF22CFB2C831603135F
:1009E8003E08A000A1012008BC002108BD00831614
:1009F8000313300831040319022D032D152D03307C
:100A08002E05A00000302F05A1002008210403199D
:100A18000E2D0F2D152DFF30B0070318B10AFF302A
:100A2800B1072F1F182D192D342D3D08803AA0002D
:100A38003108803A2002031D232D30083C02031898
:100A4800262D272D302D831603133C08B0023D08B0
:100A5800031CB103B102342D83160313B001B10195
:100A68003108803A803C031D3B2D30083E020318B4
:100A78003E2D3F2D4B2D831603133E08A000A101E8
:100A88002008B0022108031CB103B1024F2D8316C0
:100A98000313B001B101300831040319542D552D49
:100AA8006C2D2030A00038088400200883138000B3
:100AB8000130A0002008B807FF30B0070318B10ABA
:100AC800FF30B10730083104031D6B2D6C2D552DF7
:100AD80003302E05A00000302F05A10020082104B6
:100AE8000319772D782D822D2D30A0003808840029
:100AF8002008831380000A128A15052D01308312FD
:100B08000313E707FF30670784000A168A110020DD
:100B18000A128A1183160313A0002008BE003E089B
:100B2800031D972D9A2D0A128A15F82C380884006F
:100B380083138001080083120313D3006E3053021D
:100B4800031CA72DA82D872E0330C7004708B00027
:100B58005308C800C9014808A2004908A300643026
:100B6800A0000030A1000A168A1570260A128A1100
:100B7800831203132108A9002008A8000A30A60040
:100B88000030A7000A168A15AC260A128A118312A9
:100B9800031326080A168A150B250A128A11433EE2
:100BA80084000A168A1100200A128A11831203137C
:100BB800B4000A168A1100200A128A11B5000A1612
:100BC8008A1100200A128A11B6000330CA004A08A6
:100BD800B0005308CB00CC014B08A8004C08A90072
:100BE8006430A6000030A7000A168A15AC260A123F
:100BF8008A118312031326080A168A150B250A126E
:100C08008A115E3E84000A168A1100200A128A118F
:100C180083120313B7000A168A1100200A128A11D8
:100C2800B8000A168A1100200A128A11B9000A129D
:100C38008A1510200A128A11831203133408D0006F
:100C48003508D1003608D2000330C7004708B00085
:100C58005308C800C9014808A2004908A3000A307F
:100C6800A0000030A1000A168A1570260A128A11FF
:100C78008312031320080A168A150B250A128A11F3
:100C8800283E84000A168A1100200A128A1183124B
:100C98000313B4000A168A1100200A128A11B5003B
:100CA8000A168A1100200A128A11B6005008B700E5
:100CB8005108B8005208B9000A128A1510200A1201
:100CC8008A11831203133408CD003508CE00360884
:100CD800CF000030B4000030B5003F30B6004D08FA
:100CE800B7004E08B8004F08B9000A128A1510203C
:100CF8000A128A11831203133408C4003508C50088
:100D08003608C6004B2F0B305302031C8C2E8D2E39
:100D1800182F0330C7004708B0005308C800C9019E
:100D28004808A2004908A3000A30A0000030A1002A
:100D38000A168A1570260A128A11831203132008CC
:100D48000A168A150B250A128A11283E84000A16EB
:100D58008A1100200A128A1183120313B4000A169A
:100D68008A1100200A128A11B5000A168A11002079
:100D78000A128A11B6000330CA004A08B0005308A4
:100D8800CB00CC014B08A8004C08A9000A30A600EB
:100D98000030A7000A168A15AC260A128A11831297
:100DA800031326080A168A150B250A128A11433ED0
:100DB80084000A168A1100200A128A11831203136A
:100DC800B7000A168A1100200A128A11B8000A16FA
:100DD8008A1100200A128A11B9000A128A151020F5
:100DE8000A128A11831203133408D0003508D1007F
:100DF8003608D2000030B4000030B5003F30B600ED
:100E08005008B7005108B8005208B9000A128A15EC
:100E180010200A128A11831203133408C4003508FB
:100E2800C5003608C6004B2F0030B4000030B500AE
:100E38003F30B6000330C7004708B00053080A1611
:100E48008A150B250A128A11283E84000A168A116F
:100E580000200A128A1183120313B7000A168A1196
:100E680000200A128A11B8000A168A1100200A12F4
:100E78008A11B9000A128A1510200A128A118312DF
:100E880003133408C4003508C5003608C600080036
:100E98000A168A15A7240A128A110030831203132E
:100EA800AF00C230B0000A168A1101250A128A1151
:100EB800003083120313B1000130B0008630AF0058
:100EC800A030AE000A168A15FC250A128A11923043
:100ED8000A168A15E1240A128A110A168A15A32706
:100EE8000A128A1183120313590883160313C400C4
:100EF800831203135A0883160313C50083120313BE
:100F08005B0883160313C6000A168A11A9200A1261
:100F18008A1183120313610883160313C100831215
:100F28000313620883160313C200831203136308B2
:100F380083160313C30086300A168A156E250A1213
:100F48008A11773083160313BF003F0883120313F7
:100F5800E70083160313440883120313E80083167B
:100F68000313450883120313E90083160313460885
:100F780083120313EA008316031341088312031331
:100F8800EB0083160313420883120313EC00831645
:100F98000313430883120313ED00C9300A128A159C
:100FA800EE240A128A11C9300A168A15E1240A1297
:100FB8008A110D300A168A15E1240A128A110A309C
:100FC8000A168A15E1240A128A118230831603133D
:100FD800C000DD30BF00BF0BEF2FC00BEF2F6B2F12
:100FE8000A128A110C280A168A119C200A128A11E0
:080FF800831603131115080014
:101002003834BA34AC3433340034A83400340034C5
:10101200E1340834003401340034393400348312AA
:1010220003133408BA003508BB003608BC000310AD
:101032003B0D3C0DBD003D08BE003E08031D2228AD
:1010420023282A280030B4000030B5000030B60052
:10105200F4283708BA003808BB003908BC0003106E
:101062003B0D3C0DBD003D08C3004308031D3A285B
:101072003B2842280030B4000030B5000030B600F2
:10108200F42843087B3EBA003A08BE073408BA0087
:101092003508BB003608BC0010300310BC0CBB0C7A
:1010A200BA0CFF3E031D4E283A08BD003D08C3009E
:1010B2003708BA003808BB003908BC0010300310EA
:1010C200BC0CBB0CBA0CFF3E031D60283A08BD00E5
:1010D2003D08C3068030BA003A08C305B517B817F1
:1010E200FF30B705FF30B8050030B9050030BF004A
:1010F2000030C0000030C1000730BA003A08C20018
:10110200341C8428852895283708BF07380803111E
:101112000318380A03198E28C00739080311031867
:10112200390A03199528C10701300310B60CB50C12
:10113200B40CFF3E031D962801300310B70DB80D05
:10114200B90DFF3E031D9E280130C202031DAA28CD
:10115200AB2881280930BA003A08C200341CB228F0
:10116200B328C3283708BF07380803110318380A01
:101172000319BC28C007390803110318390A0319D7
:10118200C328C10701300310B60CB50CB40CFF3EE6
:10119200031DC42801300310C10CC00CBF0CFF3E5C
:1011A200031DCC280130C202031DD828D928AF283C
:1011B2003F08A0004008A1004108A2003E08BA0072
:1011C2003A08A3004308BB003B08A4000A168A1190
:1011D200DB210A128A15831203132008B4002108A6
:1011E200B5002208B6000800831203135408DA007F
:1011F2005508DB005608DC0003105B0D5C0DDD00BA
:101202005D08E0005708DA005808DB005908DC00E6
:1012120003105B0D5C0DDD005D08DF006008031943
:101222001329142924295F086002031819291A298D
:101232002B295F08DA006008DA0219305A02031C0F
:10124200232924292B295708D4005808D5005908E6
:10125200D6002A2A5F0803192F293029402960085D
:101262005F0203183529362941296008DA005F0830
:10127200DA0219305A02031C3F29402941292A2A3D
:101282000630DA005A08DE00D61F482949294A29C1
:10129200DE17D91F4D294E294F295E17D517FF306A
:1012A200D405FF30D5050030D605D817FF30D70555
:1012B200FF30D8050030D9055F08600203186229A3
:1012C20063298F2901300310D70DD80DD90DFF3EA8
:1012D200031D64290130DF025F08600603197229C9
:1012E200732988290130DE025E080739031D7A2935
:1012F2007B296329882901300310D60CD50CD40C24
:10130200FF3E031D7D290130DA005A08E00760081C
:101312005F06031D8D298E297C29C02960085F0282
:10132200031894299529C02901300310D40DD50D35
:10133200D60DFF3E031D96290130E0025F086006CC
:101342000319A429A529BA290130DE025E0807394A
:10135200031DAC29AD299529BA2901300310D90CF6
:10136200D80CD70CFF3E031DAF290130DA005A0812
:10137200DF0760085F06031DBF29C029AE29DE1FF3
:10138200C329C429D429FF30D406FF30D506FF3043
:10139200D6060130D407003003180130D5070030DB
:1013A20003180130D6075E1FD729D829E829FF3054
:1013B200D706FF30D806FF30D9060130D7070030F4
:1013C20003180130D807003003180130D907DE01B5
:1013D2005408D707550803110318550A0319F229AF
:1013E200D807560803110318560A0319F929D90711
:1013F200D91FFC29FD290F2AFF30D706FF30D80656
:10140200FF30D9060130D707003003180130D80762
:10141200003003180130D907DE01DE0A5708A000A8
:101422005808A1005908A2006008DA005A08A3006F
:101432005E08DB005B08A4000A168A11DB210A128F
:101442008A15831203132008D4002108D50022082C
:10145200D600080083120313CC00CC1F312A322A93
:10146200912BCC09CC0A4C08803A123E031C3A2A32
:101472003B2AFB2A0330C7004708B0004C08A200F1
:10148200A301A21BA3036430A0000030A1000A162E
:101492008A1548270A128A15831203132108AA0003
:1014A2002008A9000A30A7000030A8000A168A11F5
:1014B20072210A128A158312031327080A168A1543
:1014C2000B250A128A15433E84000A168A1100204F
:1014D2000A128A1583120313B4000A168A11002015
:1014E2000A128A15B5000A168A1100200A128A15F4
:1014F200B6000330C8004808B0004C08A900AA0191
:10150200A91BAA036430A7000030A8000A168A119A
:1015120072210A128A158312031327080A168A15E2
:101522000B250A128A155E3E84000A168A110020D3
:101532000A128A1583120313B7000A168A110020B1
:101542000A128A15B8000A168A1100200A128A1590
:10155200B9000A128A1510200A128A15831203137F
:101562003408C9003508CA003608CB000330C7006A
:101572004708B0004C08A200A301A21BA3030A3033
:10158200A0000030A1000A168A1548270A128A15FF
:101592008312031320080A168A150B250A128A15CC
:1015A200283E84000A168A1100200A128A15831224
:1015B2000313B4000A168A1100200A128A15B50014
:1015C2000A168A1100200A128A15B6004908B700C5
:1015D2004A08B8004B08B9000A128A1510200A12EC
:1015E2008A15831203133408C4003508C50036086F
:1015F200C600ED2C4C08803A753E031C012B022BD1
:10160200702B0330C7004708B0004C08A200A301AA
:10161200A21BA3030A30A0000030A1000A168A15FB
:1016220048270A128A158312031320080A168A15FC
:101632000B250A128A15283E84000A168A110020F8
:101642000A128A1583120313B4000A168A110020A3
:101652000A128A15B5000A168A1100200A128A1582
:10166200B6000330C8004808B0004C08A900AA011F
:10167200A91BAA030A30A7000030A8000A168A1183
:1016820072210A128A158312031327080A168A1571
:101692000B250A128A15433E84000A168A1100207D
:1016A2000A128A1583120313B7000A168A11002040
:1016B2000A128A15B8000A168A1100200A128A151F
:1016C200B9000A128A1510200A128A15831203130E
:1016D2003408C4003508C5003608C600ED2C0330B6
:1016E200C7004708B0004C080A168A150B250A12D3
:1016F2008A15283E84000A168A1100200A128A15C9
:1017020083120313C4000A168A1100200A128A15D2
:10171200C5000A168A1100200A128A15C600ED2C8D
:101722004C08803A123E031C972B982B582C0330FE
:10173200C7004708B0004C08A200A301A21BA303E4
:101742006430A0000030A1000A168A1548270A1248
:101752008A15831203132108AA002008A9000A305F
:10176200A7000030A8000A168A1172210A128A15EF
:101772008312031327080A168A150B250A128A15E3
:101782001C3E84000A168A1100200A128A1583124E
:101792000313B4000A168A1100200A128A15B50032
:1017A2000A168A1100200A128A15B6000330C800F0
:1017B2004808B0004C08A900AA01A91BAA0364307A
:1017C200A7000030A8000A168A1172210A128A158F
:1017D2008312031327080A168A150B250A128A1583
:1017E200373E84000A168A1100200A128A158312D3
:1017F2000313B7000A168A1100200A128A15B800CC
:101802000A168A1100200A128A15B9000A128A15CC
:1018120010200A128A15831203133408C9003508EE
:10182200CA003608CB000330C7004708B0004C0896
:10183200A200A301A21BA3030A30A0000030A10052
:101842000A168A1548270A128A15831203132008DA
:101852000A168A150B250A128A15013E84000A16F9
:101862008A1100200A128A1583120313B4000A1681
:101872008A1100200A128A15B5000A168A11002060
:101882000A128A15B6004908B7004A08B8004B0880
:10189200B9000A128A1510200A128A15831203133C
:1018A2003408C4003508C5003608C600ED2C4C08C3
:1018B200803A753E031C5E2C5F2CCD2C0330C70092
:1018C2004708B0004C08A200A301A21BA3030A30E0
:1018D200A0000030A1000A168A1548270A128A15AC
:1018E2008312031320080A168A150B250A128A1579
:1018F200013E84000A168A1100200A128A158312F8
:101902000313B4000A168A1100200A128A15B500C0
:101912000A168A1100200A128A15B6000330C8007E
:101922004808B0004C08A900AA01A91BAA030A3062
:10193200A7000030A8000A168A1172210A128A151D
:101942008312031327080A168A150B250A128A1511
:101952001C3E84000A168A1100200A128A1583127C
:101962000313B7000A168A1100200A128A15B8005A
:101972000A168A1100200A128A15B9000A128A155B
:1019820010200A128A15831203133408C400350882
:10199200C5003608C600ED2C0330C7004708B0006A
:1019A2004C080A168A150B250A128A15013E840074
:1019B2000A168A1100200A128A1583120313C40020
:1019C2000A168A1100200A128A15C5000A168A11FF
:1019D20000200A128A15C600080083160313B800F5
:1019E2006830A0002008A9000A128A11822D253031
:1019F2003E060319FD2CFE2C0A2D3E08A0003808D5
:101A020084002008831380000130A0002008B8075A
:101A1200F52CB001B101AE01AF01831203136708C7
:101A220084000A168A1100200A128A150A168A15DB
:101A3200CD240A128A15031C1F2D202D742D831606
:101A42000313B001B1010A3083120313A000003066
:101A5200A10083160313310883120313A300831614
:101A62000313300883120313A2000A168A154725AE
:101A72000A128A1583120313210883160313B10075
:101A820083120313200883160313B0008312031377
:101A9200670884000A168A1100200A128A15D03EAD
:101AA20083160313A000FF3003180030A1002008A2
:101AB200B0070318B10A2108B1070130A0002008BD
:101AC20083120313E707670884000A168A110020AD
:101AD2000A128A150A168A15CD240A128A150318C3
:101AE200732D742D242D83120313670884000A16A4
:101AF2008A1100200A128A152E3A031D812D822D89
:101B0200E22D831603132F170130A0002008831241
:101B12000313E70783160313BC01BD01D02D0A305E
:101B220083120313A0000030A100831603133D08A3
:101B320083120313A300831603133C0883120313B7
:101B4200A2000A168A1547250A128A158312031360
:101B5200210883160313BD00831203132008831682
:101B62000313BC0083120313670884000A168A1148
:101B720000200A128A15D03E83160313A000FF30FC
:101B820003180030A1002008BC070318BD0A210871
:101B9200BD070130A000200883120313E707831258
:101BA200670884000A168A1100200A128A150A168A
:101BB2008A15CD240A128A150318E02DE12D902DE5
:101BC200EA2D83160313BC01BD012F16EA2D2F1532
:101BD200082E013083120313E707FF3067078400E2
:101BE2000A168A1100200A128A1583160313BE00F0
:101BF200A000A1012108003A0319002EF52C2008AB
:101C0200003A0319FD2F663A0319E82DF52C00302E
:101C12002E05A00007302F05A1002008210403197A
:101C2200132E162E0A128A11BD2C2F1E192E1A2EB1
:101C32001E2E0630BC000030BD002908840083132C
:101C42000008B900840A0008BA00840A0008BB0030
:101C52000330A0002008A907390883120313A0004B
:101C6200831603133A0883120313A1008316031386
:101C72003B0883120313A2000030A3000030A4002B
:101C82000030A5000A168A1536260A128A1503188C
:101C92004B2E4C2E792E831603133908831203130D
:101CA200A000831603133A0883120313A1008316BC
:101CB20003133B0883120313A2000A168A159B24FE
:101CC2000A128A1583120313200883160313B9001C
:101CD20083120313210883160313BA00831203131A
:101CE200220883160313BB000330AE040030AF0496
:101CF20083160313B601B7013B083A0439040319EA
:101D0200832E842EA22FB930840083130008A000F2
:101D1200840A0008A100840A0008A200840A0008BC
:101D2200A3000F300310A30CA20CA10CA00CFF3EC9
:101D3200031D932EFF302005A40000302105A500CD
:101D42002408823EB60025080318013EFF3EB70074
:101D5200FF30B6070318B70AFF30B7070330831204
:101D62000313A0000030A100831603133708831267
:101D72000313A30083160313360883120313A2006E
:101D82000A168A1547250A128A1583120313210897
:101D920083160313B7008312031320088316031359
:101DA200B6000A3083120313A7000030A80083167E
:101DB2000313370883120313AA008316031336088A
:101DC20083120313A9000A168A1172210A128A15B4
:101DD20083120313280883160313B7008312031315
:101DE200270883160313B600B71FF82EF92EFF2E0D
:101DF200FF30B6070318B70AFF30B7073603FF3ABA
:101E02000A128A152B220A128A1583120313440816
:101E120083160313B20083120313450883160313B8
:101E2200B30083120313460883160313B400390860
:101E320083120313B400831603133A0883120313A5
:101E4200B500831603133B0883120313B6008316EF
:101E52000313320883120313B700831603133308E4
:101E620083120313B8008316031334088312031377
:101E7200B9000A128A1510200A128A158312031356
:101E8200340883160313B200831203133508831632
:101E92000313B30083120313360883160313B4002B
:101EA200320883120313A00083160313330883122C
:101EB2000313A10083160313340883120313A20031
:101EC2000030A3008030A4003F30A5000A168A1516
:101ED20036260A128A1503186F2F702F792FFF30BA
:101EE20083160313B6070318B70AFF30B707A22FEA
:101EF20083160313320883120313A00083160313FD
:101F0200330883120313A1008316031334088312C8
:101F12000313A2000030A3002030A4004130A5002A
:101F22000A168A1536260A128A15031C992F9A2F29
:101F3200A22F013083160313B6070318B70A003025
:101F4200B707831603133D08803AFF0080307F02F3
:101F5200031DAD2F0D303C020318B02FB12FEA2F15
:101F6200831603133C080A128A119F250A128A1546
:101F7200831203134408D4004508D5004608D6004E
:101F820083160313390883120313D700831603132E
:101F92003A0883120313D800831603133B088312F3
:101FA2000313D9000A128A15F5200A128A15831220
:101FB2000313540883160313B9008312031355083D
:101FC20083160313BA0083120313560883160313EE
:101FD200BB00831603133708803AFF0080307F026C
:101FE200031DF52F0A3036020318FA2F0A128A113E
:101FF20044280A128A117B280A128A119A2D10305B
:102002008A000408840A82070034003480343F3492
:102012000034203441340034C834423400347A3439
:10202200443440341C3446345034C33447342434AA
:1020320074344934973418344B34BC34BE344C3481
:102042006B346E344E340334153450347934AD3439
:102052006034F33449347134003480343F34CD3445
:10206200CC343D34D73423343C34123483343A34C0
:10207200B734D1343834C63427343734383486341C
:102082003534C034D6343334CC342B343234703417
:1020920089343034E734DB342E34E5343C341E34B6
:1020A2004234A2340D3401340034003400340A3492
:1020B2000034003400346434003400340034E83432
:1020C2000334003400341034273400340034A03494
:1020D200863401340034403442340F3400348034C6
:1020E2009634983400340034E134F5340534003445
:1020F200CA349A343B34253432342E343134663483
:10210200203420342034253432342E3431346634B1
:1021120020340034543431342034203420344834D0
:1021220031342034203420340A3400346134003411
:1021340038340034831603131419A128A2289C28C8
:1021440011081F39031DA728A8289C28080000305F
:1021540083120313A600A7000A168A11CC250A16B7
:102164008A11831203132908D6002808D5002708EA
:10217400D4002608D3000A168A15C9250A168A111E
:10218400831203135308E4005408E5005508E600DD
:102194000030D4004830D500C230D6000030C4002E
:1021A4008030C5004930C6000030B4004830B50066
:1021B4004330B6006408B7006508B8006608B90083
:1021C4000A128A1510200A168A118312031334087E
:1021D400C7003508C8003608C9000A168A113F240A
:1021E4000A168A11831203134408D7004508D8003D
:1021F4004608D9000A128A15F5200A168A11831294
:1022040003135408E1005508E2005608E3000800EF
:10221400003083120313AC000030AB000030AA007E
:102224000030A900230822042104200403191B29D7
:102234001C296929AD01AD0A2C290130A80003101D
:10224400A00DA10DA20DA30DA80B21290130A800FA
:102254002808AD07A31F2F2930291F290130A80002
:102264000310A90DAA0DAB0DAC0DA80B3229230840
:102274002702031D472922082602031D4729210896
:102284002502031D472920082402031C4A294B293F
:102294005A292008A4022108031C210FA5022208A0
:1022A400031C220FA6022308031C230FA7022914D0
:1022B40001300310A30CA20CA10CA00CFF3E031DC3
:1022C4005B290130AD02031D6829692930292C08D6
:1022D400A3002B08A2002A08A1002908A0000800D6
:1022E40083120313AD01A81F782979298029A7092E
:1022F400A809A70A0319A80AAD01AD0AAA1F8329D0
:1023040084298D29A909AA09A90A0319AA0A01304D
:10231400AB002B08AD06AE01AF0127082804031952
:1023240094299529CC29AC01AC0AA32901300310C6
:10233400A70DA80DFF3E031D99290130AB002B0802
:10234400AC07A81FA629A729982901300310AE0DB0
:10235400AF0DFF3E031DA82928082A02031DB42936
:1023640027082902031CB729B829BF292708A9026D
:102374002808031CAA03AA022E1401300310A80C77
:10238400A70CFF3E031DC0290130AC02031DCB295D
:10239400CC29A7292D080319D029D129D629AE097A
:1023A400AF09AE0A0319AF0A2F08A8002E08A70028
:1023B40008008312031323080319E129E229E929F8
:1023C400220821042004031DE829E929FC290030FE
:1023D400A0000030A1000030A200582A0130A5005E
:1023E4002508A30701300310A20CA10CA00CFF3E8A
:1023F400031DF529FE302205031D012A022AF029B6
:10240400192A0130A5002508A3070130A0070030D0
:1024140003180130A107003003180130A20701306E
:102424000310A20CA10CA00CFF3E031D122AFF30C6
:102434002205031D1E2A1F2A032A2A2A0130A30269
:1024440001300310A00DA10DA20DFF3E031D232A90
:10245400A11B2D2A2E2A342A023023020318332AE0
:10246400342A202A2318372A382A3E2AFF30A00586
:102474007F30A105FF30A2050310A30C2308A5009B
:10248400A601A70110300310A50DA60DA70DFF3E50
:10249400031D452A2508A0042608A1042708A20430
:1024A40024080319562A572A582AA2170800831207
:1024B40003134D08D1004E08D2004F08D300031077
:1024C400520D530DD4005408DA005A08031D6B2A28
:1024D4006C2A752A0030D0000030CF000030CE00C6
:1024E4000030CD00E42A4D08D1004E08D2004F0838
:1024F400D30017300310D30CD20CD10CFF3E031DB4
:102504007C2A5108D4005408D500CE17FF30CD05DD
:10251400FF30CE050030CF054D08D6004E08D70059
:102524004F08D800D9018E30DA02DA1F9A2A9B2A82
:10253400B52A5A08803A8F3E0318A12AA22AA32A50
:102544006C2A01300310D90CD80CD70CD60CFF3EE2
:10255400031DA42A0130D1005108DA07031DB32A50
:10256400B42AA32ACC2A18305A02031CBA2ABB2A3A
:10257400C72A6C2A0130D1000310D60DD70DD80D0F
:10258400D90DD10BBE2A0130DA025A08031DCB2A19
:10259400CC2ABC2A55080319D02AD12ADC2AD60908
:1025A400D709D809D909D60A0319D70A0319D80AA9
:1025B4000319D90A5908D0005808CF005708CE008B
:1025C4005608CD00080083120313AA01A31FEB2AA7
:1025D400EC2AF92AA009A109A209A309A00A03194E
:1025E400A10A0319A20A0319A30AAA01AA0AA71F86
:1025F400FC2AFD2A0C2BA409A509A609A709A40AEB
:102604000319A50A0319A60A0319A70A0130A80089
:102614002808AA060030AE000030AD000030AC003F
:102624000030AB00230822042104200403191B2BCF
:102634001C2B692BA901A90A2C2B0130A80003101B
:10264400A00DA10DA20DA30DA80B212B0130A800F4
:102654002808A907A31F2F2B302B1F2B0130A800FC
:102664000310AB0DAC0DAD0DAE0DA80B322B230832
:102674002702031D472B22082602031D472B21088E
:102684002502031D472B20082402031C4A2B4B2B35
:102694005A2B2008A4022108031C210FA50222089A
:1026A400031C220FA6022308031C230FA7022B14CA
:1026B40001300310A30CA20CA10CA00CFF3E031DBF
:1026C4005B2B0130A902031D682B692B302B2A08D0
:1026D40003196D2B6E2B792BAB09AC09AD09AE092F
:1026E400AB0A0319AC0A0319AD0A0319AE0A2E0882
:1026F400A3002D08A2002C08A1002B08A0000800AC
:10270400831203132008A6002108A7002208A800AA
:102714000310270D280DA9002908AF002F08031D59
:10272400942B952B9E2B0030A3000030A200003088
:10273400A1000030A0003E2C2308A6002408A70016
:102744002508A8000310270D280DA9002908AE00AC
:102754002E08031DAE2BAF2BB02B952BA117FF30EA
:10276400A005FF30A1050030A205A417FF30A30582
:10277400FF30A4050030A5050030AD000030AC00EA
:102784000030AB000030AA007F30AF0298302E0733
:10279400A6002608AF021830A6002608AE000130B5
:1027A400A6000310AA0DAB0DAC0DAD0DA60BD32BDB
:1027B40025082202031DE42B24082102031DE42B17
:1027C40023082002031CE72BE82BF32B2308A00289
:1027D4002408031C240FA1022508031C250AA202B5
:1027E4002A1401300310A00DA10DA20DFF3E031DFC
:1027F400F42B0130AE02031D002C012CD12BAF1F92
:10280400042C052C1F2C2F08803A973E03180B2C00
:102814000C2C0D2C952B01300310AD0CAC0CAB0C17
:10282400AA0CFF3E031D0E2C0130A6002608AF079C
:10283400031D1D2C1E2C0D2C362C18302F02031CAE
:10284400242C252C312C952B0130A6000310AA0D25
:10285400AB0DAC0DAD0DA60B282C0130AF022F082B
:10286400031D352C362C262C2D08A3002C08A20081
:102874002B08A1002A08A0000800831203134708AC
:10288400CA004808CB004908CC0003104B0D4C0D7E
:10289400CD004D08D2005208031D512C522C592C46
:1028A4000030C4000030C5000030C600002D4408CC
:1028B400CA004508CB004608CC0003104B0D4C0D54
:1028C400CD004D08D3005308031D692C6A2C712CCC
:1028D4000030C4000030C5000030C600002D0030B8
:1028E400CF000030D0000030D10089305307CA0037
:1028F4004A08D2024708CA004808CB004908CC005D
:1029040010300310CC0CCB0CCA0CFF3E031D832CDF
:102914004A08CD004D08D3004408CA004508CB003E
:102924004608CC0010300310CC0CCB0CCA0CFF3E74
:10293400031D952C4A08CD004D08D3068030CA00EB
:102944004A08D305C817FF30C705FF30C805003053
:10295400C905C517FF30C405FF30C5050030C605DD
:102964001830CA004A08CE0001300310CF0DD00D34
:10297400D10DFF3E031DB72C46084902031DC82C88
:1029840045084802031DC82C44084702031CCB2CED
:10299400CC2CD72C4408C7024508031C450FC80299
:1029A4004608031C460AC9024F1401300310C70D20
:1029B400C80DC90DFF3E031DD82C0130CE02031DE6
:1029C400E42CE52CB62C4F08A0005008A1005108B7
:1029D400A2005208CA004A08A3005308CB004B08BF
:1029E400A4000A168A11DB210A168A118312031322
:1029F4002008C4002108C5002208C600080083126C
:102A040003133008B2002F08B1000630FF00031092
:102A1400B10DB20DFF0B092D3108A0003208A10041
:102A2400A201A3013008B4002F08B3000630FF0050
:102A34000310B30DB40DFF0B1A2D3308B500340881
:102A4400B600B701B8010030B9000930BA003D3012
:102A5400BB000030BC003508B9023608031C360F31
:102A6400342D352DBA023708031C370F3A2D3B2D70
:102A7400BB023808031C380F402D412DBC023C0812
:102A8400A7003B08A6003A08A5003908A4000A16C6
:102A94008A11E5220A168A11831203132108BE0043
:102AA4002008BD0001303E02003003193D02031C22
:102AB4005C2D5D2DB52D3008B2002F08B100B10E8C
:102AC400B20EF030B20531080F39B204F030B1055E
:102AD4003108A0003208A100A201A3013008B4000B
:102AE4002F08B300B30EB40EF030B40533080F3919
:102AF400B404F030B3053308B5003408B600B701A8
:102B0400B8010030B9000930BA003D30BB000030D4
:102B1400BC003508B9023608031C360F922D932DDC
:102B2400BA023708031C370F982D992DBB023808B9
:102B3400031C380F9E2D9F2DBC023C08A7003B08A8
:102B4400A6003A08A5003908A4000A168A11E5224D
:102B54000A168A11831203132108BE002008BD003F
:102B6400831603131815013083123E020030031933
:102B74003D020318BE2DBF2DCB2D3D088316031334
:102B84009900181283120313981718168316031347
:102B9400981608000A168A157C240A168A118316C8
:102BA40003135F0883120313AA00AB012A08A000D1
:102BB4002B08A1000A168A1585240A168A110A12FE
:102BC4008A11F7270A168A11823083120313AB0085
:102BD400DD30AA00AA0BEC2DAB0BEC2D0A168A15DE
:102BE4007C240A168A1183120313D201262E013083
:102BF400A0000030A1000A168A1597250A168A112A
:102C0400831203132008AA002108AB00AC01AD0114
:102C14005208AE0001300310AE0DFF3E031D0D2E11
:102C240003102E0D363E84002A0883138000840A84
:102C34002B088000840A2C088000840A2D08800058
:102C44000130AA002A08D2070130A0000030A100F8
:102C54000A168A1597250A168A1183120313200867
:102C64002104031D362E372EF92D260827040319B7
:102C74003C2E3D2E892E4208AA004308AB0044088E
:102C8400AC004508AD003E08AE003F08AF00400868
:102C9400B0004108B10008300310AE0DAF0DB00D07
:102CA400B10DFF3E031D4E2E3A08B2003B08B3009F
:102CB4003C08B4003D08B50010300310B20DB30D4C
:102CC400B40DB50DFF3E031D5F2E3208AE0433086C
:102CD400AF043408B0043508B1042E08AA042F0840
:102CE400AB043008AC043108AD0404300310AD0C5F
:102CF400AC0CAB0CAA0CFF3E031D782E2D08D100A2
:102D04002C08D0002B08CF002A08CE00CA2E460873
:102D1400AA004708AB004808AC004908AD000830D9
:102D24000310AA0DAB0DAC0DAD0DFF3E031D922E8D
:102D34000C30363E84000F3083130005AE00840A45
:102D440000300005AF00840A00300005B000840A9A
:102D540000300005B10010300310AE0DAF0DB00D02
:102D6400B10DFF3E031DAE2E2E08AA042F08AB049E
:102D74003008AC043108AD044A082A04CE004B08DC
:102D84002B04CF004C082C04D0004D082D04D10096
:102D94005108A9005008A8004F08A7004E08A60033
:102DA4000800203084008313000883120313A60054
:102DB400840A0008A700840A0008A800840A0008FE
:102DC400A9000310280D290DAA002A08B30033080E
:102DD400031DED2EEE2EF72E0030A3000030A200CE
:102DE4000030A1000030A000FF2F23308400000831
:102DF400A600840A0008A700840A0008A800840A20
:102E04000008A9000310280D290DAA002A08B20001
:102E14003208031D0E2F0F2F102FEE2E20308400AA
:102E240000308004840A00308004840A80308004E6
:102E3400840A0030800420308400FF308005840A36
:102E4400FF308005840AFF308005840A0030800545
:102E54002330840000308004840A00308004840A13
:102E640080308004840A0030800423308400FF30E2
:102E74008005840AFF308005840AFF308005840AB7
:102E8400003080050030B1000030B0000030AF00E9
:102E94000030AE007F30B302A0303207A60026080F
:102EA400B3022030A6002608B2000130A6000310A9
:102EB400AE0DAF0DB00DB10DA60B592F233084000C
:102EC4000008A600840A0008A700840A0008A800D5
:102ED400840A0008A900203084000008AA00840A9B
:102EE4000008AB00840A0008AC00840A0008AD00A6
:102EF40029082D02031D882F28082C02031D882F62
:102F040027082B02031D882F26082A02031C8B2F57
:102F14008C2FAF2F233084000008A600840A0008F9
:102F2400A700840A0008A800840A0008A900203029
:102F3400840026088002840A2708031C270F8002C5
:102F4400840A2808031C280F8002840A2908031C09
:102F5400290A8002033084022E14203084000310D6
:102F6400800D840A800D840A800D840A800D8403F8
:102F7400840384030130B202031DC12FC22F572FD3
:102F8400B31FC52FC62FE02F3308803A9F3E031886
:102F9400CC2FCD2FCE2FEE2E01300310B10CB00C60
:102FA400AF0CAE0CFF3E031DCF2F0130A600260848
:102FB400B307031DDE2FDF2FCE2FF72F2030330270
:102FC400031CE52FE62FF22FEE2E0130A60003108E
:102FD400AE0DAF0DB00DB10DA60BE92F0130B3024C
:102FE4003308031DF62FF72FE72F3108A30030080D
:0C2FF400A2002F08A1002E08A000080079
:1038E80064008001840A0406031900340406752C58
:1038F8000A168A119C200A168A15831603131114B6
:1039080008000A168A119C200A168A1583120313C6
:103918002008930008000730F1007D30F000F00B1C
:10392800932CF10B932C831203131A0808008312AB
:1039380003132208210420040319A32CA42CA62C69
:103948008030A20608008316031386018316031726
:10395800880189018312031386010B178316031349
:103968008C16831203138C128B1708007E088A00AA
:103978007F0882000A168A15BA240A168A1580005A
:10398800840A04087D0603190034FF0A0319FE0A95
:10399800BE2C83120313A100A0013A3021020318A0
:1039A800D62CD72CDF2C30302102031CDC2CDD2C4C
:1039B800DF2CA001A00A200C080083120313A10029
:1039C80021089900EE2CA53083120313A000A00B48
:1039D800EB2CEE2C83160313981CF32CF42CE72CF9
:1039E8000800831203138C1EFA2CFB2C042D8C1256
:1039F8000A168A158F240A168A15F3007308F80028
:103A080075088A00740E8300FE0E7E0E090083126C
:103A18000313B300B201331C122D132D172D3008D8
:103A2800B1003108B2070310B00D0310B30C33080E
:103A3800031D1F2D202D0F2D32080800831203139C
:103A480063086204610403192A2D2B2D2D2D803063
:103A5800E3066408D4006508D5006608D600610846
:103A6800D7006208D8006308D9000A128A15F52021
:103A78000A168A15831203135408E1005508E20058
:103A88005608E300080083120313A401A501201CB3
:103A98004E2D4F2D552D2208A4070318A50A2308DB
:103AA800A50701300310A20DA30DFF3E031D562DDF
:103AB80001300310A10CA00CFF3E031D5D2D200852
:103AC8002104031D682D692D4B2D2508A10024080C
:103AD800A000080083120313A200A301A401892DEA
:103AE8002308220784000A168A1100200A168A155C
:103AF8000A168A15E1240A168A150130831203135F
:103B0800A3070318A40A0030A40723082207840087
:103B18000A168A1100200A168A150A3A031D952DDD
:103B2800962D742D08000A168A119C200A168A15EB
:103B38008316031391150A168A119C200A168A15F2
:103B4800831203131308A200A3012208A400230868
:103B5800A5000A168A119C200A168A1583120313D7
:103B680020032104031DB92DBA2DBE2D831603137E
:103B78009112C12D83160313911611168312031384
:103B88002508A1002408A00008008E308312031322
:103B9800D7005708D800DD2D01300310D60CD50CFE
:103BA800D40CD30CFF3E031DD12D0130D70057088C
:103BB800D807FF305605031DE22DE32DD02D5308FD
:103BC800A0005408A1005508A2005808D7005708BB
:103BD800A300A4010A168A11DB210A168A1583128A
:103BE80003132008D3002108D4002208D5000800B8
:103BF8002830831203139400831603139101831250
:103C080003132E08B2002F08B3003008B40031089F
:103C1800B50002300310B20DB30DB40DB50DFF3E63
:103C2800031D0E2E3508A3003408A2003308A10096
:103C38003208A0000030A7003D30A6000930A500DA
:103C48000030A4000A168A110A210A168A1583125E
:103C580003132008FF3E831603139300940187156E
:103C68000716080083120313A21F3B2E3C2E492E71
:103C78002008003CA0002108031C210F003CA100E3
:103C88002208031C220F803CA200A51F4C2E4D2E9B
:103C98005A2E2308003CA3002408031C240F003CD0
:103CA800A4002508031C250F803CA5008030A2062F
:103CB8008030A50625082202031D682E240821024B
:103CC800031D682E2308200203186B2E6C2E6E2EFF
:103CD80003106F2E03140800831203132008210415
:103CE8000319772E782EA72EA501A50A862E013056
:103CF8000310A00DA10DFF3E031D7C2E0130A40072
:103D08002408A507A11F892E8A2E7B2E21082302AD
:103D1800031D902E20082202031C932E942E9A2E07
:103D28002008A2022108031CA303A30201300310E8
:103D3800A10CA00CFF3E031D9B2E0130A502031D04
:103D4800A62EA72E8A2E2308A1002208A00008006C
:103D580083120313AB01AC01260827040319B52EFF
:103D6800B62EED2EAD01AD0AC42E01300310A60DFE
:103D7800A70DFF3E031DBA2E0130AA002A08AD0781
:103D8800A71FC72EC82EB92E01300310AB0DAC0DDE
:103D9800FF3E031DC92E27082902031DD52E26081C
:103DA8002802031CD82ED92EE02E2608A8022708A0
:103DB800031CA903A9022B1401300310A70CA60C9D
:103DC800FF3E031DE12E0130AD02031DEC2EED2E4A
:103DD800C82E2C08A7002B08A6000800831203137E
:103DE80023082204210420040319FB2EFC2E3F2F54
:103DF800A901A90A0C2F0130A8000310A00DA10DDC
:103E0800A20DA30DA80B012F0130A8002808A907AF
:103E1800A31F0F2F102FFF2E23082702031D1E2F6D
:103E280022082602031D1E2F21082502031D1E2F0E
:103E380020082402031C212F222F302F2008A4023F
:103E48002108031C210FA5022208031C220FA60229
:103E58002308031C230FA70201300310A30CA20C94
:103E6800A10CA00CFF3E031D312F0130A902031D38
:103E78003E2F3F2F102F2708A3002608A200250851
:103E8800A1002408A000080083120313A601A31FA1
:103E98004E2F4F2F562FA209A309A20A0319A30ACE
:103EA800A601A60AA11F592F5A2F5F2FA009A10901
:103EB800A00A0319A10A200821040319642F652FF9
:103EC800942FA501A50A732F01300310A00DA10D91
:103ED800FF3E031D692F0130A4002408A507A11F78
:103EE800762F772F682F21082302031D7D2F2008A6
:103EF8002202031C802F812F872F2008A20221086D
:103F0800031CA303A30201300310A10CA00CFF3E65
:103F1800031D882F0130A502031D932F942F772F9F
:103F280026080319982F992F9E2FA209A309A20AE0
:103F38000319A30A2308A1002208A00008000130E1
:103F480083120313A6000030A7000A168A11CC2595
:103F58000A168A15831203132908D6002808D500E3
:103F68002708D4002608D3000A168A15C9250A1678
:103F78008A15831203135308DC005408DD00550822
:103F8800DE005E085D045C04031DCB2FCC2FD32F0D
:103F98000030D9000030DA000030DB00FF2F00309D
:103FA800C4008030C5004930C6000030B400C830B5
:103FB800B5004230B6005C08B7005D08B8005E087E
:103FC800B9000A128A1510200A168A1583120313DB
:103FD8003408C7003508C8003608C9000A168A110F
:103FE8003F240A168A15831203134408D90045088A
:083FF800DA004608DB000800B6
:04400E00D420FF3F7C
:00000001FF
