:020000040000FA
:100000000A128A11EC2FFF0000308A007F08820755
:10001000082800308A000408840A8207003461340A
:020020000034AA
:100AAA00F00083160313981C5B2D5C2D562D7008DD
:100ABA008312031399000800AC3433340034A83489
:100ACA0000340034E1340834003401340034393459
:100ADA000034383400343834BA347E088A007F0847
:100AEA0082000A128A1172250A128A118000840A67
:100AFA0004087D0603190034FF0A0319FE0A762D3D
:100B0A00F300F201972D72087307F100710884004F
:100B1A0000080A128A1155250A128A110130F100B9
:100B2A007108F20772087307F100710884008313D1
:100B3A000008031DA12DA22D882D08000030831264
:100B4A000313A9000030A8002530A7008030A600B2
:100B5A000A128A1112270A128A1100308312031309
:100B6A00A3000130A2008630A100A030A0000A1222
:100B7A008A11D7250A128A1101300A128A115525BB
:100B8A000A128A11F8300A128A1185250A128A1164
:100B9A00F8300A128A1185250A128A11C12D0A1201
:100BAA008A11002828308312031394008316031332
:100BBA009101831203132008A4002108A50022082A
:100BCA00A6002308A70002300310A40DA50DA60D48
:100BDA00A70DFF3E031DE92D2708F3002608F200A2
:100BEA002508F1002408F0000030F7007A30F600FA
:100BFA001230F5000030F4000A128A110F260A1288
:100C0A008A117008FF3E8316031393009401871517
:100C1A00071608000030FC000030FB000030FA0024
:100C2A000030F900730872047104700403191E2E4F
:100C3A001F2E6C2EFD01FD0A2F2E0130F800031025
:100C4A00F00DF10DF20DF30DF80B242E0130F80022
:100C5A007808FD07F31F322E332E222E0130F800BA
:100C6A000310F90DFA0DFB0DFC0DF80B352E730868
:100C7A007702031D4A2E72087602031D4A2E710856
:100C8A007502031D4A2E70087402031C4D2E4E2E47
:100C9A005D2E7008F4027108031C710FF5027208C8
:100CAA00031C720FF6027308031C730FF702791400
:100CBA0001300310F30CF20CF10CF00CFF3E031D93
:100CCA005E2E0130FD02031D6B2E6C2E332E7C0826
:100CDA00F3007B08F2007A08F1007908F0000800B6
:100CEA0083120313A101F31F7B2E7C2E892EF00998
:100CFA00F109F209F309F00A0319F10A0319F20AD0
:100D0A000319F30AA101A10AF71F8C2E8D2E9C2E1E
:100D1A00F409F509F609F709F40A0319F50A03199A
:100D2A00F60A0319F70A0130F8007808A10600301C
:100D3A00A5000030A4000030A3000030A200730810
:100D4A007204710470040319AB2EAC2EF92EA001A3
:100D5A00A00ABC2E0130F8000310F00DF10DF20DBF
:100D6A00F30DF80BB12E0130F8007808A007F31F35
:100D7A00BF2EC02EAF2E0130F8000310A20DA30D16
:100D8A00A40DA50DF80BC22E73087702031DD72EEA
:100D9A0072087602031DD72E71087502031DD72E1D
:100DAA0070087402031CDA2EDB2EEA2E7008F40295
:100DBA007108031C710FF5027208031C720FF60208
:100DCA007308031C730FF702221401300310F30C8B
:100DDA00F20CF10CF00CFF3E031DEB2E0130A002C9
:100DEA00031DF82EF92EC02E21080319FD2EFE2E02
:100DFA00092FA209A309A409A509A20A0319A30A8A
:100E0A000319A40A0319A50A2508F3002408F20005
:100E1A002308F1002208F0000800831203132608B1
:100E2A00AA002708AB002808AC002908AD00063044
:100E3A000310AA0DAB0DAC0DAD0DFF3E031D1D2F0A
:100E4A002D08F3002C08F2002B08F1002A08F00004
:100E5A002608AE002708AF002808B0002908B1000C
:100E6A0006300310AE0DAF0DB00DB10DFF3E031DE0
:100E7A00362F0030B2001230B3007A30B40000309E
:100E8A00B5002E08B2022F08031C2F0F4D2F4E2F2C
:100E9A00B3023008031C300F532F542FB402310809
:100EAA00031C310F592F5A2FB5023508F7003408A1
:100EBA00F6003308F5003208F4000A128A11752682
:100ECA000A128A117108FA007008F90001307A02D0
:100EDA00003003197902031C732F742FD02F831249
:100EEA0003132608AA002708AB002808AC00290823
:100EFA00AD0004300310AA0DAB0DAC0DAD0DFF3ED5
:100F0A00031D7F2F2D08F3002C08F2002B08F10097
:100F1A002A08F0002608AE002708AF002808B0000B
:100F2A002908B10004300310AE0DAF0DB00DB10D9C
:100F3A00FF3E031D982F0030B2001230B3007A3002
:100F4A00B4000030B5002E08B2022F08031C2F0F80
:100F5A00AF2FB02FB3023008031C300FB52FB62FB6
:100F6A00B4023108031C310FBB2FBC2FB502350860
:100F7A00F7003408F6003308F5003208F4000A12C4
:100F8A008A1175260A128A117108FA007008F90086
:100F9A0083160313181501307A02003003197902F7
:100FAA000318D82FD92FEB2F79088316031399002A
:100FBA00181283120313981783160313871707133C
:100FCA008312031318168316031398160800831343
:100FDA004730FD000530FE006130FF0036308400E6
:100FEA000A128A1176250A128A11C701C8018301D9
:060FFA000A128A11A32D6A
:04400E00F430FF3F4C
:00000001FF
