:020000040000FA
:060000000A128A110C280F
:10000800FE00030EF1000A08F2000A168A152D2FC9
:100018000A128A110F288313EA30FD001E30FE00F1
:10002800E630FF00DB3084000A168A151E270A1204
:100038008A110A128A11FA270A128A11F8000A127A
:100048008A11FB270A128A11F900BE308400DB30BE
:100058000A168A15D4260A128A11ED01FA018301BB
:100068000A168A11102CFF0000308A007F088207C8
:100078003C28831603133508340433040319452830
:1000880046280429330883120313C8008316031370
:10009800340883120313C900831603133508831227
:1000A8000313CA000A168A1184230A128A118312BA
:1000B80003134B084A0449044804031D64286528AF
:1000C8000429831603133108803AFF0080307F0229
:1000D800031D702802303002031C73287428042979
:1000E800831603132C0883120313A000831603132B
:1000F8002D0883120313A100831603132E088312FD
:100108000313A2007030A3008930A4004030A5007A
:100118000A168A11C4200A128A11031894289528ED
:100128009E28F73083160313B0070318B10AFF306F
:10013800B107A628F83083160313B0070318B10ACD
:10014800FF30B10730080A128A1547220A128A11AD
:10015800831203133F0883160313AC00831203139F
:10016800400883160313AD00831203134108831656
:100178000313AE00330883120313A000831603137E
:10018800340883120313A10083160313350883125E
:100198000313A200831603132C0883120313A3006E
:1001A800831603132D0883120313A4008316031365
:1001B8002E0883120313A5000A168A113A250A127B
:1001C8008A1183120313230883160313A7008312CB
:1001D8000313220883160313A600831203132108AE
:1001E80083160313A5008312031320088316031331
:1001F800A4000030B3000030B4000030B5008129FD
:1002080083160313330883120313C80083160313DA
:10021800340883120313C9008316031335088312A5
:100228000313CA000A168A1184230A128A11831238
:1002380003134B0883160313A700831203134A08FA
:1002480083160313A60083120313490883160313A6
:10025800A50083120313480883160313A400270874
:1002680083120313A60083160313260883120313AD
:10027800A50083160313250883120313A40083160D
:100288000313240883120313A3000A168A1593275D
:100298000A128A11831203132308DC002408DD00E4
:1002A8002508DE0083160313330883120313DF00C7
:1002B80083160313340883120313E0008316031311
:1002C800350883120313E1000A168A1543270A1218
:1002D8008A11831203135C0883160313B300831275
:1002E80003135D0883160313B400831203135E0817
:1002F80083160313B500B001B101B801B80A380874
:1003080083120313E70001300310E70DFF3E031DBE
:1003180088290310670D4F3E84000A168A110A20A7
:100328000A128A11E8000A168A110A200A128A118A
:10033800E9000A168A110A200A128A11EA000A1626
:100348008A110A200A128A11EB006B08831603131C
:100358002702031DC529831203136A088316031392
:100368002602031DC5298312031369088316031384
:100378002502031DC5298312031368088316031376
:1003880024020318C829C929CA29D8290130831287
:100398000313E700670883160313B8070A30380603
:1003A800031DD729D8298329380836078312031350
:1003B800E7008316031337080318370A8312031359
:1003C800E800831603133008831203136707E90054
:1003D8008316031331080318310A831203136807BD
:1003E800EA00690883160313AA02831203136A0832
:1003F80083160313031CAB03AB0236083704031937
:10040800062A072A0D2AFF30AA070318AB0AFF306D
:10041800AB070330280583120313E7000030831667
:100428000313290583120313E800670868040319F6
:100438001E2A1F2A3C2AFF3083160313AA07031813
:10044800AB0AFF30AB073C2A203083120313E700C6
:100458008316031332088400831203136708831377
:1004680080000130E700670883160313B2071F2ACC
:10047800831603132B08803AFF0080307F02031D88
:10048800472A01302A0203184A2A4B2A282A03300D
:1004980083160313280583120313E700003083161D
:1004A8000313290583120313E80067086804031976
:1004B8005E2A5F2A1F2B2D30E700831603133208AC
:1004C8008400831203136708831380000130E70058
:1004D800670883160313B2071F2B38088312031308
:1004E800E70001300310E70DFF3E031D762A0310D5
:1004F800670D4F3E84000A168A110A200A128A11D3
:10050800A0000A168A110A200A128A11A1000A16E6
:100518008A110A200A128A11A2000A168A110A20D0
:100528000A128A11A30083160313270883120313E0
:10053800A70083160313260883120313A600831645
:100548000313250883120313A50083160313240835
:1005580083120313A4000A168A1131220A128A117F
:1005680083120313230883160313AF0083120313A4
:10057800220883160313AE0083120313210883167F
:100588000313AD0083120313200883160313AC0072
:10059800003083120313A3000030A2000030A10032
:1005A8000A30A000831603132F0883120313A70031
:1005B800831603132E0883120313A600831603134E
:1005C8002D0883120313A500831603132C08831226
:1005D8000313A4000A168A1180210A128A118312B1
:1005E8000313230883160313AF008312031322088F
:1005F80083160313AE008312031321088316031313
:10060800AD0083120313200883160313AC002C08D3
:10061800303E83120313E700831603133208840065
:10062800831203136708831380000130E70067080B
:1006380083160313B207013083160313B802380A6E
:10064800031D272B282B712A422B303083120313CA
:10065800E700831603133208840083120313670824
:10066800831380000130E700670883160313B2077D
:10067800FF30B0070318B10AFF30B1073108803ADC
:10068800FF0080307F02031D4B2B0130300203181E
:100698004E2B4F2B292B831603133708803AFF0064
:1006A80080307F02031D5A2B09303602031C5D2B54
:1006B8005E2B672B083083120313E7006708831645
:1006C8000313B800712B8316031336088312031320
:1006D800E700670883160313B8003808831203136A
:1006E800E700E801670883160313B60283120313B1
:1006F800680883160313031CB703B70238080319E5
:10070800862B872B9A2B2E3083120313E700831630
:1007180003133208840083120313670883138000CD
:100728000130E700670883160313B20738080A1276
:100738008A1547220A128A11831203133F08831667
:100748000313A00083120313400883160313A100A8
:1007580083120313410883160313A200200883128F
:100768000313B20083160313210883120313B30083
:1007780083160313220883120313B400831603138A
:10078800330883120313AF0083160313340883124C
:100798000313B00083160313350883120313B10043
:1007A8000A128A152C200A128A11831203132F08A1
:1007B800C8003008C9003108CA000A168A11842303
:1007C8000A128A11831203134B0883160313A70016
:1007D800831203134A0883160313A6008312031314
:1007E800490883160313A5008312031348088316C8
:1007F8000313A400082D380883120313E7000130FF
:100808000310E70DFF3E031D042C0310670D4F3E38
:1008180084000A168A110A200A128A11A0000A16F0
:100828008A110A200A128A11A1000A168A110A20BE
:100838000A128A11A2000A168A110A200A128A11BB
:10084800A30083160313270883120313A700831634
:100858000313260883120313A6008316031325081F
:1008680083120313A50083160313240883120313AA
:10087800A4000A168A1131220A128A11831203135C
:10088800230883160313AF00831203132208831669
:100898000313AE0083120313210883160313AD005C
:1008A80083120313200883160313AC00003083124D
:1008B8000313A3000030A2000030A1000A30A000FA
:1008C800831603132F0883120313A7008316031339
:1008D8002E0883120313A600831603132D08831210
:1008E8000313A500831603132C0883120313A40013
:1008F8000A168A1180210A128A1183120313230807
:1009080083160313AF0083120313220883160313FD
:10091800AE0083120313210883160313AD0083125C
:100928000313200883160313AC002C08303E8312EF
:100938000313E7008316031332088400831203139A
:100948006708831380000130E700670883160313E4
:10095800B207380883120313E70001300310E70DCC
:10096800FF3E031DB22C0310670D4F3E84000A168C
:100978008A110A200A128A11A0000A168A110A206E
:100988000A128A11A1000A168A110A200A128A116B
:10099800A2000A168A110A200A128A11A3008316D5
:1009A8000313270883120313A700831603132608CB
:1009B80083120313A6008316031325088312031357
:1009C800A50083160313240883120313A4000A1630
:1009D8008A1180210A128A118312031323088316AD
:1009E8000313A70083120313220883160313A60018
:1009F80083120313210883160313A500831203131C
:100A0800200883160313A4000130B802380A031D16
:100A18000E2D0F2DFF2B292D303083120313E700E5
:100A280083160313320884008312031367088313A1
:100A380080000130E700670883160313B207FF3010
:100A4800B6070318B70AFF30B70736083704031D7F
:100A58002E2D2F2D102D332E831603133608370411
:100A6800031D372D382D462D270826042504240478
:100A7800031D3F2D402D462D0130B6070318B70A38
:100A88000030B7073708803A803C031D4D2D3608E3
:100A980038020318502D512D5C2D83160313360888
:100AA80083120313E700670883160313B800802D29
:100AB800831603133708803A83120313E700803044
:100AC8006702031D6B2D83160313380836020318BB
:100AD8006E2D6F2D802D8316031338088312031390
:100AE800E700E801670883160313B60083120313AF
:100AF800680883160313B700831603132A082B0408
:100B08000319872D882DA22D03302805831203137E
:100B1800E700003083160313290583120313E80046
:100B2800670868040319992D9A2DA22DFF308316A2
:100B38000313AA070318AB0AFF30AB078316031386
:100B4800291FA72DA82DCB2D3708803A8312031310
:100B5800E700831603132B08803A831203136702F6
:100B6800031DBA2D831603132A0836020318BD2D58
:100B7800BE2DC72D831603133608AA023708031C97
:100B8800AB03AB02CB2D83160313AA01AB012B08D1
:100B9800803A803C031DD22D2A0838020318D52D2F
:100BA800D62DEA2D83160313380883120313E700A2
:100BB800E801670883160313AA028312031368085F
:100BC80083160313031CAB03AB02EE2D831603132A
:100BD800AA01AB012A082B040319F32DF42D132EB7
:100BE800203083120313E7008316031332088400AE
:100BF800831203136708831380000130E700670836
:100C080083160313B207FF30AA070318AB0AFF3095
:100C1800AB072A082B04031D122E132EF42D0330C4
:100C2800280583120313E7000030831603132905F0
:100C380083120313E800670868040319242E252E7D
:100C4800332E2D30E70083160313320884008312F5
:100C580003136708831380000A128A15232D0130B5
:100C68008312E207FF30620784000A168A110A20FD
:100C78000A128A11E700670883160313B8003808B8
:100C8800031D472E4A2E0A128A15102D83160313A8
:100C98003208840083138001080083120313CE00F6
:100CA8006E304E02031C592E5A2E372F0330C200C5
:100CB8004208AB004E08C300C4014308F5004408CD
:100CC800F6006430F3000030F4000A168A11FE20A2
:100CD8000A128A11740883120313A4007308A3006C
:100CE8000A30A1000030A2000A168A113A210A121D
:100CF8008A118312031321080A168A11AD200A12D9
:100D08008A11433E84000A168A110A200A128A119F
:100D180083120313AF000A168A110A200A128A11D5
:100D2800B0000A168A110A200A128A11B10003308B
:100D3800C5004508AB004E08C600C7014608A30019
:100D48004708A4006430A1000030A2000A168A11E6
:100D58003A210A128A118312031321080A168A11EA
:100D6800AD200A128A115E3E84000A168A110A20F2
:100D78000A128A1183120313B2000A168A110A2072
:100D88000A128A11B3000A168A110A200A128A1155
:100D9800B4000A128A152C200A128A11831203132E
:100DA8002F08CB003008CC003108CD000330C2003A
:100DB8004208AB004E08C300C4014308F5004408CC
:100DC800F6000A30F3000030F4000A168A11FE20FB
:100DD8000A128A1173080A168A11AD200A128A119A
:100DE800283E84000A168A110A200A128A118312E0
:100DF8000313AF000A168A110A200A128A11B000DA
:100E08000A168A110A200A128A11B1004B08B20088
:100E18004C08B3004D08B4000A128A152C200A1297
:100E28008A11831203132F08C8003008C90031083B
:100E3800CA000030AF000030B0003F30B1004808B1
:100E4800B2004908B3004A08B4000A128A152C20D7
:100E58000A128A11831203132F08BF003008C0003A
:100E68003108C100F92F0B304E02031C3C2F3D2FD7
:100E7800C62F0330C2004208AB004E08C300C401AD
:100E88004308F5004408F6000A30F3000030F40087
:100E98000A168A11FE200A128A1173080A168A1184
:100EA800AD200A128A11283E84000A168A110A20E7
:100EB8000A128A1183120313AF000A168A110A2034
:100EC8000A128A11B0000A168A110A200A128A1117
:100ED800B1000330C5004508AB004E08C600C70185
:100EE8004608A3004708A4000A30A1000030A20069
:100EF8000A168A113A210A128A1183120313210849
:100F08000A168A11AD200A128A11433E84000A1675
:100F18008A110A200A128A1183120313B2000A16D0
:100F28008A110A200A128A11B3000A168A110A20A5
:100F38000A128A11B4000A128A152C200A128A1180
:100F4800831203132F08CB003008CC003108CD00E2
:100F58000030AF000030B0003F30B1004B08B200A5
:100F68004C08B3004D08B4000A128A152C200A1246
:100F78008A11831203132F08BF003008C0003108FC
:100F8800C100F92F0030AF000030B0003F30B10091
:100F98000330C2004208AB004E080A168A11AD2081
:100FA8000A128A11283E84000A168A110A200A1297
:100FB8008A1183120313B2000A168A110A200A1230
:100FC8008A11B3000A168A110A200A128A11B4007B
:100FD8000A128A152C200A128A11831203132F0869
:100FE800BF003008C0003108C10008003834BA34E6
:1010020083120313A001A101731C082809281128C7
:10101200750883120313A0070318A10A7608A10713
:1010220001300310F50DF60DFF3E031D12280130AD
:101032000310F40CF30CFF3E031D1928730874040B
:10104200031D242825280528831203132108F400F0
:101052002008F3000800831203132F08B50030089C
:10106200B6003108B7000310360D370DB800380846
:10107200B9003908031D3E283F2846280030AF003A
:101082000030B0000030B10010293208B50033083A
:10109200B6003408B7000310360D370DB800380813
:1010A200BE003E08031D562857285E280030AF00B8
:1010B2000030B0000030B10010293E087B3EB50080
:1010C2003508B9072F08B5003008B6003108B70057
:1010D20010300310B70CB60CB50CFF3E031D6A2886
:1010E2003508B8003808BE003208B5003308B6002B
:1010F2003408B70010300310B70CB60CB50CFF3E25
:10110200031D7C283508B8003808BE068030B500BB
:101112003508BE05B017B317FF30B205FF30B3056F
:101122000030B4050030BA000030BB000030BC0013
:101132000730B5003508BD002F1CA028A128B12812
:101142003208BA07330803110318330A0319AA280D
:10115200BB07340803110318340A0319B128BC076A
:1011620001300310B10CB00CAF0CFF3E031DB228CE
:1011720001300310B20DB30DB40DFF3E031DBA28AA
:101182000130BD02031DC628C7289D280930B500BD
:101192003508BD002F1CCE28CF28DF283208BA0719
:1011A200330803110318330A0319D828BB0734087C
:1011B20003110318340A0319DF28BC070130031096
:1011C200B10CB00CAF0CFF3E031DE0280130031040
:1011D200BC0CBB0CBA0CFF3E031DE8280130BD025B
:1011E200031DF428F528CB283A08F3003B08F40045
:1011F2003C08F5003908B5003508F6003E08B6008F
:101202003608F7000A168A1102230A128A15730891
:1012120083120313AF007408B0007508B100080010
:10122200831203134F08D5005008D6005108D70087
:101232000310560D570DD8005808DB005208D50090
:101242005308D6005408D7000310560D570DD80086
:101252005808DA005B0803192F29302940295A0857
:101262005B0203183529362947295A08D5005B083D
:10127200D50219305502031C3F294029472952083B
:10128200CF005308D0005408D100462A5A08031947
:101292004B294C295C295B085A020318512952290F
:1012A2005D295B08D5005A08D50219305502031C86
:1012B2005B295C295D29462A0630D5005508D900EC
:1012C200D11F642965296629D917D41F69296A297A
:1012D2006B295917D017FF30CF05FF30D0050030EA
:1012E200D105D317FF30D205FF30D3050030D40526
:1012F2005A085B0203187E297F29AB2901300310AB
:10130200D20DD30DD40DFF3E031D80290130DA0228
:101312005A085B0603198E298F29A4290130D902A4
:1013220059080739031D962997297F29A4290130D5
:101332000310D10CD00CCF0CFF3E031D99290130B4
:10134200D5005508DB075B085A06031DA929AA29FF
:101352009829DC295B085A020318B029B129DC2933
:1013620001300310CF0DD00DD10DFF3E031DB22968
:101372000130DB025A085B060319C029C129D629AC
:101382000130D90259080739031DC829C929B129D1
:10139200D62901300310D40CD30CD20CFF3E031D0E
:1013A200CB290130D5005508DA075B085A06031D20
:1013B200DB29DC29CA29D91FDF29E029F029FF30DE
:1013C200CF06FF30D006FF30D1060130CF07003004
:1013D20003180130D007003003180130D107591F1C
:1013E200F329F429042AFF30D206FF30D306FF3056
:1013F200D4060130D207003003180130D307003081
:1014020003180130D407D9014F08D207500803113D
:101412000318500A03190E2AD3075108031103189F
:10142200510A0319152AD407D41F182A192A2B2A5C
:10143200FF30D206FF30D306FF30D4060130D20788
:10144200003003180130D307003003180130D407ED
:10145200D901D90A5208F3005308F4005408F500E0
:101462005B08D5005508F6005908D6005608F70063
:101472000A168A1102230A128A15730883120313A9
:10148200CF007408D0007508D1000800831203133E
:10149200C700C71F4D2A4E2AA92BC709C70A4708EA
:1014A200803A123E031C562A572A152B0330C200DB
:1014B2004208AB004708F500F601F51BF60364305D
:1014C200F3000030F4000A168A11D6210A128A1596
:1014D200740883120313A5007308A4000A30A20043
:1014E2000030A3000A168A1199220A128A15831261
:1014F200031322080A168A11AD200A128A15433EE6
:1015020084000A168A110A200A128A15831203130A
:10151200AF000A168A110A200A128A15B0000A16AA
:101522008A110A200A128A15B1000330C300430847
:10153200AB004708A400A501A41BA5036430A200C8
:101542000030A3000A168A1199220A128A15831200
:10155200031322080A168A11AD200A128A155E3E6A
:1015620084000A168A110A200A128A1583120313AA
:10157200B2000A168A110A200A128A15B3000A1644
:101582008A110A200A128A15B4000A128A152C201E
:101592000A128A15831203132F08C4003008C500EB
:1015A2003108C6000330C2004208AB004708F5000C
:1015B200F601F51BF6030A30F3000030F4000A16B8
:1015C2008A11D6210A128A1573080A168A11AD20C9
:1015D2000A128A15283E84000A168A110A200A1263
:1015E2008A1583120313AF000A168A110A200A12FF
:1015F2008A15B0000A168A110A200A128A15B10049
:101602004408B2004508B3004608B4000A128A151D
:101612002C200A128A15831203132F08BF003008E8
:10162200C0003108C100012D4708803A753E031CF5
:101632001B2B1C2B882B0330C2004208AB0047082F
:10164200F500F601F51BF6030A30F3000030F40052
:101652000A168A11D6210A128A1573080A168A11E5
:10166200AD200A128A15283E84000A168A110A2021
:101672000A128A1583120313AF000A168A110A206E
:101682000A128A15B0000A168A110A200A128A154D
:10169200B1000330C3004308AB004708A400A50112
:1016A200A41BA5030A30A2000030A3000A168A1167
:1016B20099220A128A158312031322080A168A1122
:1016C200AD200A128A15433E84000A168A110A20A6
:1016D2000A128A1583120313B2000A168A110A200B
:1016E2000A128A15B3000A168A110A200A128A15EA
:1016F200B4000A128A152C200A128A1583120313C7
:101702002F08BF003008C0003108C100012D03308E
:10171200C2004208AB0047080A168A11AD200A121D
:101722008A15283E84000A168A110A200A128A158E
:1017320083120313BF000A168A110A200A128A159D
:10174200C0000A168A110A200A128A15C100012D48
:101752004708803A123E031CAF2BB02B6E2C03308D
:10176200C2004208AB004708F500F601F51BF6037C
:101772006430F3000030F4000A168A11D6210A12EE
:101782008A15740883120313A5007308A4000A3093
:10179200A2000030A3000A168A1199220A128A15A1
:1017A2008312031322080A168A11AD200A128A151F
:1017B2001C3E84000A168A110A200A128A15831214
:1017C2000313AF000A168A110A200A128A15B00002
:1017D2000A168A110A200A128A15B1000330C300C0
:1017E2004308AB004708A400A501A41BA50364306D
:1017F200A2000030A3000A168A1199220A128A1541
:101802008312031322080A168A11AD200A128A15BE
:10181200373E84000A168A110A200A128A15831298
:101822000313B2000A168A110A200A128A15B3009B
:101832000A168A110A200A128A15B4000A128A1597
:101842002C200A128A15831203132F08C4003008B1
:10185200C5003108C6000330C2004208AB00470889
:10186200F500F601F51BF6030A30F3000030F40030
:101872000A168A11D6210A128A1573080A168A11C3
:10188200AD200A128A15013E84000A168A110A2026
:101892000A128A1583120313AF000A168A110A204C
:1018A2000A128A15B0000A168A110A200A128A152B
:1018B200B1004408B2004508B3004608B4000A1259
:1018C2008A152C200A128A15831203132F08BF00CF
:1018D2003008C0003108C100012D4708803A753E2A
:1018E200031C742C752CE12C0330C2004208AB009F
:1018F2004708F500F601F51BF6030A30F300003045
:10190200F4000A168A11D6210A128A1573080A16D9
:101912008A11AD200A128A15013E84000A168A1124
:101922000A200A128A1583120313AF000A168A11BB
:101932000A200A128A15B0000A168A110A200A120F
:101942008A15B1000330C3004308AB004708A40066
:10195200A501A41BA5030A30A2000030A3000A16A9
:101962008A1199220A128A158312031322080A166F
:101972008A11AD200A128A151C3E84000A168A11A9
:101982000A200A128A1583120313B2000A168A1158
:101992000A200A128A15B3000A168A110A200A12AC
:1019A2008A15B4000A128A152C200A128A1583128B
:1019B20003132F08BF003008C0003108C100012DF9
:1019C2000330C2004208AB0047080A168A11AD2054
:1019D2000A128A15013E84000A168A110A200A1286
:1019E2008A1583120313BF000A168A110A200A12EB
:1019F2008A15C0000A168A110A200A128A15C10025
:101A0200080083160313B200633083120313E70046
:101A1200670883160313A3000A128A11332E253096
:101A220038060319152D162D2A2D38088312031393
:101A3200E700831603133208840083120313670836
:101A4200831380000130E700670883160313B2078F
:101A52000D2DAA01AB01A801A9018312031362088B
:101A620084000A168A110A200A128A150A168A1591
:101A7200F5260A128A15031C3F2D402D8A2D831646
:101A82000313AA01AB010A30F3000030F4008316FD
:101A920003132B08F6002A08F5000A128A15012002
:101AA2000A128A15740883160313AB007308AA007E
:101AB20083120313620884000A168A110A200A128A
:101AC2008A15D03EE700FF3003180030E8006708AF
:101AD20083160313AA070318AB0A831203136808B9
:101AE20083160313AB07013083120313E700670861
:101AF200E207620884000A168A110A200A128A156D
:101B02000A168A15F5260A128A150318892D8A2DB6
:101B1200442D83120313620884000A168A110A20D4
:101B22000A128A152E3A031D972D982DEE2D831633
:101B320003132917013083120313E7006708E20732
:101B420083160313B601B701DC2D0A30F30000300F
:101B5200F400831603133708F6003608F5000A125C
:101B62008A1501200A128A15740883160313B70016
:101B72007308B60083120313620884000A168A11DE
:101B82000A200A128A15D03EE700FF3003180030FF
:101B9200E800670883160313B6070318B70A83120F
:101BA2000313680883160313B70701308312031364
:101BB200E7006708E2078312620884000A168A11A6
:101BC2000A200A128A150A168A15F5260A128A1599
:101BD2000318EC2DED2DA62DF82D83160313B60157
:101BE200B7012916F82D831603132915182E013073
:101BF20083120313E207FF30620784000A168A1178
:101C02000A200A128A1583160313B80083120313DB
:101C1200E700E8016808003A0319102E0D2D670845
:101C2200003A0319FD2F663A0319F42D0D2D0030E9
:101C3200280583120313E7000730831603132905CF
:101C420083120313E800670868040319292E2C2E57
:101C52000A128A11302D83160313291E312E322EB9
:101C6200362E0630B6000030B700230884008313F6
:101C72000008B300840A0008B400840A0008B50012
:101C8200033083120313E700670883160313A307C5
:101C9200330883120313A00083160313340883123C
:101CA2000313A10083160313350883120313A20042
:101CB2000030A3000030A4000030A5000A168A11EB
:101CC200C4200A128A150318672E682E812E8316E5
:101CD20003133308F3003408F4003508F5000A163C
:101CE2008A15DC260A128A15730883160313B300B9
:101CF2007408B4007508B5000330A8040030A904C4
:101D020083160313B001B1013508340433040319F7
:101D12008B2E8C2EA22FB3308400831300088312E3
:101D22000313E700840A0008E800840A0008E900B7
:101D3200840A0008EA000F300310EA0CE90CE80CF0
:101D4200E70CFF3E031D9D2EFF306705EB000030C0
:101D52006805EC006B08823E83160313B000831201
:101D620003136C080318013EFF3E83160313B100F0
:101D7200FF30B0070318B10AFF30B1070330F30098
:101D82000030F4003108F6003008F5000A128A1516
:101D920001200A128A15740883160313B10073080E
:101DA200B0000A3083120313A2000030A30083168E
:101DB2000313310883120313A5008316031330089B
:101DC20083120313A4000A168A1199220A128A1591
:101DD20083120313230883160313B1008312031320
:101DE200220883160313B000B11FF82EF92EFF2E1E
:101DF200FF30B0070318B10AFF30B1073003FF3AD2
:101E02000A128A1547220A128A15831203133F08FF
:101E120083160313AC0083120313400883160313C3
:101E2200AD0083120313410883160313AE00330877
:101E320083120313AF0083160313340883120313B0
:101E4200B00083160313350883120313B1008316FF
:101E520003132C0883120313B200831603132D08F5
:101E620083120313B300831603132E088312031382
:101E7200B4000A128A152C200A128A15831203133F
:101E82002F0883160313AC00831203133008831642
:101E92000313AD0083120313310883160313AE003C
:101EA2002C0883120313A000831603132D08831238
:101EB2000313A100831603132E0883120313A20037
:101EC2000030A3008030A4003F30A5000A168A111A
:101ED200C4200A128A1503186F2F702F792FFF3032
:101EE20083160313B0070318B10AFF30B107A22FFC
:101EF200831603132C0883120313A0008316031303
:101F02002D0883120313A100831603132E088312D4
:101F12000313A2000030A3002030A4004130A5002A
:101F22000A168A11C4200A128A15031C992F9A2FA5
:101F3200A22F013083160313B0070318B10A003031
:101F4200B107831603133708803AFF0080307F02FF
:101F5200031DAD2F0D3036020318B02FB12FEA2F1B
:101F62008316031336080A128A1151260A128A1599
:101F7200831203133F08CF004008D0004108D1006C
:101F820083160313330883120313D2008316031339
:101F9200340883120313D300831603133508831204
:101FA2000313D4000A128A1511210A128A15831208
:101FB20003134F0883160313B3008312031350084D
:101FC20083160313B40083120313510883160313F9
:101FD200B500831603133108803AFF0080307F0278
:101FE200031DF52F0A3030020318FA2F0A128A1144
:101FF2003D280A128A1174280A128A114A2EFF1BDE
:102002000A2883137F1883170008840A0319FF0A1A
:10201200080010308A000408840A82070034003461
:1020220080343F340034203441340034C8344234E4
:1020320000347A34443440341C3446345034C3348B
:102042004734243474344934973418344B34BC3410
:10205200BE344C346B346E344E3403341534503445
:102062007934AD346034F33449347134003480341B
:102072003F34CD34CC343D34D73423343C34123461
:1020820083343A34B734D1343834C634273437340D
:10209200383486343534C034D6343334CC342B34EB
:1020A2003234703489343034E734DB342E34E5345E
:1020B2003C341E344234A2340D3401340034003432
:1020C20000340A3400340034003464340034003400
:1020D2000034E8340334003400341034273400343C
:1020E2000034A034863401340034403442340F3496
:1020F200003480349634983400340034E134F534BA
:1021020005340034CA349A343B34253432342E3404
:1021120031346634203420342034253432342E34A1
:102122003134663420340034543431342034203491
:102132002034483431342034203420340A340034FA
:10214200F30083160313981CA728A828A228730853
:10215200831203139900080083120313AE00AD012A
:102162002E1CB428B528B9282B08AC002C08AD07C2
:102172000310AB0D0310AE0C2E08031DC128C2289C
:10218200B1282D08080083120313A21FC928CA28E8
:10219200D7282008003CA0002108031C210F003C86
:1021A200A1002208031C220F803CA200A51FDA28EE
:1021B200DB28E8282308003CA3002408031C240F82
:1021C200003CA4002508031C250F803CA50080309C
:1021D200A2068030A50625082202031DF62824083F
:1021E2002102031DF628230820020318F928FA28E1
:1021F200FC280310FD280314080073087404031953
:1022020003290429352983120313A001A00A1429E2
:1022120001300310F30DF40DFF3E031D0A290130B6
:10222200F7007708A007F41F17291829092974084D
:102232007602031D1E2973087502031C2129222917
:1022420028297308F5027408031CF603F60201300C
:102252000310F40CF30CFF3E031D29290130A002E8
:10226200031D3429352918297608F4007508F3006E
:10227200080083120313A701A801210822040319ED
:10228200432944297B29A601A60A522901300310B9
:10229200A10DA20DFF3E031D48290130A50025080E
:1022A200A607A21F55295629472901300310A70D59
:1022B200A80DFF3E031D572922082402031D63298E
:1022C20021082302031C662967296E292108A3021B
:1022D2002208031CA403A402271401300310A20C39
:1022E200A10CFF3E031D6F290130A602031D7A29AE
:1022F2007B2956292808A2002708A100080083127A
:1023020003132308220421042004031989298A299A
:10231200CD29F401F40A9A290130F3000310A00D2B
:10232200A10DA20DA30DF30B8F290130F300730849
:10233200F407A31F9D299E298D2923082702031D27
:10234200AC2922082602031DAC2921082502031DFF
:10235200AC2920082402031CAF29B029BE29200879
:10236200A4022108031C210FA5022208031C220F2C
:10237200A6022308031C230FA70201300310A30C9B
:10238200A20CA10CA00CFF3E031DBF290130F402D8
:10239200031DCC29CD299E292708A3002608A200C7
:1023A2002508A1002408A000080083120313A1013C
:1023B200F61FDC29DD29E429F509F609F50A0319D6
:1023C200F60AA101A10AF41FE729E829ED29F30978
:1023D200F409F30A0319F40A730874040319F229BD
:1023E200F329222AA001A00A012A01300310F30DC9
:1023F200F40DFF3E031DF7290130F7007708A0070F
:10240200F41F042A052AF62974087602031D0B2AF2
:1024120073087502031C0E2A0F2A152A7308F50287
:102422007408031CF603F60201300310F40CF30CDB
:10243200FF3E031D162A0130A002031D212A222A73
:10244200052A21080319262A272A2C2AF509F60922
:10245200F50A0319F60A7608F4007508F300080075
:10246200003083120313AB000030AA000030A90031
:102472000030A80023082204210420040319422A60
:10248200432A902AAC01AC0A532A0130F30003100C
:10249200A00DA10DA20DA30DF30B482A0130F300EC
:1024A2007308AC07A31F562A572A462A0130F300A5
:1024B2000310A80DA90DAA0DAB0DF30B592A230881
:1024C2002702031D6E2A22082602031D6E2A2108F6
:1024D2002502031D6E2A20082402031C712A722A77
:1024E200812A2008A4022108031C210FA502220828
:1024F200031C220FA6022308031C230FA702281481
:1025020001300310A30CA20CA10CA00CFF3E031D72
:10251200822A0130AC02031D8F2A902A572A2B08E7
:10252200A3002A08A2002908A1002808A000080088
:1025320083120313A801A31F9F2AA02AA72AA20974
:10254200A309A20A0319A30AA801A80AA51FAA2A75
:10255200AB2AB42AA409A509A40A0319A50A0130C1
:10256200A6002608A806A901AA0122082304031925
:10257200BB2ABC2AF32AA701A70ACA2A01300310E0
:10258200A20DA30DFF3E031DC02A0130A60026089E
:10259200A707A31FCD2ACE2ABF2A01300310A90DF7
:1025A200AA0DFF3E031DCF2A23082502031DDB2AA5
:1025B20022082402031CDE2ADF2AE62A2208A402B9
:1025C2002308031CA503A502291401300310A30C40
:1025D200A20CFF3E031DE72A0130A702031DF22AC7
:1025E200F32ACE2A28080319F72AF82AFD2AA9096C
:1025F200AA09A90A0319AA0A2A08A3002908A200FB
:10260200080076080319062B072B0E2B7508740495
:102612007304031D0D2B0E2B232B0030F30000300F
:10262200F4000030F500832B013083120313A00065
:102632002008F60701300310F50CF40CF30CFF3EF2
:10264200031D1C2BFE307505031D282B292B152B72
:10265200422B013083120313A0002008F607013039
:10266200F307003003180130F4070030031801307B
:10267200F50701300310F50CF40CF30CFF3E031DBB
:102682003B2BFF307505031D472B482B2A2B532B61
:102692000130F60201300310F30DF40DF50DFF3E8B
:1026A200031D4C2BF41B562B572B5D2B023076024D
:1026B20003185C2B5D2B492B7618602B612B672B43
:1026C200FF30F3057F30F405FF30F5050310F60CFB
:1026D200760883120313A000A101A2011030031097
:1026E200A00DA10DA20DFF3E031D702B2008F304C7
:1026F2002108F4042208F50477080319812B822BA0
:10270200832BF5170800831203134808CC004908ED
:10271200CD004A08CE0003104D0D4E0DCF004F08DC
:10272200D5005508031D962B972BA02B0030CB000C
:102732000030CA000030C9000030C8000F2C480821
:10274200CC004908CD004A08CE0017300310CE0C49
:10275200CD0CCC0CFF3E031DA72B4C08CF004F081D
:10276200D000C917FF30C805FF30C9050030CA05BF
:102772004808D1004908D2004A08D300D4018E305B
:10278200D502D51FC52BC62BE02B5508803A8F3EAC
:102792000318CC2BCD2BCE2B972B01300310D40C4E
:1027A200D30CD20CD10CFF3E031DCF2B0130CC0039
:1027B2004C08D507031DDE2BDF2BCE2BF72B183051
:1027C2005502031CE52BE62BF22B972B0130CC0094
:1027D2000310D10DD20DD30DD40DCC0BE92B01304A
:1027E200D5025508031DF62BF72BE72B50080319CA
:1027F200FB2BFC2B072CD109D209D309D409D10A0E
:102802000319D20A0319D30A0319D40A5408CB00B4
:102812005308CA005208C9005108C80008000A1625
:102822008A1507270A168A11003083120313B10092
:102832000030B0002530AF008030AE000A168A1199
:10284200F7250A168A11003083120313B0000130F3
:10285200AF008630AE00A030AD000A168A15C6273A
:102862000A168A11C43083160313B9003908831279
:102872000313ED00C43083160313B9003908C600F0
:102882008630F4008030F5000A168A1568270A1689
:102892008A11773083160313B900390883120313A0
:1028A200E2006D0883160313BA00BB013A088312D3
:1028B2000313E300831603133B0883120313E4009C
:1028C200831603134608BC00BD013C0883120313A0
:1028D200E500831603133D0883120313E600C73095
:1028E2000A128A1502250A168A11C730F40000302E
:1028F200F5000A168A1568270A168A110D300A167B
:102902008A11A1200A168A110A300A168A11A120F8
:102912000A168A11063083160313BB001330BA005D
:10292200AD30B900B90B932CBA0B932CBB0B932C83
:10293200332C0A128A110C2883120313A901A31F34
:10294200A32CA42CB12CA009A109A209A309A00AB5
:102952000319A10A0319A20A0319A30AA901A90AC0
:10296200A71FB42CB52CC42CA409A509A609A70934
:10297200A40A0319A50A0319A60A0319A70A013012
:10298200F3007308A9060030AD000030AC0000303F
:10299200AB000030AA0023082204210420040319FA
:1029A200D32CD42C212DA801A80AE42C0130F30049
:1029B2000310A00DA10DA20DA30DF30BD92C013014
:1029C200F3007308A807A31FE72CE82CD72C0130CB
:1029D200F3000310AA0DAB0DAC0DAD0DF30BEA2CF9
:1029E20023082702031DFF2C22082602031DFF2CA9
:1029F20021082502031DFF2C20082402031C022D9E
:102A0200032D122D2008A4022108031C210FA50268
:102A12002208031C220FA6022308031C230FA7026D
:102A22002A1401300310A30CA20CA10CA00CFF3E2F
:102A3200031D132D0130A802031D202D212DE82C8A
:102A420029080319252D262D312DAA09AB09AC0918
:102A5200AD09AA0A0319AB0A0319AC0A0319AD0A94
:102A62002D08A3002C08A2002B08A1002A08A00010
:102A72000800831203132008F3002108F40022083F
:102A8200F5000310740D750DF6007608AB002B08E7
:102A9200031D4C2D4D2D562D0030A3000030A200F9
:102AA2000030A1000030A000F62D2308F300240816
:102AB200F4002508F5000310740D750DF600760874
:102AC200AA002A08031D662D672D682D4D2DA1171A
:102AD200FF30A005FF30A1050030A205A417FF308A
:102AE200A305FF30A4050030A5050030A900003081
:102AF200A8000030A7000030A6007F30AB0298305B
:102B02002A07F3007308AB021830F3007308AA0017
:102B12000130F3000310A60DA70DA80DA90DF30BAC
:102B22008B2D25082202031D9C2D24082102031D42
:102B32009C2D23082002031C9F2DA02DAB2D2308C2
:102B4200A0022408031C240FA1022508031C250A45
:102B5200A202261401300310A00DA10DA20DFF3E0A
:102B6200031DAC2D0130AA02031DB82DB92D892DEC
:102B7200AB1FBC2DBD2DD72D2B08803A973E0318D5
:102B8200C32DC42DC52D4D2D01300310A90CA80C49
:102B9200A70CA60CFF3E031DC62D0130F3007308DF
:102BA200AB07031DD52DD62DC52DEE2D18302B02CA
:102BB200031CDC2DDD2DE92D4D2D0130F30003101A
:102BC200A60DA70DA80DA90DF30BE02D0130AB0248
:102BD2002B08031DED2DEE2DDE2D2908A30028085C
:102BE200A2002708A1002608A000080083120313F0
:102BF2002E08B2002F08B3003008B4003108B50027
:102C020006300310B20DB30DB40DB50DFF3E031D1A
:102C1200022E3508A3003408A2003308A1003208AE
:102C2200A0002E08B6002F08B7003008B8003108FF
:102C3200B90006300310B60DB70DB80DB90DFF3E41
:102C4200031D1B2E0030BA001230BB007A30BC00CC
:102C52000030BD003608BA023708031C370F322E87
:102C6200332EBB023808031C380F382E392EBC0213
:102C72003908031C390F3E2E3F2EBD023D08A70026
:102C82003C08A6003B08A5003A08A4000A168A11CF
:102C92009D240A168A11831203132108F5002008C5
:102CA200F40001307502003003197402031C5A2E1D
:102CB2005B2EB72E2E08B2002F08B3003008B400E6
:102CC2003108B50004300310B20DB30DB40DB50DCB
:102CD200FF3E031D642E3508A3003408A20033080A
:102CE200A1003208A0002E08B6002F08B700300855
:102CF200B8003108B90004300310B60DB70DB80D95
:102D0200B90DFF3E031D7D2E0030BA001230BB000C
:102D12007A30BC000030BD003608BA023708031C06
:102D2200370F942E952EBB023808031C380F9A2EAB
:102D32009B2EBC023908031C390FA02EA12EBD0206
:102D42003D08A7003C08A6003B08A5003A08A400DD
:102D52000A168A119D240A168A1183120313210866
:102D6200F5002008F40083160313181501307502CC
:102D72000030031974020318BF2EC02ED22E74081D
:102D820083160313990018128312031398178316DC
:102D920003138717071383120313181683160313DB
:102DA200981608002030840083130008831203134E
:102DB200A600840A0008A700840A0008A800840A62
:102DC2000008A9000310280D290DAA002A08B30043
:102DD2003308031DED2EEE2EF72E0030A300003037
:102DE200A2000030A1000030A000FF2F2330840099
:102DF2000008A600840A0008A700840A0008A800A8
:102E0200840A0008A9000310280D290DAA002A0827
:102E1200B2003208031D0E2F0F2F102FEE2E20307E
:102E2200840000308004840A00308004840A8030E8
:102E32008004840A0030800420308400FF30800542
:102E4200840AFF308005840AFF308005840A00303E
:102E520080052330840000308004840A003080041E
:102E6200840A80308004840A003080042330840085
:102E7200FF308005840AFF308005840AFF30800518
:102E8200840A003080050030B1000030B00000300C
:102E9200AF000030AE007F30B302A0303207A60090
:102EA2002608B3022030A6002608B2000130A60090
:102EB2000310AE0DAF0DB00DB10DA60B592F23307F
:102EC20084000008A600840A0008A700840A0008FB
:102ED200A800840A0008A900203084000008AA0083
:102EE200840A0008AB00840A0008AC00840A0008C7
:102EF200AD0029082D02031D882F28082C02031D6E
:102F0200882F27082B02031D882F26082A02031C5C
:102F12008B2F8C2FAF2F233084000008A600840A49
:102F22000008A700840A0008A800840A0008A90073
:102F32002030840026088002840A2708031C270FF9
:102F42008002840A2808031C280F8002840A2908A8
:102F5200031C290A8002033084022E1420308400CC
:102F62000310800D840A800D840A800D840A800D6E
:102F72008403840384030130B202031DC12FC22FD4
:102F8200572FB31FC52FC62FE02F3308803A9F3E1D
:102F92000318CC2FCD2FCE2FEE2E01300310B10C03
:102FA200B00CAF0CAE0CFF3E031DCF2F0130A600BC
:102FB2002608B307031DDE2FDF2FCE2FF72F203079
:102FC2003302031CE52FE62FF22FEE2E0130A6006E
:102FD2000310AE0DAF0DB00DB10DA60BE92F0130F0
:102FE200B3023308031DF62FF72FE72F3108A30092
:0E2FF2003008A2002F08A1002E08A000080041
:103D9800831203138C1ED12ED22ECC2E1A080800A3
:103DA80064008001840A0406031900340406D52E31
:103DB8007508740473040319E22EE32EE52E80308F
:103DC800F5060800AC3433340034A8340034003429
:103DD800E1340834003401340034393400343834E0
:103DE8000034F400F3013A3074020318FC2EFD2E5F
:103DF800052F30307402031C022F032F052FF30107
:103E0800F30A730C0800831603138601831603173D
:103E1800880189018312031386010B178316031384
:103E28008C16831203138C128B1708007E088A00E5
:103E38007F0882000A168A151A270A168A15800032
:103E4800840A04087D0603190034FF0A0319FE0AD0
:103E58001E2F831203138C1E322F332F3C2F8C12EC
:103E68000A168A15CC260A168A15F0007008FA0078
:103E780072088A00710E8300FE0E7E0E09008312FE
:103E880003135E085D045C0403194B2F4C2F4E2F5F
:103E98008030DE065F08CF006008D0006108D100DE
:103EA8005C08D2005D08D3005E08D4000A128A15A7
:103EB80011210A168A15831203134F08DC005008D3
:103EC800DD005108DE000800F7017F2F770874072E
:103ED800840075080318750AFF000A168A11002065
:103EE8000A168A150A168A11A1200A168A1501309F
:103EF800F6007608F7077708740784007508031832
:103F0800750A83120313FF000A168A1100200A1685
:103F18008A15003A031D912F922F6A2F08008E30C0
:103F280083120313A7002708A800A72F0130031046
:103F3800A60CA50CA40CA30CFF3E031D9B2F01305F
:103F4800A7002708A807FF302605031DAC2FAD2FB3
:103F58009A2F2308F3002408F4002508F500280800
:103F6800A7002708F600F7010A168A1102230A1685
:103F78008A15730883120313A3007408A400750834
:103F8800A500080028308312031394008316031336
:103F98009101831203132D08F4002E08F5002F0851
:103FA800F6003008F70002300310F40DF50DF60D99
:103FB800F70DFF3E031DD82F7708A3007608A2004F
:103FC8007508A1007408A0000030A7007A30A60088
:103FD8001230A5000030A4000A168A1131220A16F0
:103FE8008A15831203132008FF3E831603139300D8
:083FF80094018715071608006B
:04400E00D420FF3F7C
:00000001FF
