:020000040000FA
:060000000A128A110C280F
:10000800FE00030EF1000A08F2000A128A11D12933
:100018000A128A110F2883136B30FD000230FE008C
:100028000D30FF005B3084000A128A11EB210A129E
:100038008A110A128A1141220A128A11FA003E30E4
:1000480084005B300A128A1131220A128A11F801DF
:10005800F90183010A128A11AA29831203132E08AF
:10006800B2002F08B3003008B4003108B5000630DC
:100078000310B20DB30DB40DB50DFF3E031D3C28A2
:100088003508A3003408A2003308A1003208A000F4
:100098002E08B6002F08B7003008B8003108B9009C
:1000A80006300310B60DB70DB80DB90DFF3E031D90
:1000B80055288030BA001A30BB000630BC0000302A
:1000C800BD003608BA023708031C370F6C286D28A4
:1000D800BB023808031C380F72287328BC02390881
:1000E800031C390F78287928BD023D08A7003C0871
:1000F800A6003B08A5003A08A4000A128A110D219F
:100108000A128A11831203132108F5002008F4004B
:1001180001307502003003197402031C94289528D5
:10012800F1282E08B2002F08B3003008B4003108B7
:10013800B50004300310B20DB30DB40DB50DFF3E7C
:10014800031D9E283508A3003408A2003308A10027
:100158003208A0002E08B6002F08B7003008B800F3
:100168003108B90004300310B60DB70DB80DB90D3C
:10017800FF3E031DB7288030BA001A30BB00063096
:10018800BC000030BD003608BA023708031C370F20
:10019800CE28CF28BB023808031C380FD428D5280E
:1001A800BC023908031C390FDA28DB28BD023D08D8
:1001B800A7003C08A6003B08A5003A08A4000A12BC
:1001C8008A110D210A128A11831203132108F500DE
:1001D8002008F40083160313181501307502003047
:1001E800031974020318F928FA280C2974088316CD
:1001F8000313990018128312031398178316031315
:1002080087170713831203131816831603139816F8
:10021800080083120313A901A31F132914292129F4
:10022800A009A109A209A309A00A0319A10A03198F
:10023800A20A0319A30AA901A90AA71F2429252983
:100248003429A409A509A609A709A40A0319A50A16
:100258000319A60A0319A70A0130F3007308A906AF
:100268000030AD000030AC000030AB000030AA0018
:10027800230822042104200403194329442991292D
:10028800A801A80A54290130F3000310A00DA10DFC
:10029800A20DA30DF30B49290130F3007308A80739
:1002A800A31F5729582947290130F3000310AA0D25
:1002B800AB0DAC0DAD0DF30B5A2923082702031D16
:1002C8006F2922082602031D6F2921082502031D14
:1002D8006F2920082402031C722973298229200807
:1002E800A4022108031C210FA5022208031C220FC7
:1002F800A6022308031C230FA7022A1401300310A7
:10030800A30CA20CA10CA00CFF3E031D83290130F5
:10031800A802031D9029912958292908031995290C
:100328009629A129AA09AB09AC09AD09AA0A03199A
:10033800AB0A0319AC0A0319AD0A2D08A3002C084F
:10034800A2002B08A1002A08A00008000A128A119E
:10035800FA210A128A11003083120313B100013006
:10036800B000C230AF000030AE000A128A1131204E
:100378000A128A1101300A128A111D220A128A11E0
:100388008230F700DD30F600F60BC829F70BC829D4
:10039800CD29BE290A128A110C28831203138C1E38
:1003A800D629D729E0298C120A128A1139220A1271
:1003B8008A11F0007008F90072088A00710E830033
:1003C800FE0E7E0E09007E088A007F0882000A124F
:1003D8008A11E7210A128A118000840A04087D061E
:1003E80003190034FF0A0319FE0AEB2983160313C5
:1003F8008601831603178801890183120313860176
:100408000B17831603138C16831203138C128B1786
:100418000800AC3433340034A83400340034E134F8
:1004280008340034013400343934003438340034AA
:10043800BA34F30083160313981C232A242A1E2A8D
:100448007308831203139900080002308A00040815
:10045800840A820700346134003464008001840A0D
:100468000406031900340406322A831203138C1E6F
:0C0478003E2A3F2A392A1A0808003834AE
:04400E00D420FF3F7C
:00000001FF
