:020000040000FA
:100000000A128A11D72F7208710470040319092883
:100010000A280C288030F2060800831203132808EF
:10002000AE002908AF002A08B00003102F0D300DD4
:10003000B1003108B2003208031D1F2820282728EC
:100040000030A8000030A9000030AA00F1282B08D9
:10005000AE002C08AF002D08B00003102F0D300D9E
:10006000B1003108B7003708031D372838283F286A
:100070000030A8000030A9000030AA00F12837089D
:100080007B3EAE002E08B2072808AE002908AF005C
:100090002A08B00010300310B00CAF0CAE0CFF3EBD
:1000A000031D4B282E08B1003108B7002B08AE0005
:1000B0002C08AF002D08B00010300310B00CAF0CAE
:1000C000AE0CFF3E031D5D282E08B1003108B706B7
:1000D0008030AE002E08B705A917AC17FF30AB056E
:1000E000FF30AC050030AD050030B3000030B40087
:1000F0000030B5000730AE002E08B600281C81285D
:10010000822892282B08B3072C08031103182C0A05
:1001100003198B28B4072D08031103182D0A03199E
:100120009228B50701300310AA0CA90CA80CFF3EB9
:10013000031D932801300310AB0DAC0DAD0DFF3E38
:10014000031D9B280130B602031DA728A8287E287E
:100150000930AE002E08B600281CAF28B028C028F1
:100160002B08B3072C08031103182C0A0319B9280C
:10017000B4072D08031103182D0A0319C028B50769
:1001800001300310AA0CA90CA80CFF3E031DC128C6
:1001900001300310B50CB40CB30CFF3E031DC9288D
:1001A0000130B602031DD528D628AC283308F0004C
:1001B0003408F1003508F2003208AE002E08F300D2
:1001C0003708AF002F08F4000A168A1166220A12B7
:1001D0008A11700883120313A8007108A90072081D
:1001E000AA00080083120313C7006E304702031CE5
:1001F000FA28FB28D2290330BB003B08A40047089B
:10020000BC00BD013C08F2003D08F3006430F00082
:100210000030F1000A168A1519270A128A1171088E
:10022000F9007008F8000A30F6000030F7000A16EE
:100230008A119D200A128A1176080A128A150C204A
:100240000A128A11433E84000A168A1100200A12FB
:100250008A1183120313A8000A168A1100200A12B9
:100260008A11A9000A168A1100200A128A11AA000E
:100270000330BE003E08A4004708BF00C0013F088D
:10028000F8004008F9006430F6000030F7000A1664
:100290008A119D200A128A1176080A128A150C20EA
:1002A0000A128A115E3E84000A168A1100200A1280
:1002B0008A1183120313AB000A168A1100200A1256
:1002C0008A11AC000A168A1100200A128A11AD00A8
:1002D0000A128A110D200A128A11831203132808A8
:1002E000C4002908C5002A08C6000330BB003B082B
:1002F000A4004708BC00BD013C08F2003D08F30023
:100300000A30F0000030F1000A168A1519270A1287
:100310008A1170080A128A150C200A128A11283EC6
:1003200084000A168A1100200A128A11831203130C
:10033000A8000A168A1100200A128A11A9000A16BA
:100340008A1100200A128A11AA004408AB0045084D
:10035000AC004608AD000A128A110D200A128A115B
:10036000831203132808C1002908C2002A08C30009
:100370000030A8000030A9003F30AA004108AB00BF
:100380004208AC004308AD000A128A110D200A127F
:100390008A11831203132808B8002908B9002A0813
:1003A000BA00922A0B304702031CD729D8295F2AAA
:1003B0000330BB003B08A4004708BC00BD013C085B
:1003C000F2003D08F3000A30F0000030F1000A1698
:1003D0008A1519270A128A1170080A128A150C2028
:1003E0000A128A11283E84000A168A1100200A1275
:1003F0008A1183120313A8000A168A1100200A1218
:100400008A11A9000A168A1100200A128A11AA006C
:100410000330BE003E08A4004708BF00C0013F08EB
:10042000F8004008F9000A30F6000030F7000A161C
:100430008A119D200A128A1176080A128A150C2048
:100440000A128A11433E84000A168A1100200A12F9
:100450008A1183120313AB000A168A1100200A12B4
:100460008A11AC000A168A1100200A128A11AD0006
:100470000A128A110D200A128A1183120313280806
:10048000C4002908C5002A08C6000030A8000030B2
:10049000A9003F30AA004408AB004508AC0046085C
:1004A000AD000A128A110D200A128A118312031359
:1004B0002808B8002908B9002A08BA00922A003092
:1004C000A8000030A9003F30AA000330BB003B0861
:1004D000A40047080A128A150C200A128A11283E25
:1004E00084000A168A1100200A128A11831203134B
:1004F000AB000A168A1100200A128A11AC000A16F3
:100500008A1100200A128A11AD000A128A110D20E8
:100510000A128A11831203132808B8002908B900A7
:100520002A08BA000800831603134E084D044C0431
:1005300003199B2A9C2A2C2B4C0883120313C100FD
:10054000831603134D0883120313C200831603138B
:100550004E0883120313C3000A168A11E2220A12FC
:100560008A11831203134408430442044104031D07
:10057000BA2ABB2A2C2B831603134A08803AFF00A1
:1005800080307F02031DC62A02304902031CC92A9B
:10059000CA2A2C2B831603134508F0004608F100E5
:1005A0004708F2007030F3008930F4004030F50065
:1005B0000A168A15E1260A128A110318E02AE12A8E
:1005C000EA2AF73083160313C9070318CA0AFF3053
:1005D000CA07F22AF83083160313C9070318CA0A98
:1005E000FF30CA0749080A128A1585220A128A11A1
:1005F00083120313380883160313C50083120313F1
:10060000390883160313C600831203133A088316AE
:100610000313C7004C08F0004D08F1004E08F2002B
:100620004508F3004608F4004708F5000A168A1149
:10063000B0240A128A11730883160313C0007208CB
:10064000BF007108BE007008BD000030CC00003053
:10065000CD000030CE009B2B831603134C08831271
:100660000313C100831603134D0883120313C20042
:10067000831603134E0883120313C3000A168A114C
:10068000E2220A128A118312031344088316031309
:10069000C00083120313430883160313BF008312A1
:1006A0000313420883160313BE0083120313410889
:1006B00083160313BD004008FD003F08FC003E0800
:1006C000FB003D08FA000A168A1578260A128A11DC
:1006D0007A0883120313D5007B08D6007C08D70064
:1006E000831603134C0883120313D80083160313D5
:1006F0004D0883120313D900831603134E08831287
:100700000313DA000A168A15DB250A128A118312EE
:100710000313550883160313CC00831203135608E2
:1007200083160313CD008312031357088316031394
:10073000CE00C901CA01D101D10A510883120313A5
:10074000E20001300310E20DFF3E031DA22B031057
:10075000620D4F3E84000A168A1100200A128A1187
:10076000E3000A168A1100200A128A11E4000A1610
:100770008A1100200A128A11E5000A168A11002047
:100780000A128A11E6006608831603134002031D4D
:10079000DF2B831203136508831603133F02031D27
:1007A000DF2B831203136408831603133E02031D19
:1007B000DF2B831203136308831603133D02031810
:1007C000E22BE32BE42BF22B013083120313E20024
:1007D000620883160313D1070A305106031DF12B5B
:1007E000F22B9D2B51084F0783120313E20083164F
:1007F000031350080318500A83120313E3008316EF
:1008000003134908831203136207E40083160313DA
:100810004A0803184A0A831203136307E5006408B1
:1008200083160313C302831203136508831603138D
:10083000031CC403C4024F0850040319202C212CAC
:10084000272CFF30C3070318C40AFF30C407033046
:10085000410583120313E20000308316031342059F
:1008600083120313E300620863040319382C392C44
:10087000562CFF3083160313C3070318C40AFF3036
:10088000C407562C203083120313E200831603138F
:100890004B08840083120313620883138000013025
:1008A000E200620883160313CB07392C8316031367
:1008B0004408803AFF0080307F02031D612C013024
:1008C00043020318642C652C422C03308316031357
:1008D000410583120313E20000308316031342051F
:1008E00083120313E300620863040319782C792C44
:1008F000FD2C2D30E200831603134B088400831275
:1009000003136208831380000130E200620883163B
:100910000313CB07FD2C510883120313E2000130AF
:100920000310E20DFF3E031D902C0310620D4F3E9D
:1009300084000A168A1100200A128A11F0000A1691
:100940008A1100200A128A11F1000A168A11002069
:100950000A128A11F2000A168A1100200A128A115C
:10096000F300831603134008F7003F08F6003E0823
:10097000F5003D08F4000A168A1197210A128A111F
:10098000730883160313C8007208C7007108C600F5
:100990007008C5000030F3000030F2000030F100B4
:1009A0000A30F0004808F7004708F6004608F5004E
:1009B0004508F4000A168A1553270A128A1173088B
:1009C00083160313C8007208C7007108C6007008B8
:1009D000C5004508303E83120313E200831603135B
:1009E0004B088400831203136208831380000130D4
:1009F000E200620883160313CB070130831603134A
:100A0000D102510A031D052D062D8B2C202D3030CF
:100A100083120313E200831603134B08840083122E
:100A200003136208831380000130E200620883161A
:100A30000313CB07FF30C9070318CA0AFF30CA07E0
:100A40004A08803AFF0080307F02031D292D0130C3
:100A5000490203182C2D2D2D072D83160313500842
:100A6000803AFF0080307F02031D382D09304F028D
:100A7000031C3B2D3C2D452D083083120313E2004F
:100A8000620883160313D1004F2D831603134F08FA
:100A900083120313E200620883160313D100510886
:100AA00083120313E200E301620883160313CF02EB
:100AB00083120313630883160313031CD003D002AD
:100AC00051080319642D652D782D2E3083120313E0
:100AD000E200831603134B08840083120313620899
:100AE000831380000130E200620883160313CB07F2
:100AF00051080A128A1585220A128A1183120313D9
:100B0000380883160313B9008312031339088316B8
:100B10000313BA00831203133A0883160313BB00AE
:100B2000390883120313AB00831603133A088312A8
:100B30000313AC00831603133B0883120313AD00A9
:100B4000831603134C0883120313A80083160313A0
:100B50004D0883120313A900831603134E08831252
:100B60000313AA000A128A110D200A128A11831295
:100B700003132808C1002908C2002A08C3000A1666
:100B80008A11E2220A128A1183120313440883167F
:100B90000313C00083120313430883160313BF001B
:100BA00083120313420883160313BE008312031338
:100BB000410883160313BD008E2E510883120313C0
:100BC000E20001300310E20DFF3E031DE22D031091
:100BD000620D4F3E84000A168A1100200A128A1103
:100BE000F0000A168A1100200A128A11F1000A1672
:100BF0008A1100200A128A11F2000A168A110020B6
:100C00000A128A11F300831603134008F7003F0805
:100C1000F6003E08F5003D08F4000A168A119721F7
:100C20000A128A11730883160313C8007208C700DA
:100C30007108C6007008C5000030F3000030F200F3
:100C40000030F1000A30F0004808F7004708F600CD
:100C50004608F5004508F4000A168A1553270A12BB
:100C60008A11730883160313C8007208C70071083D
:100C7000C6007008C5004508303E83120313E20029
:100C8000831603134B088400831203136208831333
:100C900080000130E200620883160313CB0751087D
:100CA00083120313E20001300310E20DFF3E031D27
:100CB000542E0310620D4F3E84000A168A11002044
:100CC0000A128A11F0000A168A1100200A128A11EB
:100CD000F1000A168A1100200A128A11F2000A167F
:100CE0008A1100200A128A11F300831603134008A8
:100CF000F7003F08F6003E08F5003D08F4000A162C
:100D00008A1553270A128A11730883160313C00029
:100D10007208BF007108BE007008BD000130D1022A
:100D2000510A031D942E952EDD2DAF2E30308312E7
:100D30000313E200831603134B088400831203138A
:100D40006208831380000130E200620883160313F7
:100D5000CB07FF30CF070318D00AFF30D0074F086A
:100D60005004031DB42EB52E962EB92F83160313EF
:100D70004F085004031DBD2EBE2ECC2E40083F044C
:100D80003E043D04031DC52EC62ECC2E0130CF07D8
:100D90000318D00A0030D0075008803A803C031D69
:100DA000D32E4F0851020318D62ED72EE22E8316CB
:100DB00003134F0883120313E20062088316031320
:100DC000D100062F831603135008803A83120313B1
:100DD000E20080306202031DF12E831603135108D6
:100DE0004F020318F42EF52E062F83160313510815
:100DF00083120313E200E301620883160313CF009A
:100E000083120313630883160313D000831603139E
:100E10004308440403190D2F0E2F282F03304105DA
:100E200083120313E200003083160313420583127A
:100E30000313E3006208630403191F2F202F282FD8
:100E4000FF3083160313C3070318C40AFF30C40717
:100E500083160313421F2D2F2E2F512F5008803A37
:100E600083120313E200831603134408803A8312AB
:100E700003136202031D402F8316031343084F021E
:100E80000318432F442F4D2F831603134F08C3021B
:100E90005008031CC403C402512F83160313C3015B
:100EA000C4014408803A803C031D582F4308510276
:100EB00003185B2F5C2F702F8316031351088312C6
:100EC0000313E200E301620883160313C3028312D3
:100ED0000313630883160313031CC403C402742F93
:100EE00083160313C301C401430844040319792F73
:100EF0007A2F992F203083120313E20083160313F5
:100F00004B088400831203136208831380000130AE
:100F1000E200620883160313CB07FF30C3070318F0
:100F2000C40AFF30C40743084404031D982F992FB7
:100F30007A2F0330410583120313E2000030831639
:100F40000313420583120313E300620863040319C9
:100F5000AA2FAB2FB92F2D30E200831603134B08B5
:100F60008400831203136208831380000A128A1517
:100F7000512D01308312DB07FF305B0784000A1616
:100F80008A1100200A128A11E200620883160313F4
:100F9000D1005108031DCD2FD02F0A128A153E2DE6
:100FA000831603134B088400831380010800831306
:100FB000E130FD001D30FE008230FF00D2308400A1
:100FC0000A168A15CC250A128A110A128A150020DF
:100FD0000A128A11ED000A128A1501200A128A11DA
:100FE000EE00A0308400B9300A168A155B250A127B
:100FF0008A11EA01EB01EC0183010A168A110B2C1C
:101000003934BA340A168A1575250A128A157008F9
:10101000831203139300080083120313A700A60191
:10102000271C1328142818282408A5002508A6071B
:101030000310A40D0310A70C2708031D2028212846
:10104000102826080800703084000008F600840A82
:101050000008F700840A0008F800840A0008F90074
:101060000310780D790DFA007A0883120313A50096
:101070002508031D3C283D2846280030F300003099
:10108000F2000030F1000030F0004E29733084008F
:101090000008F600840A0008F700840A0008F80037
:1010A000840A0008F9000310780D790DFA007A0817
:1010B000A4002408031D5D285E285F283D287030A9
:1010C000840000308004840A00308004840A803068
:1010D0008004840A0030800470308400FF30800572
:1010E000840AFF308005840AFF308005840A0030BE
:1010F00080057330840000308004840A003080044E
:10110000840A80308004840A0030800473308400B4
:10111000FF308005840AFF308005840AFF30800597
:10112000840A003080050030A3000030A2000030A7
:10113000A1000030A0007F30A502A0302407F600F7
:101140007608A5022030F6007608A4000130F600EB
:101150000310A00DA10DA20DA30DF60BA82873304E
:1011600084000008F600840A0008F700840A0008DA
:10117000F800840A0008F900703084000008FA00C2
:10118000840A0008FB00840A0008FC00840A0008A6
:10119000FD0079087D02031DD72878087C02031D15
:1011A000D72877087B02031DD72876087A02031C0C
:1011B000DA28DB28FE28733084000008F600840A51
:1011C0000008F700840A0008F800840A0008F90003
:1011D0007030840076088002840A7708031C770F39
:1011E0008002840A7808031C780F8002840A790838
:1011F000031C790A800203308402201470308400BA
:101200000310800D840A800D840A800D840A800DED
:101210008403840384030130A402031D10291129CF
:10122000A628A51F142915292F292508803A9F3E95
:1012300003181B291C291D293D2801300310A30C6C
:10124000A20CA10CA00CFF3E031D1E290130F600CC
:101250007608A507031D2D292E291D294629203092
:101260002502031C3429352941293D280130F60087
:101270000310A00DA10DA20DA30DF60B382901300E
:10128000A5022508031D4529462936292308F30010
:101290002208F2002108F1002008F0000800831263
:1012A00003134808CE004908CF004A08D0000310B5
:1012B0004F0D500DD1005108D4004B08CE004C0802
:1012C000CF004D08D00003104F0D500DD100510834
:1012D000D300540803196D296E297E29530854023E
:1012E00003187329742985295308CE005408CE02A7
:1012F00019304E02031C7D297E2985294B08C80020
:101300004C08C9004D08CA00842A530803198929CA
:101310008A299A295408530203188F2990299B2956
:101320005408CE005308CE0219304E02031C9929EE
:101330009A299B29842A0630CE004E08D200CA1F63
:10134000A229A329A429D217CD1FA729A829A929F1
:101350005217C917FF30C805FF30C9050030CA054C
:10136000CC17FF30CB05FF30CC050030CD0553083E
:1013700054020318BC29BD29E92901300310CB0D03
:10138000CC0DCD0DFF3E031DBE290130D302530805
:1013900054060319CC29CD29E2290130D202520882
:1013A0000739031DD429D529BD29E22901300310AD
:1013B000CA0CC90CC80CFF3E031DD7290130CE0052
:1013C0004E08D40754085306031DE729E829D629F7
:1013D0001A2A540853020318EE29EF291A2A013059
:1013E0000310C80DC90DCA0DFF3E031DF0290130C1
:1013F000D402530854060319FE29FF29142A013088
:10140000D20252080739031D062A072AEF29142A97
:1014100001300310CD0CCC0CCB0CFF3E031D092A70
:101420000130CE004E08D30754085306031D192A75
:101430001A2A082AD21F1D2A1E2A2E2AFF30C80661
:10144000FF30C906FF30CA060130C8070030031854
:101450000130C907003003180130CA07521F312A72
:10146000322A422AFF30CB06FF30CC06FF30CD06B1
:101470000130CB07003003180130CC0700300318CF
:101480000130CD07D2014808CB07490803110318E2
:10149000490A03194C2ACC074A08031103184A0ABF
:1014A0000319532ACD07CD1F562A572A692AFF3020
:1014B000CB06FF30CC06FF30CD060130CB07003025
:1014C00003180130CC07003003180130CD07D201DA
:1014D000D20A4B08F0004C08F1004D08F200540805
:1014E000CE004E08F3005208CF004F08F4000A1651
:1014F0008A1166220A128A15700883120313C80023
:101500007108C9007208CA00080083120313C000E2
:10151000C01F8B2A8C2ADF2BC009C00A4008803AE2
:10152000123E031C942A952A4D2B0330BB003B0826
:10153000A4004008F200F301F21BF3036430F00052
:101540000030F1000A168A11E1200A128A1571088A
:10155000FA007008F9000A30F7000030F8000A16A7
:101560008A11FD210A128A1577080A128A150C20A1
:101570000A128A15433E84000A168A1100200A12B4
:101580008A1583120313A8000A168A1100200A1272
:101590008A15A9000A168A1100200A128A15AA00C3
:1015A0000330BC003C08A4004008F900FA01F91B14
:1015B000FA036430F7000030F8000A168A11FD21A2
:1015C0000A128A1577080A128A150C200A128A153F
:1015D0005E3E84000A168A1100200A128A158312C0
:1015E0000313AB000A168A1100200A128A15AC00F8
:1015F0000A168A1100200A128A15AD000A128A11F1
:101600000D200A128A15831203132808BD00290829
:10161000BE002A08BF000330BB003B08A4004008FE
:10162000F200F301F21BF3030A30F0000030F10086
:101630000A168A11E1200A128A1570080A128A1500
:101640000C200A128A15283E84000A168A110020EE
:101650000A128A1583120313A8000A168A110020A1
:101660000A128A15A9000A168A1100200A128A1580
:10167000AA003D08AB003E08AC003F08AD000A12CE
:101680008A110D200A128A15831203132808B80044
:101690002908B9002A08BA002F2D4008803A753E63
:1016A000031C532B542BBE2B0330BB003B08A40060
:1016B0004008F200F301F21BF3030A30F00000309F
:1016C000F1000A168A11E1200A128A1570080A121E
:1016D0008A150C200A128A15283E84000A168A11DF
:1016E00000200A128A1583120313A8000A168A1111
:1016F00000200A128A15A9000A168A1100200A126F
:101700008A15AA000330BC003C08A4004008F90078
:10171000FA01F91BFA030A30F7000030F8000A1644
:101720008A11FD210A128A1577080A128A150C20DF
:101730000A128A15433E84000A168A1100200A12F2
:101740008A1583120313AB000A168A1100200A12AD
:101750008A15AC000A168A1100200A128A15AD00FB
:101760000A128A110D200A128A15831203132808FF
:10177000B8002908B9002A08BA002F2D0330BB0091
:101780003B08A40040080A128A150C200A128A1588
:10179000283E84000A168A1100200A128A15831234
:1017A0000313B8000A168A1100200A128A15B9001C
:1017B0000A168A1100200A128A15BA002F2D400835
:1017C000803A123E031CE52BE62B9E2C0330BB0017
:1017D0003B08A4004008F200F301F21BF30364305D
:1017E000F0000030F1000A168A11E1200A128A1571
:1017F0007108FA007008F9000A30F7000030F800AC
:101800000A168A11FD210A128A1577080A128A150A
:101810000C200A128A151C3E84000A168A11002028
:101820000A128A1583120313A8000A168A110020CF
:101830000A128A15A9000A168A1100200A128A15AE
:10184000AA000330BC003C08A4004008F900FA01DB
:10185000F91BFA036430F7000030F8000A168A1109
:10186000FD210A128A1577080A128A150C200A121D
:101870008A15373E84000A168A1100200A128A153A
:1018800083120313AB000A168A1100200A128A156C
:10189000AC000A168A1100200A128A15AD000A123D
:1018A0008A110D200A128A15831203132808BD001D
:1018B0002908BE002A08BF000330BB003B08A40073
:1018C0004008F200F301F21BF3030A30F00000308D
:1018D000F1000A168A11E1200A128A1570080A120C
:1018E0008A150C200A128A15013E84000A168A11F4
:1018F00000200A128A1583120313A8000A168A11FF
:1019000000200A128A15A9000A168A1100200A125C
:101910008A15AA003D08AB003E08AC003F08AD00A8
:101920000A128A110D200A128A158312031328083D
:10193000B8002908B9002A08BA002F2D4008803ABB
:10194000753E031CA42CA52C0F2D0330BB003B08B7
:10195000A4004008F200F301F21BF3030A30F00088
:101960000030F1000A168A11E1200A128A15700867
:101970000A128A150C200A128A15013E84000A16E2
:101980008A1100200A128A1583120313A8000A166E
:101990008A1100200A128A15A9000A168A1100204D
:1019A0000A128A15AA000330BC003C08A4004008B3
:1019B000F900FA01F91BFA030A30F7000030F800C9
:1019C0000A168A11FD210A128A1577080A128A1549
:1019D0000C200A128A151C3E84000A168A11002067
:1019E0000A128A1583120313AB000A168A1100200B
:1019F0000A128A15AC000A168A1100200A128A15EA
:101A0000AD000A128A110D200A128A1583120313DF
:101A10002808B8002908B9002A08BA002F2D033079
:101A2000BB003B08A40040080A128A150C200A12C9
:101A30008A15013E84000A168A1100200A128A15AE
:101A400083120313B8000A168A1100200A128A159D
:101A5000B9000A168A1100200A128A15BA00080075
:101A600083160313CB005C3083120313E200620879
:101A700083160313BC000A128A11B92F25305106B0
:101A80000319432D442D582D510883120313E200EE
:101A9000831603134B088400831203136208831315
:101AA00080000130E200620883160313CB073B2D50
:101AB000C301C401C101C201831203135B08840086
:101AC0000A168A1100200A128A150A168A1591250B
:101AD0000A128A15031C6D2D6E2DB82D8316031363
:101AE000C301C4010A30F0000030F1008316031373
:101AF0004408F3004308F2000A168A1500260A1269
:101B00008A15710883160313C4007008C30083127A
:101B100003135B0884000A168A1100200A128A1532
:101B2000D03EE200FF3003180030E3006208831665
:101B30000313C3070318C40A83120313630883162D
:101B40000313C407013083120313E2006208DB07AA
:101B50005B0884000A168A1100200A128A150A16E8
:101B60008A1591250A128A150318B72DB82D722DE2
:101B7000831203135B0884000A168A1100200A12DC
:101B80008A152E3A031DC52DC62D1C2E8316031350
:101B90004217013083120313E2006208DB07831649
:101BA0000313CF01D0010A2E0A30F0000030F100FB
:101BB000831603135008F3004F08F2000A168A1523
:101BC00000260A128A15710883160313D0007008C4
:101BD000CF00831203135B0884000A168A110020C9
:101BE0000A128A15D03EE200FF3003180030E300ED
:101BF000620883160313CF070318D00A8312031356
:101C0000630883160313D007013083120313E20025
:101C10006208DB0783125B0884000A168A11002021
:101C20000A128A150A168A1591250A128A150318AE
:101C30001A2E1B2ED42D262E83160313CF01D0016E
:101C40004216262E831603134215462E01308312A8
:101C50000313DB07FF305B0784000A168A1100209C
:101C60000A128A1583160313D10083120313E200AC
:101C7000E3016308003A03193E2E3B2D6208003A47
:101C80000319FD2F663A0319222E3B2D0030410522
:101C900083120313E20007308316031342058312F5
:101CA0000313E300620863040319572E5A2E0A1225
:101CB0008A11B62E83160313421E5F2E602E642EE9
:101CC0000630CF000030D0003C08840083130008A9
:101CD000CC00840A0008CD00840A0008CE0003303E
:101CE00083120313E200620883160313BC074C0837
:101CF000F0004D08F1004E08F2000030F300003013
:101D0000F4000030F5000A168A15E1260A128A1539
:101D100003188B2E8C2EA52E831603134C08F0006F
:101D20004D08F1004E08F2000A128A1103200A122F
:101D30008A15700883160313CC007108CD00720851
:101D4000CE000330C1040030C20483160313C9015E
:101D5000CA014E084D044C040319AF2EB02EA22F19
:101D6000CC3084008313000883120313E200840A3A
:101D70000008E300840A0008E400840A0008E50083
:101D80000F300310E50CE40CE30CE20CFF3E031DE6
:101D9000C12EFF306205E60000306305E7006608EB
:101DA000823E83160313C9008312031367080318C6
:101DB000013EFF3E83160313CA00FF30C907031814
:101DC000CA0AFF30CA070330F0000030F1004A08A9
:101DD000F3004908F2000A168A1500260A128A152D
:101DE000710883160313CA007008C9000A30F7008F
:101DF0000030F8004A08FA004908F9000A168A116A
:101E0000FD210A128A15780883160313CA00770881
:101E1000C900CA1F0C2F0D2F132FFF30C90703183D
:101E2000CA0AFF30CA074903FF3A0A128A158522F7
:101E30000A128A1583120313380883160313C50088
:101E400083120313390883160313C6008312031386
:101E50003A0883160313C7004C0883120313A80023
:101E6000831603134D0883120313A900831603136B
:101E70004E0883120313AA00831603134508831226
:101E80000313AB0083160313460883120313AC003D
:101E900083160313470883120313AD000A128A1135
:101EA0000D200A128A1583120313280883160313C0
:101EB000C50083120313290883160313C600831277
:101EC00003132A0883160313C7004508F0004608C9
:101ED000F1004708F2000030F3008030F4003F309A
:101EE000F5000A168A15E1260A128A150318792FB9
:101EF0007A2F832FFF3083160313C9070318CA0AEA
:101F0000FF30CA07A22F831603134508F0004608C6
:101F1000F1004708F2000030F3002030F4004130B7
:101F2000F5000A168A15E1260A128A15031C992F54
:101F30009A2FA22F013083160313C9070318CA0A68
:101F40000030CA07831603135008803AFF00803020
:101F50007F02031DAD2F0D304F020318B02FB12F9C
:101F6000EA2F831603134F080A128A11F2200A126D
:101F70008A15831203133808C8003908C9003A08C3
:101F8000CA00831603134C0883120313CB00831675
:101F900003134D0883120313CC00831603134E085A
:101FA00083120313CD000A128A154F210A128A15D3
:101FB00083120313480883160313CC008312031300
:101FC000490883160313CD00831203134A088316AE
:101FD0000313CE00831603134A08803AFF008030B3
:101FE0007F02031DF52F0A3049020318FA2F0A1247
:101FF0008A11932A0A128A11CA2A0A128A11D02F28
:1020000010308A000408840A8207003400348034C7
:102010003F340034203441340034C8344234003476
:102020007A34443440341C3446345034C334473456
:10203000243474344934973418344B34BC34BE34AB
:102040004C346B346E344E3403341534503479349C
:10205000AD346034F33449347134003480343F3467
:10206000CD34CC343D34D73423343C34123483342F
:102070003A34B734D1343834C6342734373438346A
:1020800086343534C034D6343334CC342B34323403
:10209000703489343034E734DB342E34E5343C3466
:1020A0001E344234A2340D34013400340034003480
:1020B0000A34003400340034643400340034003412
:1020C000E83403340034003410342734003400344E
:1020D000A034863401340034403442340F340034A8
:1020E00080349634983400340034E134F5340534C7
:1020F0000034CA349A343B34253432342E343134EB
:102100006634203420342034253432342E343134B3
:1021100066342034003454343134203420342034B4
:0E212000483431342034203420340A34003462
:10213A00FB01FC01760877040319A428A528DC28EA
:10214A00FD01FD0AB32801300310F60DF70DFF3E1D
:10215A00031DA9280130FA007A08FD07F71FB628DF
:10216A00B728A82801300310FB0DFC0DFF3E031D04
:10217A00B82877087902031DC42876087802031C58
:10218A00C728C828CF287608F8027708031CF9035D
:10219A00F9027B1401300310F70CF60CFF3E031D05
:1021AA00D0280130FD02031DDB28DC28B7287C0873
:1021BA00F7007B08F6000800F601F31FE528E62879
:1021CA00ED28F209F309F20A0319F30AF601F60AED
:1021DA00F11FF028F128F628F009F109F00A03198D
:1021EA00F10A700871040319FB28FC282B29F50150
:1021FA00F50A0A2901300310F00DF10DFF3E031D07
:10220A0000290130F4007408F507F11F0D290E2981
:10221A00FF2871087302031D142970087202031C37
:10222A00172918291E297008F2027108031CF303E2
:10223A00F30201300310F10CF00CFF3E031D1F29BD
:10224A000130F502031D2A292B290E2976080319C4
:10225A002F2930293529F209F309F20A0319F30A59
:10226A007308F1007208F00008000030F600F70069
:10227A000A168A11F7260A168A117908FD007808C3
:10228A00FC007708FB007608FA000A168A157826F9
:10229A000A168A117A0883120313D8007B08D90018
:1022AA007C08DA000030C8004830C900C230CA00D1
:1022BA000030B8008030B9004930BA000030A800B8
:1022CA004830A9004330AA005808AB005908AC00AE
:1022DA005A08AD000A128A110D200A168A118312B1
:1022EA0003132808BB002908BC002A08BD000A16E7
:1022FA008A116D250A168A11831203133808CB0036
:10230A003908CC003A08CD000A128A154F210A165C
:10231A008A11831203134808D5004908D6004A08CF
:10232A00D70008000030FC000030FB000030FA0043
:10233A000030F90073087204710470040319A629A5
:10234A00A729F429FD01FD0AB7290130F800031075
:10235A00F00DF10DF20DF30DF80BAC290130F80078
:10236A007808FD07F31FBA29BB29AA290130F8000A
:10237A000310F90DFA0DFB0DFC0DF80BBD297308BE
:10238A007702031DD22972087602031DD229710829
:10239A007502031DD22970087402031CD529D62997
:1023AA00E5297008F4027108031C710FF50272081E
:1023BA00031C720FF6027308031C730FF7027914D9
:1023CA0001300310F30CF20CF10CF00CFF3E031D6C
:1023DA00E6290130FD02031DF329F429BB297C08F3
:1023EA00F3007B08F2007A08F1007908F00008008F
:1023FA0083120313A101F81F032A042A0B2AF709DF
:10240A00F809F70A0319F80AA101A10AFA1F0E2A04
:10241A000F2A182AF909FA09F90A0319FA0A0130DE
:10242A00FB007B08A106A201A3017708780403191F
:10243A001F2A202A572AA001A00A2E2A0130031097
:10244A00F70DF80DFF3E031D242A0130FB007B081F
:10245A00A007F81F312A322A232A01300310A20DBD
:10246A00A30DFF3E031D332A78087A02031D3F2A73
:10247A0077087902031C422A432A4A2A7708F90272
:10248A007808031CFA03FA02221401300310F80C2C
:10249A00F70CFF3E031D4B2A0130A002031D562AEA
:1024AA00572A322A210803195B2A5C2A612AA209BF
:1024BA00A309A20A0319A30A2308F8002208F700AD
:1024CA000800730803196A2A6B2A722A72087104AF
:1024DA007004031D712A722A852A0030F000003028
:1024EA00F1000030F200E12A0130F5007508F30727
:1024FA0001300310F20CF10CF00CFF3E031D7E2A92
:10250A00FE307205031D8A2A8B2A792AA22A0130F3
:10251A00F5007508F3070130F007003003180130A1
:10252A00F107003003180130F20701300310F20CF2
:10253A00F10CF00CFF3E031D9B2AFF307205031DB0
:10254A00A72AA82A8C2AB32A0130F30201300310E1
:10255A00F00DF10DF20DFF3E031DAC2AF11BB62A58
:10256A00B72ABD2A023073020318BC2ABD2AA92A37
:10257A007318C02AC12AC72AFF30F0057F30F10537
:10258A00FF30F2050310F30C7308F500F601F701AA
:10259A0010300310F50DF60DF70DFF3E031DCE2A80
:1025AA007508F0047608F1047708F2047408031930
:1025BA00DF2AE02AE12AF2170800831203134108EE
:1025CA00C5004208C6004308C7000310460D470D60
:1025DA00C8004808CE004E08031DF42AF52AFE2A30
:1025EA000030C4000030C3000030C2000030C10017
:1025FA006D2B4108C5004208C6004308C7001730C2
:10260A000310C70CC60CC50CFF3E031D052B45085D
:10261A00C8004808C900C217FF30C105FF30C2050B
:10262A000030C3054108CA004208CB004308CC0069
:10263A00CD018E30CE02CE1F232B242B3E2B4E08EB
:10264A00803A8F3E03182A2B2B2B2C2BF52A01308C
:10265A000310CD0CCC0CCB0CCA0CFF3E031D2D2B4A
:10266A000130C5004508CE07031D3C2B3D2B2C2B02
:10267A00552B18304E02031C432B442B502BF52AA2
:10268A000130C5000310CA0DCB0DCC0DCD0DC50B05
:10269A00472B0130CE024E08031D542B552B452BD8
:1026AA0049080319592B5A2B652BCA09CB09CC099E
:1026BA00CD09CA0A0319CB0A0319CC0A0319CD0A90
:1026CA004D08C4004C08C3004B08C2004A08C100A8
:1026DA00080083120313A101F31F742B752B822B9D
:1026EA00F009F109F209F309F00A0319F10A0319C9
:1026FA00F20A0319F30AA101A10AF71F852B862BF7
:10270A00952BF409F509F609F709F40A0319F50AEC
:10271A000319F60A0319F70A0130F8007808A10626
:10272A000030A5000030A4000030A3000030A20051
:10273A0073087204710470040319A42BA52BF22BDD
:10274A00A001A00AB52B0130F8000310F00DF10D1D
:10275A00F20DF30DF80BAA2B0130F8007808A00748
:10276A00F31FB82BB92BA82B0130F8000310A20DC8
:10277A00A30DA40DA50DF80BBB2B73087702031D3F
:10278A00D02B72087602031DD02B71087502031D27
:10279A00D02B70087402031CD32BD42BE32B7008A4
:1027AA00F4027108031C710FF5027208031C720F00
:1027BA00F6027308031C730FF70222140130031088
:1027CA00F30CF20CF10CF00CFF3E031DE42B01306C
:1027DA00A002031DF12BF22BB92B21080319F62BAA
:1027EA00F72B022CA209A309A409A509A20A031915
:1027FA00A30A0319A40A0319A50A2508F300240841
:10280A00F2002308F1002208F00008000A168A15CF
:10281A00B5250A168A11803083120313A6002530C3
:10282A00A7000A168A112F260A168A110030831267
:10283A000313A3000130A2008630A100A030A0003B
:10284A000A168A15A9260A168A110A168A156325EE
:10285A000A168A113930F0000030F1000A128A157E
:10286A0002200A168A110D3083120313E900FB3085
:10287A00E800E80B3E2CE90B3E2C0A168A113A2195
:10288A000A168A11831203135508EA005608EB0048
:10289A005708EC000A168A15A7270A168A11831206
:1028AA0003134B0883160313A000831203134C0867
:1028BA0083160313A100831203134D08831603130F
:1028CA00A20086300A168A1525260A168A1177303A
:1028DA0083120313E8006808DB006A08DC006B084F
:1028EA00DD006C08DE00831603132008831203132D
:1028FA00DF0083160313210883120313E0008316F3
:10290A000313220883120313E100A5300A128A1561
:10291A0030250A168A11A5300A168A15A3250A1621
:10292A008A110D300A168A15A3250A168A110A3049
:10293A000A168A15A3250A168A110D308312031363
:10294A00E900FB30E800E80BA82CE90BA82C2A2C9C
:10295A000A128A1100287008F6007108F700720836
:10296A00F8000310770D780DF90079088312031324
:10297A00A5002508031DC22CC32CCC2C0030F30063
:10298A000030F2000030F1000030F0006C2D7308C6
:10299A00F6007408F7007508F8000310770D780D33
:1029AA00F9007908A4002408031DDC2CDD2CDE2C98
:1029BA00C32CF117FF30F005FF30F1050030F205A6
:1029CA00F417FF30F305FF30F4050030F505003049
:1029DA00A3000030A2000030A1000030A0007F3028
:1029EA00A50298302407F6007608A5021830F600EA
:1029FA007608A4000130F6000310A00DA10DA20D67
:102A0A00A30DF60B012D75087202031D122D740811
:102A1A007102031D122D73087002031C152D162D49
:102A2A00212D7308F0027408031C740FF102750853
:102A3A00031C750AF202201401300310F00DF10D87
:102A4A00F20DFF3E031D222D0130A402031D2E2D7F
:102A5A002F2DFF2CA51F322D332D4D2D2508803A01
:102A6A00973E0318392D3A2D3B2DC32C0130031004
:102A7A00A30CA20CA10CA00CFF3E031D3C2D01309F
:102A8A00F6007608A507031D4B2D4C2D3B2D642D12
:102A9A0018302502031C522D532D5F2DC32C0130F3
:102AAA00F6000310A00DA10DA20DA30DF60B562DD5
:102ABA000130A5022508031D632D642D542D23081A
:102ACA00F3002208F2002108F1002008F0000800B3
:102ADA00831203133B08BE003C08BF003D08C00038
:102AEA0003103F0D400DC1004108C6004608031DF2
:102AFA007F2D802D872D0030B8000030B9000030BE
:102B0A00BA002E2E3808BE003908BF003A08C000A5
:102B1A0003103F0D400DC1004108C7004708031DBF
:102B2A00972D982D9F2D0030B8000030B900003045
:102B3A00BA002E2E0030C3000030C4000030C50099
:102B4A0089304707BE003E08C6023B08BE003C0863
:102B5A00BF003D08C00010300310C00CBF0CBE0CF3
:102B6A00FF3E031DB12D3E08C1004108C7003808C9
:102B7A00BE003908BF003A08C00010300310C00C6C
:102B8A00BF0CBE0CFF3E031DC32D3E08C100410809
:102B9A00C7068030BE003E08C705BC17FF30BB051C
:102BAA00FF30BC050030BD05B917FF30B805FF304E
:102BBA00B9050030BA051830BE003E08C20001301F
:102BCA000310C30DC40DC50DFF3E031DE52D3A08C4
:102BDA003D02031DF62D39083C02031DF62D380867
:102BEA003B02031CF92DFA2D052E3808BB023908C1
:102BFA00031C390FBC023A08031C3A0ABD024314EB
:102C0A0001300310BB0DBC0DBD0DFF3E031D062E8A
:102C1A000130C202031D122E132EE42D4308F000C8
:102C2A004408F1004508F2004608BE003E08F300D9
:102C3A004708BF003F08F4000A168A1166220A16DE
:102C4A008A11700883120313B8007108B900720858
:102C5A00BA000800831203132708A9002608A8004F
:102C6A000630FF000310A80DA90DFF0B372E280808
:102C7A00F0002908F100F201F3012708AB00260849
:102C8A00AA000630FF000310AA0DAB0DFF0B482E59
:102C9A002A08AC002B08AD00AE01AF010030B0002D
:102CAA000930B1003D30B2000030B3002C08B00248
:102CBA002D08031C2D0F622E632EB1022E08031C51
:102CCA002E0F682E692EB2022F08031C2F0F6E2EAC
:102CDA006F2EB3023308F7003208F6003108F50008
:102CEA003008F4000A168A116E230A168A1171082E
:102CFA00FA007008F90001307A02003003197902EB
:102D0A00031C882E892EE12E831203132708A9009B
:102D1A002608A800A80EA90EF030A90528080F3920
:102D2A00A904F030A8052808F0002908F100F201EA
:102D3A00F3012708AB002608AA00AA0EAB0EF03052
:102D4A00AB052A080F39AB04F030AA052A08AC00F3
:102D5A002B08AD00AE01AF010030B0000930B10060
:102D6A003D30B2000030B3002C08B0022D08031C1D
:102D7A002D0FC02EC12EB1022E08031C2E0FC62EF7
:102D8A00C72EB2022F08031C2F0FCC2ECD2EB30252
:102D9A003308F7003208F6003108F5003008F4006D
:102DAA000A168A116E230A168A117108FA00700827
:102DBA00F90083160313181501307A02003003193B
:102DCA0079020318E92EEA2EF62E790883160313E0
:102DDA0099001812831203139817181683160313EF
:102DEA00981608000A168A1563250A168A11831688
:102DFA000313540883120313A000A1012008F00052
:102E0A002108F1000A128A1502200A168A110A16E6
:102E1A008A156C250A168A11823083120313A100BF
:102E2A00DD30A000A00B172FA10B172F0A168A1549
:102E3A0063250A168A1183120313C801512F013020
:102E4A00F0000030F1000A168A154A260A168A117D
:102E5A00700883120313A0007108A100A201A30144
:102E6A004808A40001300310A40DFF3E031D382FAB
:102E7A000310240D2C3E8400200883138000840A4A
:102E8A0021088000840A22088000840A230880001E
:102E9A000130A0002008C8070130F0000030F1001E
:102EAA000A168A154A260A168A1170087104031D21
:102EBA005F2F602F242F760877040319652F662F5A
:102ECA00B42F831203133808A0003908A1003A0866
:102EDA00A2003B08A3003408A4003508A500360860
:102EEA00A6003708A70008300310A40DA50DA60DEB
:102EFA00A70DFF3E031D792F3008A8003108A9004D
:102F0A003208AA003308AB0010300310A80DA90D2F
:102F1A00AA0DAB0DFF3E031D8A2F2808A404290819
:102F2A00A5042A08A6042B08A7042408A004250837
:102F3A00A1042608A2042708A30404300310A30C42
:102F4A00A20CA10CA00CFF3E031DA32F2308C7004F
:102F5A002208C6002108C5002008C400F72F8312E2
:102F6A0003133C08A0003D08A1003E08A2003F0848
:102F7A00A30008300310A00DA10DA20DA30DFF3E62
:102F8A00031DBF2F0C302C3E84000F308313000525
:102F9A00A400840A00300005A500840A0030000558
:102FAA00A600840A00300005A70010300310A40D03
:102FBA00A50DA60DA70DFF3E031DDB2F2408A004B7
:102FCA002508A1042608A2042708A304400820040F
:102FDA00C40041082104C50042082204C60043086F
:102FEA002304C7004708F9004608F8004508F70017
:062FFA004408F600080087
:103AB60064008001840A04060319003404065C2DA0
:103AC6000A168A1575250A168A1583160313111404
:103AD60008000A168A1575250A168A158316031311
:103AE600111508008316031314197A2D7B2D752DD5
:103AF60011081F39031D802D812D752D0800AC344A
:103B060033340034A83400340034E134083400344B
:103B1600013400343934003438340034F100F00113
:103B26003A3071020318982D992DA12D303071026B
:103B3600031C9E2D9F2DA12DF001F00A700C08008C
:103B4600F1007108831203139900AE2DA630F00020
:103B5600F00BAB2D000083160313981CB32DB42D68
:103B6600A92D0800831603138801831603178801FD
:103B760089018312031388010B17831603138C160E
:103B8600831203138C128B1708007E088A007F08A5
:103B960082000A168A15C8250A168A158000840A24
:103BA60004087D0603190034FF0A0319FE0ACC2D0A
:103BB600831203135708560455040319E32DE42D05
:103BC600E62D8030D7065808C8005908C9005A089B
:103BD600CA005508CB005608CC005708CD000A127B
:103BE6008A154F210A168A15831203134808D50031
:103BF6004908D6004A08D7000800F401F501701CF0
:103C0600052E062E0C2E7208F4070318F50A730803
:103C1600F50701300310F20DF30DFF3E031D0D2EC7
:103C260001300310F10CF00CFF3E031D142E70083A
:103C36007104031D1F2E202E022E7508F100740834
:103C4600F0000800F400F201F3013C2E720874073C
:103C560084000A168A1100200A168A150A168A1581
:103C6600A3250A168A150130F2070318F30A003055
:103C7600F3077208740784000A168A1100200A16D0
:103C86008A150A3A031D482E492E292E08000A16BF
:103C96008A1575250A168A158316031391150A16B1
:103CA6008A1575250A168A15831203131308F2005E
:103CB600F3017208F4007308F5000A168A157525D3
:103CC6000A168A1570037104031D6A2E6B2E6F2E59
:103CD600831603139112722E83160313911611166F
:103CE6007508F1007408F00008008E308312031383
:103CF600C9004908CA008C2E01300310FD0CFC0CCB
:103D0600FB0CFA0CFF3E031D802E0130C90049084A
:103D1600CA07FF307D05031D912E922E7F2E7A084D
:103D2600F0007B08F1007C08F2004A08C900490847
:103D3600F300F4010A168A1166220A168A1570081B
:103D4600FA007108FB007208FC0008002830831294
:103D5600031394008316031391018312031320089F
:103D6600A4002108A5002208A6002308A700023007
:103D76000310A40DA50DA60DA70DFF3E031DBB2E1A
:103D86002708F3002608F2002508F1002408F000B1
:103D96000030F7003D30F6000930F5000030F40041
:103DA6000A168A1197210A168A157008FF3E83168D
:103DB600031393009401871507160800F21FE42EDB
:103DC600E52EF22E7008003CF0007108031C710FFE
:103DD600003CF1007208031C720F803CF200F51FD4
:103DE600F52EF62E032F7308003CF3007408031C0F
:103DF600740F003CF4007508031C750F803CF50039
:103E06008030F2068030F50675087202031D112F08
:103E160074087102031D112F730870020318142F02
:103E2600152F172F0310182F03140800700871049C
:103E360003191E2F1F2F4E2FF501F50A2D2F0130C6
:103E46000310F00DF10DFF3E031D232F0130F4008A
:103E56007408F507F11F302F312F222F71087302D6
:103E6600031D372F70087202031C3A2F3B2F412F78
:103E76007008F2027108031CF303F3020130031009
:103E8600F10CF00CFF3E031D422F0130F502031D1D
:103E96004D2F4E2F312F7308F1007208F0000800E5
:103EA600730872047104700403195A2F5B2F9E2F36
:103EB600F901F90A6B2F0130F8000310F00DF10D2E
:103EC600F20DF30DF80B602F0130F8007808F907B2
:103ED600F31F6E2F6F2F5E2F73087702031D7D2F42
:103EE60072087602031D7D2F71087502031D7D2F52
:103EF60070087402031C802F812F8F2F7008F40224
:103F06007108031C710FF5027208031C720FF6028A
:103F16007308031C730FF70201300310F30CF20C45
:103F2600F10CF00CFF3E031D902F0130F902031D2A
:103F36009D2F9E2F6F2F7708F3007608F2007508E5
:103F4600F1007408F00008000130F6000030F700B8
:103F56000A168A11F7260A168A157908FD007808C6
:103F6600FC007708FB007608FA000A168A15782600
:103F76000A168A157A0883120313CE007B08CF002F
:103F86007C08D00050084F044E04031DCB2FCC2FC5
:103F9600D32F0030CB000030CC000030CD00FF2FF7
:103FA6000030B8008030B9004930BA000030A800AF
:103FB600C830A9004230AA004E08AB004F08AC003A
:103FC6005008AD000A128A110D200A168A158312AE
:103FD60003132808BB002908BC002A08BD000A16DE
:103FE6008A116D250A168A15831203133808CB0029
:0A3FF6003908CC003A08CD0008009D
:04400E00D420FF3F7C
:00000001FF
