:020000040000FA
:100000000A128A11E62F00308A000408840A820747
:06001000003461340034ED
:100AB80064008001840A04060319003404065D2DCD
:100AC800AC3433340034A83400340034E13408340E
:100AD80000340134003439340034383400343834C4
:100AE800BA34F1007108831203139900802DA630DF
:100AF800F000F00B7D2D000083160313981C852D44
:100B0800862D7B2D0800831603138801831603178F
:100B1800880189018312031388010B1783160313B5
:100B28008C16831203138C128B1708007E088A0018
:100B38007F0882000A128A119A250A128A118000F7
:100B4800840A04087D0603190034FF0A0319FE0A03
:100B58009E2D0A128A1187250A128A118030831263
:100B68000313C5002530C6000A128A111E270A126F
:100B78008A11003083120313C2000130C10086308D
:100B8800C000A030BF000A128A11E3250A128A1198
:100B980083120313081401300A128A1175250A12E8
:100BA8008A110D3083120313D400FB30D300D30B0A
:100BB800DB2DD40BDB2DCC2D0A128A11002828300E
:100BC80083120313940083160313910183120313F2
:100BD8003F08C3004008C4004108C5004208C600D9
:100BE80002300310C30DC40DC50DC60DFF3E031D15
:100BF800F52D4608F3004508F2004408F1004308C3
:100C0800F0000030F7003D30F6000930F500003004
:100C1800F4000A128A111B260A128A117008FF3E74
:100C280083160313930094018715071608000030F4
:100C3800FC000030FB000030FA000030F9007308B7
:100C480072047104700403192A2E2B2E782EFD01CC
:100C5800FD0A3B2E0130F8000310F00DF10DF20DE6
:100C6800F30DF80B302E0130F8007808FD07F31F5C
:100C78003E2E3F2E2E2E0130F8000310F90DFA0DEE
:100C8800FB0DFC0DF80B412E73087702031D562E41
:100C980072087602031D562E71087502031D562E22
:100CA80070087402031C592E5A2E692E7008F4021B
:100CB8007108031C710FF5027208031C720FF6020B
:100CC8007308031C730FF702791401300310F30C37
:100CD800F20CF10CF00CFF3E031D6A2E0130FD02F0
:100CE800031D772E782E3F2E7C08F3007B08F20038
:100CF8007A08F1007908F000080083120313C00194
:100D0800F31F872E882E952EF009F109F209F309B1
:100D1800F00A0319F10A0319F20A0319F30AC001C8
:100D2800C00AF71F982E992EA82EF409F509F6097E
:100D3800F709F40A0319F50A0319F60A0319F70A59
:100D48000130F8007808C0060030C4000030C30045
:100D58000030C2000030C1007308720471047004CE
:100D68000319B72EB82E052FBF01BF0AC82E0130B0
:100D7800F8000310F00DF10DF20DF30DF80BBD2E78
:100D88000130F8007808BF07F31FCB2ECC2EBB2EFE
:100D98000130F8000310C10DC20DC30DC40DF80BCE
:100DA800CE2E73087702031DE32E72087602031D08
:100DB800E32E71087502031DE32E70087402031CEC
:100DC800E62EE72EF62E7008F4027108031C710F48
:100DD800F5027208031C720FF6027308031C730FE6
:100DE800F702411401300310F30CF20CF10CF00C73
:100DF800FF3E031DF72E0130BF02031D042F052FF0
:100E0800CC2E40080319092F0A2F152FC109C20932
:100E1800C309C409C10A0319C20A0319C30A031979
:100E2800C40A4408F3004308F2004208F1004108EC
:100E3800F0000800831203134608C8004508C700DD
:100E48000630FF000310C70DC80DFF0B262F4708FB
:100E5800F0004808F100F201F3014608CA0045080D
:100E6800C9000630FF000310C90DCA0DFF0B372F4C
:100E78004908CB004A08CC00CD01CE010030CF0094
:100E88000930D0003D30D1000030D2004B08CF02ED
:100E98004C08031C4C0F512F522FD0024D08031C35
:100EA8004D0F572F582FD1024E08031C4E0F5D2FA0
:100EB8005E2FD2025208F7005108F6005008F500DC
:100EC8004F08F4000A128A1181260A128A11710841
:100ED800FA007008F90001307A020030031979022B
:100EE800031C772F782FD02F831203134608C800CE
:100EF8004508C700C70EC80EF030C80547080F39A7
:100F0800C804F030C7054708F0004808F100F201AE
:100F1800F3014608CA004508C900C90ECA0EF030D8
:100F2800CA0549080F39CA04F030C9054908CB0079
:100F38004A08CC00CD01CE010030CF000930D000E6
:100F48003D30D1000030D2004B08CF024C08031CC2
:100F58004C0FAF2FB02FD0024D08031C4D0FB52FEB
:100F6800B62FD1024E08031C4E0FBB2FBC2FD20246
:100F78005208F7005108F6005008F5004F08F40031
:100F88000A128A1181260A128A117108FA00700859
:100F9800F90083160313181501307A02003003197B
:100FA80079020318D82FD92FE52F79088316031350
:100FB800990018128312031398171816831603132F
:100FC8009816080083136630FD000530FE00643073
:100FD800FF00553084000A128A119E250A128A11D0
:100FE800203084003F300A128A115C250A128A11C7
:080FF80083010A128A11AD2DDC
:04400E00D420FF3F7C
:00000001FF
