:020000040000FA
:060000000A128A110C280F
:10000800FE00030EF1000A08F2000A168A15522FA4
:100018000A128A110F288313EA30FD001F30FE00F0
:100028000B30FF00DB3084000A168A1543270A12BA
:100038008A110A128A11FA270A128A11F8000A127A
:100048008A11FB270A128A11F900BE308400DB30BE
:100058000A168A15ED260A128A11ED01FA018301A2
:100068000A168A118A2BFF0000308A007F0882074F
:100078003C28831603133508340433040319452830
:1000880046280429330883120313C8008316031370
:10009800340883120313C900831603133508831227
:1000A8000313CA000A168A1111240A128A1183122C
:1000B80003134B084A0449044804031D64286528AF
:1000C8000429831603133108803AFF0080307F0229
:1000D800031D702802303002031C73287428042979
:1000E800831603132C0883120313A000831603132B
:1000F8002D0883120313A100831603132E088312FD
:100108000313A2007030A3008930A4004030A5007A
:100118000A168A11CA200A128A11031894289528E7
:100128009E28F73083160313B0070318B10AFF306F
:10013800B107A628F83083160313B0070318B10ACD
:10014800FF30B10730080A128A1547220A128A11AD
:10015800831203133F0883160313AC00831203139F
:10016800400883160313AD00831203134108831656
:100178000313AE00330883120313A000831603137E
:10018800340883120313A10083160313350883125E
:100198000313A200831603132C0883120313A3006E
:1001A800831603132D0883120313A4008316031365
:1001B8002E0883120313A5000A168A113A250A127B
:1001C8008A1183120313230883160313A7008312CB
:1001D8000313220883160313A600831203132108AE
:1001E80083160313A5008312031320088316031331
:1001F800A4000030B3000030B4000030B5008129FD
:1002080083160313330883120313C80083160313DA
:10021800340883120313C9008316031335088312A5
:100228000313CA000A168A1111240A128A118312AA
:1002380003134B0883160313A700831203134A08FA
:1002480083160313A60083120313490883160313A6
:10025800A50083120313480883160313A400270874
:1002680083120313A60083160313260883120313AD
:10027800A50083160313250883120313A40083160D
:100288000313240883120313A3000A168A11972064
:100298000A128A11831203132308DC002408DD00E4
:1002A8002508DE0083160313330883120313DF00C7
:1002B80083160313340883120313E0008316031311
:1002C800350883120313E1000A168A15A1270A12BA
:1002D8008A11831203135C0883160313B300831275
:1002E80003135D0883160313B400831203135E0817
:1002F80083160313B500B001B101B801B80A380874
:1003080083120313E70001300310E70DFF3E031DBE
:1003180088290310670D4F3E84000A168A110020B1
:100328000A128A11E8000A168A1100200A128A1194
:10033800E9000A168A1100200A128A11EA000A1630
:100348008A1100200A128A11EB006B088316031326
:100358002702031DC529831203136A088316031392
:100368002602031DC5298312031369088316031384
:100378002502031DC5298312031368088316031376
:1003880024020318C829C929CA29D8290130831287
:100398000313E700670883160313B8070A30380603
:1003A800031DD729D8298329380836078312031350
:1003B800E7008316031337080318370A8312031359
:1003C800E800831603133008831203136707E90054
:1003D8008316031331080318310A831203136807BD
:1003E800EA00690883160313AA02831203136A0832
:1003F80083160313031CAB03AB0236083704031937
:10040800062A072A0D2AFF30AA070318AB0AFF306D
:10041800AB070330280583120313E7000030831667
:100428000313290583120313E800670868040319F6
:100438001E2A1F2A3C2AFF3083160313AA07031813
:10044800AB0AFF30AB073C2A203083120313E700C6
:100458008316031332088400831203136708831377
:1004680080000130E700670883160313B2071F2ACC
:10047800831603132B08803AFF0080307F02031D88
:10048800472A01302A0203184A2A4B2A282A03300D
:1004980083160313280583120313E700003083161D
:1004A8000313290583120313E80067086804031976
:1004B8005E2A5F2A1F2B2D30E700831603133208AC
:1004C8008400831203136708831380000130E70058
:1004D800670883160313B2071F2B38088312031308
:1004E800E70001300310E70DFF3E031D762A0310D5
:1004F800670D4F3E84000A168A1100200A128A11DD
:10050800A0000A168A1100200A128A11A1000A16F0
:100518008A1100200A128A11A2000A168A110020E4
:100528000A128A11A30083160313270883120313E0
:10053800A70083160313260883120313A600831645
:100548000313250883120313A50083160313240835
:1005580083120313A4000A168A1137220A128A1179
:1005680083120313230883160313AF0083120313A4
:10057800220883160313AE0083120313210883167F
:100588000313AD0083120313200883160313AC0072
:10059800003083120313A3000030A2000030A10032
:1005A8000A30A000831603132F0883120313A70031
:1005B800831603132E0883120313A600831603134E
:1005C8002D0883120313A500831603132C08831226
:1005D8000313A4000A168A1186210A128A118312AB
:1005E8000313230883160313AF008312031322088F
:1005F80083160313AE008312031321088316031313
:10060800AD0083120313200883160313AC002C08D3
:10061800303E83120313E700831603133208840065
:10062800831203136708831380000130E70067080B
:1006380083160313B207013083160313B802380A6E
:10064800031D272B282B712A422B303083120313CA
:10065800E700831603133208840083120313670824
:10066800831380000130E700670883160313B2077D
:10067800FF30B0070318B10AFF30B1073108803ADC
:10068800FF0080307F02031D4B2B0130300203181E
:100698004E2B4F2B292B831603133708803AFF0064
:1006A80080307F02031D5A2B09303602031C5D2B54
:1006B8005E2B672B083083120313E7006708831645
:1006C8000313B800712B8316031336088312031320
:1006D800E700670883160313B8003808831203136A
:1006E800E700E801670883160313B60283120313B1
:1006F800680883160313031CB703B70238080319E5
:10070800862B872B9A2B2E3083120313E700831630
:1007180003133208840083120313670883138000CD
:100728000130E700670883160313B20738080A1276
:100738008A1547220A128A11831203133F08831667
:100748000313A00083120313400883160313A100A8
:1007580083120313410883160313A200200883128F
:100768000313B20083160313210883120313B30083
:1007780083160313220883120313B400831603138A
:10078800330883120313AF0083160313340883124C
:100798000313B00083160313350883120313B10043
:1007A8000A128A152C200A128A11831203132F08A1
:1007B800C8003008C9003108CA000A168A11112475
:1007C8000A128A11831203134B0883160313A70016
:1007D800831203134A0883160313A6008312031314
:1007E800490883160313A5008312031348088316C8
:1007F8000313A400082D380883120313E7000130FF
:100808000310E70DFF3E031D042C0310670D4F3E38
:1008180084000A168A1100200A128A11A0000A16FA
:100828008A1100200A128A11A1000A168A110020D2
:100838000A128A11A2000A168A1100200A128A11C5
:10084800A30083160313270883120313A700831634
:100858000313260883120313A6008316031325081F
:1008680083120313A50083160313240883120313AA
:10087800A4000A168A1137220A128A118312031356
:10088800230883160313AF00831203132208831669
:100898000313AE0083120313210883160313AD005C
:1008A80083120313200883160313AC00003083124D
:1008B8000313A3000030A2000030A1000A30A000FA
:1008C800831603132F0883120313A7008316031339
:1008D8002E0883120313A600831603132D08831210
:1008E8000313A500831603132C0883120313A40013
:1008F8000A168A1186210A128A1183120313230801
:1009080083160313AF0083120313220883160313FD
:10091800AE0083120313210883160313AD0083125C
:100928000313200883160313AC002C08303E8312EF
:100938000313E7008316031332088400831203139A
:100948006708831380000130E700670883160313E4
:10095800B207380883120313E70001300310E70DCC
:10096800FF3E031DB22C0310670D4F3E84000A168C
:100978008A1100200A128A11A0000A168A11002082
:100988000A128A11A1000A168A1100200A128A1175
:10099800A2000A168A1100200A128A11A3008316DF
:1009A8000313270883120313A700831603132608CB
:1009B80083120313A6008316031325088312031357
:1009C800A50083160313240883120313A4000A1630
:1009D8008A1186210A128A118312031323088316A7
:1009E8000313A70083120313220883160313A60018
:1009F80083120313210883160313A500831203131C
:100A0800200883160313A4000130B802380A031D16
:100A18000E2D0F2DFF2B292D303083120313E700E5
:100A280083160313320884008312031367088313A1
:100A380080000130E700670883160313B207FF3010
:100A4800B6070318B70AFF30B70736083704031D7F
:100A58002E2D2F2D102D332E831603133608370411
:100A6800031D372D382D462D270826042504240478
:100A7800031D3F2D402D462D0130B6070318B70A38
:100A88000030B7073708803A803C031D4D2D3608E3
:100A980038020318502D512D5C2D83160313360888
:100AA80083120313E700670883160313B800802D29
:100AB800831603133708803A83120313E700803044
:100AC8006702031D6B2D83160313380836020318BB
:100AD8006E2D6F2D802D8316031338088312031390
:100AE800E700E801670883160313B60083120313AF
:100AF800680883160313B700831603132A082B0408
:100B08000319872D882DA22D03302805831203137E
:100B1800E700003083160313290583120313E80046
:100B2800670868040319992D9A2DA22DFF308316A2
:100B38000313AA070318AB0AFF30AB078316031386
:100B4800291FA72DA82DCB2D3708803A8312031310
:100B5800E700831603132B08803A831203136702F6
:100B6800031DBA2D831603132A0836020318BD2D58
:100B7800BE2DC72D831603133608AA023708031C97
:100B8800AB03AB02CB2D83160313AA01AB012B08D1
:100B9800803A803C031DD22D2A0838020318D52D2F
:100BA800D62DEA2D83160313380883120313E700A2
:100BB800E801670883160313AA028312031368085F
:100BC80083160313031CAB03AB02EE2D831603132A
:100BD800AA01AB012A082B040319F32DF42D132EB7
:100BE800203083120313E7008316031332088400AE
:100BF800831203136708831380000130E700670836
:100C080083160313B207FF30AA070318AB0AFF3095
:100C1800AB072A082B04031D122E132EF42D0330C4
:100C2800280583120313E7000030831603132905F0
:100C380083120313E800670868040319242E252E7D
:100C4800332E2D30E70083160313320884008312F5
:100C580003136708831380000A128A15232D0130B5
:100C68008312E207FF30620784000A168A11002007
:100C78000A128A11E700670883160313B8003808B8
:100C8800031D472E4A2E0A128A15102D83160313A8
:100C98003208840083138001080083120313CE00F6
:100CA8006E304E02031C592E5A2E372F0330C200C5
:100CB8004208AB004E08C300C4014308F5004408CD
:100CC800F6006430F3000030F4000A168A1104219B
:100CD8000A128A11740883120313A4007308A3006C
:100CE8000A30A1000030A2000A168A1140210A1217
:100CF8008A118312031321080A168A1568270A1213
:100D08008A11433E84000A168A1100200A128A11A9
:100D180083120313AF000A168A1100200A128A11DF
:100D2800B0000A168A1100200A128A11B100033095
:100D3800C5004508AB004E08C600C7014608A30019
:100D48004708A4006430A1000030A2000A168A11E6
:100D580040210A128A118312031321080A168A15E0
:100D680068270A128A115E3E84000A168A1100203A
:100D78000A128A1183120313B2000A168A1100207C
:100D88000A128A11B3000A168A1100200A128A115F
:100D9800B4000A128A152C200A128A11831203132E
:100DA8002F08CB003008CC003108CD000330C2003A
:100DB8004208AB004E08C300C4014308F5004408CC
:100DC800F6000A30F3000030F4000A168A110421F4
:100DD8000A128A1173080A168A1568270A128A11D4
:100DE800283E84000A168A1100200A128A118312EA
:100DF8000313AF000A168A1100200A128A11B000E4
:100E08000A168A1100200A128A11B1004B08B20092
:100E18004C08B3004D08B4000A128A152C200A1297
:100E28008A11831203132F08C8003008C90031083B
:100E3800CA000030AF000030B0003F30B1004808B1
:100E4800B2004908B3004A08B4000A128A152C20D7
:100E58000A128A11831203132F08BF003008C0003A
:100E68003108C100F92F0B304E02031C3C2F3D2FD7
:100E7800C62F0330C2004208AB004E08C300C401AD
:100E88004308F5004408F6000A30F3000030F40087
:100E98000A168A1104210A128A1173080A168A1579
:100EA80068270A128A11283E84000A168A1100202F
:100EB8000A128A1183120313AF000A168A1100203E
:100EC8000A128A11B0000A168A1100200A128A1121
:100ED800B1000330C5004508AB004E08C600C70185
:100EE8004608A3004708A4000A30A1000030A20069
:100EF8000A168A1140210A128A1183120313210843
:100F08000A168A1568270A128A11433E84000A16AF
:100F18008A1100200A128A1183120313B2000A16DA
:100F28008A1100200A128A11B3000A168A110020B9
:100F38000A128A11B4000A128A152C200A128A1180
:100F4800831203132F08CB003008CC003108CD00E2
:100F58000030AF000030B0003F30B1004B08B200A5
:100F68004C08B3004D08B4000A128A152C200A1246
:100F78008A11831203132F08BF003008C0003108FC
:100F8800C100F92F0030AF000030B0003F30B10091
:100F98000330C2004208AB004E080A168A156827BB
:100FA8000A128A11283E84000A168A1100200A12A1
:100FB8008A1183120313B2000A168A1100200A123A
:100FC8008A11B3000A168A1100200A128A11B40085
:100FD8000A128A152C200A128A11831203132F0869
:100FE800BF003008C0003108C10008003834BA34E6
:1010020083120313A001A101731C082809281128C7
:10101200750883120313A0070318A10A7608A10713
:1010220001300310F50DF60DFF3E031D12280130AD
:101032000310F40CF30CFF3E031D1928730874040B
:10104200031D242825280528831203132108F400F0
:101052002008F3000800831203132F08B50030089C
:10106200B6003108B7000310360D370DB800380846
:10107200B9003908031D3E283F2846280030AF003A
:101082000030B0000030B10010293208B50033083A
:10109200B6003408B7000310360D370DB800380813
:1010A200BE003E08031D562857285E280030AF00B8
:1010B2000030B0000030B10010293E087B3EB50080
:1010C2003508B9072F08B5003008B6003108B70057
:1010D20010300310B70CB60CB50CFF3E031D6A2886
:1010E2003508B8003808BE003208B5003308B6002B
:1010F2003408B70010300310B70CB60CB50CFF3E25
:10110200031D7C283508B8003808BE068030B500BB
:101112003508BE05B017B317FF30B205FF30B3056F
:101122000030B4050030BA000030BB000030BC0013
:101132000730B5003508BD002F1CA028A128B12812
:101142003208BA07330803110318330A0319AA280D
:10115200BB07340803110318340A0319B128BC076A
:1011620001300310B10CB00CAF0CFF3E031DB228CE
:1011720001300310B20DB30DB40DFF3E031DBA28AA
:101182000130BD02031DC628C7289D280930B500BD
:101192003508BD002F1CCE28CF28DF283208BA0719
:1011A200330803110318330A0319D828BB0734087C
:1011B20003110318340A0319DF28BC070130031096
:1011C200B10CB00CAF0CFF3E031DE0280130031040
:1011D200BC0CBB0CBA0CFF3E031DE8280130BD025B
:1011E200031DF428F528CB283A08F3003B08F40045
:1011F2003C08F5003908B5003508F6003E08B6008F
:101202003608F7000A168A1108230A128A1573088B
:1012120083120313AF007408B0007508B100080010
:10122200831203134F08D5005008D6005108D70087
:101232000310560D570DD8005808DB005208D50090
:101242005308D6005408D7000310560D570DD80086
:101252005808DA005B0803192F29302940295A0857
:101262005B0203183529362947295A08D5005B083D
:10127200D50219305502031C3F294029472952083B
:10128200CF005308D0005408D100462A5A08031947
:101292004B294C295C295B085A020318512952290F
:1012A2005D295B08D5005A08D50219305502031C86
:1012B2005B295C295D29462A0630D5005508D900EC
:1012C200D11F642965296629D917D41F69296A297A
:1012D2006B295917D017FF30CF05FF30D0050030EA
:1012E200D105D317FF30D205FF30D3050030D40526
:1012F2005A085B0203187E297F29AB2901300310AB
:10130200D20DD30DD40DFF3E031D80290130DA0228
:101312005A085B0603198E298F29A4290130D902A4
:1013220059080739031D962997297F29A4290130D5
:101332000310D10CD00CCF0CFF3E031D99290130B4
:10134200D5005508DB075B085A06031DA929AA29FF
:101352009829DC295B085A020318B029B129DC2933
:1013620001300310CF0DD00DD10DFF3E031DB22968
:101372000130DB025A085B060319C029C129D629AC
:101382000130D90259080739031DC829C929B129D1
:10139200D62901300310D40CD30CD20CFF3E031D0E
:1013A200CB290130D5005508DA075B085A06031D20
:1013B200DB29DC29CA29D91FDF29E029F029FF30DE
:1013C200CF06FF30D006FF30D1060130CF07003004
:1013D20003180130D007003003180130D107591F1C
:1013E200F329F429042AFF30D206FF30D306FF3056
:1013F200D4060130D207003003180130D307003081
:1014020003180130D407D9014F08D207500803113D
:101412000318500A03190E2AD3075108031103189F
:10142200510A0319152AD407D41F182A192A2B2A5C
:10143200FF30D206FF30D306FF30D4060130D20788
:10144200003003180130D307003003180130D407ED
:10145200D901D90A5208F3005308F4005408F500E0
:101462005B08D5005508F6005908D6005608F70063
:101472000A168A1108230A128A15730883120313A3
:10148200CF007408D0007508D1000800831203133E
:10149200C700C71F4D2A4E2AA92BC709C70A4708EA
:1014A200803A123E031C562A572A152B0330C200DB
:1014B2004208AB004708F500F601F51BF60364305D
:1014C200F3000030F4000A168A11DC210A128A1590
:1014D200740883120313A5007308A4000A30A20043
:1014E2000030A3000A168A119F220A128A1583125B
:1014F200031322080A168A1568270A128A15433E20
:1015020084000A168A1100200A128A158312031314
:10151200AF000A168A1100200A128A15B0000A16B4
:101522008A1100200A128A15B1000330C300430851
:10153200AB004708A400A501A41BA5036430A200C8
:101542000030A3000A168A119F220A128A158312FA
:10155200031322080A168A1568270A128A155E3EA4
:1015620084000A168A1100200A128A1583120313B4
:10157200B2000A168A1100200A128A15B3000A164E
:101582008A1100200A128A15B4000A128A152C2028
:101592000A128A15831203132F08C4003008C500EB
:1015A2003108C6000330C2004208AB004708F5000C
:1015B200F601F51BF6030A30F3000030F4000A16B8
:1015C2008A11DC210A128A1573080A168A156827FD
:1015D2000A128A15283E84000A168A1100200A126D
:1015E2008A1583120313AF000A168A1100200A1209
:1015F2008A15B0000A168A1100200A128A15B10053
:101602004408B2004508B3004608B4000A128A151D
:101612002C200A128A15831203132F08BF003008E8
:10162200C0003108C100012D4708803A753E031CF5
:101632001B2B1C2B882B0330C2004208AB0047082F
:10164200F500F601F51BF6030A30F3000030F40052
:101652000A168A11DC210A128A1573080A168A15DB
:1016620068270A128A15283E84000A168A11002069
:101672000A128A1583120313AF000A168A11002078
:101682000A128A15B0000A168A1100200A128A1557
:10169200B1000330C3004308AB004708A400A50112
:1016A200A41BA5030A30A2000030A3000A168A1167
:1016B2009F220A128A158312031322080A168A1518
:1016C20068270A128A15433E84000A168A110020EE
:1016D2000A128A1583120313B2000A168A11002015
:1016E2000A128A15B3000A168A1100200A128A15F4
:1016F200B4000A128A152C200A128A1583120313C7
:101702002F08BF003008C0003108C100012D03308E
:10171200C2004208AB0047080A168A1568270A1257
:101722008A15283E84000A168A1100200A128A1598
:1017320083120313BF000A168A1100200A128A15A7
:10174200C0000A168A1100200A128A15C100012D52
:101752004708803A123E031CAF2BB02B6E2C03308D
:10176200C2004208AB004708F500F601F51BF6037C
:101772006430F3000030F4000A168A11DC210A12E8
:101782008A15740883120313A5007308A4000A3093
:10179200A2000030A3000A168A119F220A128A159B
:1017A2008312031322080A168A1568270A128A1559
:1017B2001C3E84000A168A1100200A128A1583121E
:1017C2000313AF000A168A1100200A128A15B0000C
:1017D2000A168A1100200A128A15B1000330C300CA
:1017E2004308AB004708A400A501A41BA50364306D
:1017F200A2000030A3000A168A119F220A128A153B
:101802008312031322080A168A1568270A128A15F8
:10181200373E84000A168A1100200A128A158312A2
:101822000313B2000A168A1100200A128A15B300A5
:101832000A168A1100200A128A15B4000A128A15A1
:101842002C200A128A15831203132F08C4003008B1
:10185200C5003108C6000330C2004208AB00470889
:10186200F500F601F51BF6030A30F3000030F40030
:101872000A168A11DC210A128A1573080A168A15B9
:1018820068270A128A15013E84000A168A1100206E
:101892000A128A1583120313AF000A168A11002056
:1018A2000A128A15B0000A168A1100200A128A1535
:1018B200B1004408B2004508B3004608B4000A1259
:1018C2008A152C200A128A15831203132F08BF00CF
:1018D2003008C0003108C100012D4708803A753E2A
:1018E200031C742C752CE12C0330C2004208AB009F
:1018F2004708F500F601F51BF6030A30F300003045
:10190200F4000A168A11DC210A128A1573080A16D3
:101912008A1568270A128A15013E84000A168A115E
:1019220000200A128A1583120313AF000A168A11C5
:1019320000200A128A15B0000A168A1100200A1223
:101942008A15B1000330C3004308AB004708A40066
:10195200A501A41BA5030A30A2000030A3000A16A9
:101962008A119F220A128A158312031322080A1669
:101972008A1568270A128A151C3E84000A168A11E3
:1019820000200A128A1583120313B2000A168A1162
:1019920000200A128A15B3000A168A1100200A12C0
:1019A2008A15B4000A128A152C200A128A1583128B
:1019B20003132F08BF003008C0003108C100012DF9
:1019C2000330C2004208AB0047080A168A1568278E
:1019D2000A128A15013E84000A168A1100200A1290
:1019E2008A1583120313BF000A168A1100200A12F5
:1019F2008A15C0000A168A1100200A128A15C1002F
:101A0200080083160313B200633083120313E70046
:101A1200670883160313A3000A128A11332E253096
:101A220038060319152D162D2A2D38088312031393
:101A3200E700831603133208840083120313670836
:101A4200831380000130E700670883160313B2078F
:101A52000D2DAA01AB01A801A9018312031362088B
:101A620084000A168A1100200A128A150A168A159B
:101A72001A270A128A15031C3F2D402D8A2D831620
:101A82000313AA01AB010A30F3000030F4008316FD
:101A920003132B08F6002A08F5000A128A15012002
:101AA2000A128A15740883160313AB007308AA007E
:101AB20083120313620884000A168A1100200A1294
:101AC2008A15D03EE700FF3003180030E8006708AF
:101AD20083160313AA070318AB0A831203136808B9
:101AE20083160313AB07013083120313E700670861
:101AF200E207620884000A168A1100200A128A1577
:101B02000A168A151A270A128A150318892D8A2D90
:101B1200442D83120313620884000A168A110020DE
:101B22000A128A152E3A031D972D982DEE2D831633
:101B320003132917013083120313E7006708E20732
:101B420083160313B601B701DC2D0A30F30000300F
:101B5200F400831603133708F6003608F5000A125C
:101B62008A1501200A128A15740883160313B70016
:101B72007308B60083120313620884000A168A11DE
:101B820000200A128A15D03EE700FF300318003009
:101B9200E800670883160313B6070318B70A83120F
:101BA2000313680883160313B70701308312031364
:101BB200E7006708E2078312620884000A168A11A6
:101BC20000200A128A150A168A151A270A128A157D
:101BD2000318EC2DED2DA62DF82D83160313B60157
:101BE200B7012916F82D831603132915182E013073
:101BF20083120313E207FF30620784000A168A1178
:101C020000200A128A1583160313B80083120313E5
:101C1200E700E8016808003A0319102E0D2D670845
:101C2200003A0319FD2F663A0319F42D0D2D0030E9
:101C3200280583120313E7000730831603132905CF
:101C420083120313E800670868040319292E2C2E57
:101C52000A128A11302D83160313291E312E322EB9
:101C6200362E0630B6000030B700230884008313F6
:101C72000008B300840A0008B400840A0008B50012
:101C8200033083120313E700670883160313A307C5
:101C9200330883120313A00083160313340883123C
:101CA2000313A10083160313350883120313A20042
:101CB2000030A3000030A4000030A5000A168A11EB
:101CC200CA200A128A150318672E682E812E8316DF
:101CD20003133308F3003408F4003508F5000A163C
:101CE2008A15F5260A128A15730883160313B300A0
:101CF2007408B4007508B5000330A8040030A904C4
:101D020083160313B001B1013508340433040319F7
:101D12008B2E8C2EA22FB3308400831300088312E3
:101D22000313E700840A0008E800840A0008E900B7
:101D3200840A0008EA000F300310EA0CE90CE80CF0
:101D4200E70CFF3E031D9D2EFF306705EB000030C0
:101D52006805EC006B08823E83160313B000831201
:101D620003136C080318013EFF3E83160313B100F0
:101D7200FF30B0070318B10AFF30B1070330F30098
:101D82000030F4003108F6003008F5000A128A1516
:101D920001200A128A15740883160313B10073080E
:101DA200B0000A3083120313A2000030A30083168E
:101DB2000313310883120313A5008316031330089B
:101DC20083120313A4000A168A119F220A128A158B
:101DD20083120313230883160313B1008312031320
:101DE200220883160313B000B11FF82EF92EFF2E1E
:101DF200FF30B0070318B10AFF30B1073003FF3AD2
:101E02000A128A1547220A128A15831203133F08FF
:101E120083160313AC0083120313400883160313C3
:101E2200AD0083120313410883160313AE00330877
:101E320083120313AF0083160313340883120313B0
:101E4200B00083160313350883120313B1008316FF
:101E520003132C0883120313B200831603132D08F5
:101E620083120313B300831603132E088312031382
:101E7200B4000A128A152C200A128A15831203133F
:101E82002F0883160313AC00831203133008831642
:101E92000313AD0083120313310883160313AE003C
:101EA2002C0883120313A000831603132D08831238
:101EB2000313A100831603132E0883120313A20037
:101EC2000030A3008030A4003F30A5000A168A111A
:101ED200CA200A128A1503186F2F702F792FFF302C
:101EE20083160313B0070318B10AFF30B107A22FFC
:101EF200831603132C0883120313A0008316031303
:101F02002D0883120313A100831603132E088312D4
:101F12000313A2000030A3002030A4004130A5002A
:101F22000A168A11CA200A128A15031C992F9A2F9F
:101F3200A22F013083160313B0070318B10A003031
:101F4200B107831603133708803AFF0080307F02FF
:101F5200031DAD2F0D3036020318B02FB12FEA2F1B
:101F62008316031336080A128A1151260A128A1599
:101F7200831203133F08CF004008D0004108D1006C
:101F820083160313330883120313D2008316031339
:101F9200340883120313D300831603133508831204
:101FA2000313D4000A128A1511210A128A15831208
:101FB20003134F0883160313B3008312031350084D
:101FC20083160313B40083120313510883160313F9
:101FD200B500831603133108803AFF0080307F0278
:101FE200031DF52F0A3030020318FA2F0A128A1144
:101FF2003D280A128A1174280A128A114A2E1030B8
:102002008A000408840A82070034003480343F3492
:102012000034203441340034C834423400347A3439
:10202200443440341C3446345034C33447342434AA
:1020320074344934973418344B34BC34BE344C3481
:102042006B346E344E340334153450347934AD3439
:102052006034F33449347134003480343F34CD3445
:10206200CC343D34D73423343C34123483343A34C0
:10207200B734D1343834C63427343734383486341C
:102082003534C034D6343334CC342B343234703417
:1020920089343034E734DB342E34E5343C341E34B6
:1020A2004234A2340D3401340034003400340A3492
:1020B2000034003400346434003400340034E83432
:1020C2000334003400341034273400340034A03494
:1020D200863401340034403442340F3400348034C6
:1020E2009634983400340034E134F5340534003445
:1020F200CA349A343B34253432342E343134663483
:10210200203420342034253432342E3431346634B1
:1021120020340034543431342034203420344834D0
:1021220031342034203420340A3400348E30831287
:102132000313A7002708A800AB2801300310A60C40
:10214200A50CA40CA30CFF3E031D9F280130A70081
:102152002708A807FF302605031DB028B1289E28AE
:102162002308F3002408F4002508F5002808A70036
:102172002708F600F7010A168A1108230A168A119F
:10218200730883120313A3007408A4007508A50042
:10219200080083120313A21FCF28D028DD282008AD
:1021A200003CA0002108031C210F003CA1002208D2
:1021B200031C220F803CA200A51FE028E128EE2884
:1021C2002308003CA3002408031C240F003CA400A5
:1021D2002508031C250F803CA5008030A206803014
:1021E200A50625082202031DFC2824082102031D3E
:1021F200FC28230820020318FF28002902290310C3
:1022020003290314080073087404031909290A290D
:102212003B2983120313A001A00A1A2901300310DB
:10222200F30DF40DFF3E031D10290130F70077086E
:10223200A007F41F1D291E290F2974087602031D09
:10224200242973087502031C272928292E297308BB
:10225200F5027408031CF603F60201300310F40CB5
:10226200F30CFF3E031D2F290130A002031D3A2962
:102272003B291E297608F4007508F3000800831232
:102282000313A701A80121082204031949294A2995
:102292008129A601A60A582901300310A10DA20D19
:1022A200FF3E031D4E290130A5002508A607A21FE7
:1022B2005B295C294D2901300310A70DA80DFF3EB3
:1022C200031D5D2922082402031D69292108230216
:1022D200031C6C296D2974292108A3022208031CFE
:1022E200A403A402271401300310A20CA10CFF3E88
:1022F200031D75290130A602031D802981295C294D
:102302002808A2002708A10008008312031323084B
:1023120022042104200403198F299029D329F401CE
:10232200F40AA0290130F3000310A00DA10DA20DA3
:10233200A30DF30B95290130F3007308F407A31FD3
:10234200A329A429932923082702031DB2292208BD
:102352002602031DB22921082502031DB2292008E5
:102362002402031CB529B629C4292008A402210885
:10237200031C210FA5022208031C220FA602230818
:10238200031C230FA70201300310A30CA20CA10C03
:10239200A00CFF3E031DC5290130F402031DD22902
:1023A200D329A4292708A3002608A2002508A100F2
:1023B2002408A000080083120313A101F61FE229DA
:1023C200E329EA29F509F609F50A0319F60AA10132
:1023D200A10AF41FED29EE29F329F309F409F30AFE
:1023E2000319F40A730874040319F829F929282A2D
:1023F200A001A00A072A01300310F30DF40DFF3EDD
:10240200031DFD290130F7007708A007F41F0A2AEF
:102412000B2AFC2974087602031D112A730875021F
:10242200031C142A152A1B2A7308F5027408031CBC
:10243200F603F60201300310F40CF30CFF3E031D09
:102442001C2A0130A002031D272A282A0B2A210850
:1024520003192C2A2D2A322AF509F609F50A03193D
:10246200F60A7608F4007508F300080000308312BB
:102472000313AB000030AA000030A9000030A8000E
:1024820023082204210420040319482A492A962AEF
:10249200AC01AC0A592A0130F3000310A00DA10DC2
:1024A200A20DA30DF30B4E2A0130F3007308AC0703
:1024B200A31F5C2A5D2A4C2A0130F3000310A80DE9
:1024C200A90DAA0DAB0DF30B5F2A23082702031DEA
:1024D200742A22082602031D742A21082502031DDC
:1024E200742A20082402031C772A782A872A2008C3
:1024F200A4022108031C210FA5022208031C220F9B
:10250200A6022308031C230FA7022814013003107C
:10251200A30CA20CA10CA00CFF3E031D882A0130C3
:10252200AC02031D952A962A5D2A2B08A3002A08CD
:10253200A2002908A1002808A000080083120313A2
:10254200A801A31FA52AA62AAD2AA209A309A20AA5
:102552000319A30AA801A80AA51FB02AB12ABA2AF8
:10256200A409A509A40A0319A50A0130A600260890
:10257200A806A901AA01220823040319C12AC22A12
:10258200F92AA701A70AD02A01300310A20DA30D30
:10259200FF3E031DC62A0130A6002608A707A31F77
:1025A200D32AD42AC52A01300310A90DAA0DFF3E51
:1025B200031DD52A23082502031DE12A220824022D
:1025C200031CE42AE52AEC2A2208A4022308031C9D
:1025D200A503A502291401300310A30CA20CFF3E8F
:1025E200031DED2A0130A702031DF82AF92AD42A75
:1025F20028080319FD2AFE2A032BA909AA09A90AF8
:102602000319AA0A2A08A3002908A20008007608CA
:1026120003190C2B0D2B142B750874047304031D62
:10262200132B142B292B0030F3000030F400003060
:10263200F500892B013083120313A0002008F6074E
:1026420001300310F50CF40CF30CFF3E031D222B9A
:10265200FE307505031D2E2B2F2B1B2B482B013013
:1026620083120313A0002008F6070130F30700309D
:1026720003180130F407003003180130F507013068
:102682000310F50CF40CF30CFF3E031D412BFF303D
:102692007505031D4D2B4E2B302B592B0130F602A5
:1026A20001300310F30DF40DF50DFF3E031D522B07
:1026B200F41B5C2B5D2B632B023076020318622B1A
:1026C200632B4F2B7618662B672B6D2BFF30F30590
:1026D2007F30F405FF30F5050310F60C76088312FF
:1026E2000313A000A101A20110300310A00DA10D3F
:1026F200A20DFF3E031D762B2008F3042108F404EB
:102702002208F50477080319872B882B892BF517E4
:1027120008000A168A152C270A168A11003083121D
:102722000313B1000030B0002530AF008030AE009E
:102732000A168A11F7250A168A110030831203132A
:10274200B0000130AF008630AE00A030AD000A16F6
:102752008A15C6270A168A11C43083160313B900D4
:10276200390883120313ED00C43083160313B90032
:102772003908C60086300A168A157F270A168A117A
:10278200773083160313B900390883120313E2006A
:102792006D0883160313BA00BB013A0883120313B0
:1027A200E300831603133B0883120313E40083162A
:1027B20003134608BC00BD013C0883120313E50065
:1027C200831603133D0883120313E600C7300A126F
:1027D2008A1502250A168A11C7300A168A15FF269B
:1027E2000A168A110D300A168A15FF260A168A1150
:1027F2000A300A168A15FF260A168A11063083162F
:102802000313BB001330BA00AD30B900B90B072C6B
:10281200BA0B072CBB0B072CAD2B0A128A110C2802
:10282200831203134808CC004908CD004A08CE00A1
:1028320003104D0D4E0DCF004F08D5005508031D56
:10284200232C242C2D2C0030CB000030CA00003069
:10285200C9000030C8009C2C4808CC004908CD00B3
:102862004A08CE0017300310CE0CCD0CCC0CFF3E24
:10287200031D342C4C08CF004F08D000C917FF307D
:10288200C805FF30C9050030CA054808D10049080B
:10289200D2004A08D300D4018E30D502D51F522C63
:1028A200532C6D2C5508803A8F3E0318592C5A2C04
:1028B2005B2C242C01300310D40CD30CD20CD10C81
:1028C200FF3E031D5C2C0130CC004C08D507031DD4
:1028D2006B2C6C2C5B2C842C18305502031C722C34
:1028E200732C7F2C242C0130CC000310D10DD20D7F
:1028F200D30DD40DCC0B762C0130D5025508031D17
:10290200832C842C742C50080319882C892C942C29
:10291200D109D209D309D409D10A0319D20A031958
:10292200D30A0319D40A5408CB005308CA00520828
:10293200C9005108C800080083120313A901A31F8C
:10294200A32CA42CB12CA009A109A209A309A00AB5
:102952000319A10A0319A20A0319A30AA901A90AC0
:10296200A71FB42CB52CC42CA409A509A609A70934
:10297200A40A0319A50A0319A60A0319A70A013012
:10298200F3007308A9060030AD000030AC0000303F
:10299200AB000030AA0023082204210420040319FA
:1029A200D32CD42C212DA801A80AE42C0130F30049
:1029B2000310A00DA10DA20DA30DF30BD92C013014
:1029C200F3007308A807A31FE72CE82CD72C0130CB
:1029D200F3000310AA0DAB0DAC0DAD0DF30BEA2CF9
:1029E20023082702031DFF2C22082602031DFF2CA9
:1029F20021082502031DFF2C20082402031C022D9E
:102A0200032D122D2008A4022108031C210FA50268
:102A12002208031C220FA6022308031C230FA7026D
:102A22002A1401300310A30CA20CA10CA00CFF3E2F
:102A3200031D132D0130A802031D202D212DE82C8A
:102A420029080319252D262D312DAA09AB09AC0918
:102A5200AD09AA0A0319AB0A0319AC0A0319AD0A94
:102A62002D08A3002C08A2002B08A1002A08A00010
:102A72000800831203132008F3002108F40022083F
:102A8200F5000310740D750DF6007608AB002B08E7
:102A9200031D4C2D4D2D562D0030A3000030A200F9
:102AA2000030A1000030A000F62D2308F300240816
:102AB200F4002508F5000310740D750DF600760874
:102AC200AA002A08031D662D672D682D4D2DA1171A
:102AD200FF30A005FF30A1050030A205A417FF308A
:102AE200A305FF30A4050030A5050030A900003081
:102AF200A8000030A7000030A6007F30AB0298305B
:102B02002A07F3007308AB021830F3007308AA0017
:102B12000130F3000310A60DA70DA80DA90DF30BAC
:102B22008B2D25082202031D9C2D24082102031D42
:102B32009C2D23082002031C9F2DA02DAB2D2308C2
:102B4200A0022408031C240FA1022508031C250A45
:102B5200A202261401300310A00DA10DA20DFF3E0A
:102B6200031DAC2D0130AA02031DB82DB92D892DEC
:102B7200AB1FBC2DBD2DD72D2B08803A973E0318D5
:102B8200C32DC42DC52D4D2D01300310A90CA80C49
:102B9200A70CA60CFF3E031DC62D0130F3007308DF
:102BA200AB07031DD52DD62DC52DEE2D18302B02CA
:102BB200031CDC2DDD2DE92D4D2D0130F30003101A
:102BC200A60DA70DA80DA90DF30BE02D0130AB0248
:102BD2002B08031DED2DEE2DDE2D2908A30028085C
:102BE200A2002708A1002608A000080083120313F0
:102BF2002E08B2002F08B3003008B4003108B50027
:102C020006300310B20DB30DB40DB50DFF3E031D1A
:102C1200022E3508A3003408A2003308A1003208AE
:102C2200A0002E08B6002F08B7003008B8003108FF
:102C3200B90006300310B60DB70DB80DB90DFF3E41
:102C4200031D1B2E0030BA001230BB007A30BC00CC
:102C52000030BD003608BA023708031C370F322E87
:102C6200332EBB023808031C380F382E392EBC0213
:102C72003908031C390F3E2E3F2EBD023D08A70026
:102C82003C08A6003B08A5003A08A4000A168A11CF
:102C92009D240A168A11831203132108F5002008C5
:102CA200F40001307502003003197402031C5A2E1D
:102CB2005B2EB72E2E08B2002F08B3003008B400E6
:102CC2003108B50004300310B20DB30DB40DB50DCB
:102CD200FF3E031D642E3508A3003408A20033080A
:102CE200A1003208A0002E08B6002F08B700300855
:102CF200B8003108B90004300310B60DB70DB80D95
:102D0200B90DFF3E031D7D2E0030BA001230BB000C
:102D12007A30BC000030BD003608BA023708031C06
:102D2200370F942E952EBB023808031C380F9A2EAB
:102D32009B2EBC023908031C390FA02EA12EBD0206
:102D42003D08A7003C08A6003B08A5003A08A400DD
:102D52000A168A119D240A168A1183120313210866
:102D6200F5002008F40083160313181501307502CC
:102D72000030031974020318BF2EC02ED22E74081D
:102D820083160313990018128312031398178316DC
:102D920003138717071383120313181683160313DB
:102DA200981608002030840083130008831203134E
:102DB200A600840A0008A700840A0008A800840A62
:102DC2000008A9000310280D290DAA002A08B30043
:102DD2003308031DED2EEE2EF72E0030A300003037
:102DE200A2000030A1000030A000FF2F2330840099
:102DF2000008A600840A0008A700840A0008A800A8
:102E0200840A0008A9000310280D290DAA002A0827
:102E1200B2003208031D0E2F0F2F102FEE2E20307E
:102E2200840000308004840A00308004840A8030E8
:102E32008004840A0030800420308400FF30800542
:102E4200840AFF308005840AFF308005840A00303E
:102E520080052330840000308004840A003080041E
:102E6200840A80308004840A003080042330840085
:102E7200FF308005840AFF308005840AFF30800518
:102E8200840A003080050030B1000030B00000300C
:102E9200AF000030AE007F30B302A0303207A60090
:102EA2002608B3022030A6002608B2000130A60090
:102EB2000310AE0DAF0DB00DB10DA60B592F23307F
:102EC20084000008A600840A0008A700840A0008FB
:102ED200A800840A0008A900203084000008AA0083
:102EE200840A0008AB00840A0008AC00840A0008C7
:102EF200AD0029082D02031D882F28082C02031D6E
:102F0200882F27082B02031D882F26082A02031C5C
:102F12008B2F8C2FAF2F233084000008A600840A49
:102F22000008A700840A0008A800840A0008A90073
:102F32002030840026088002840A2708031C270FF9
:102F42008002840A2808031C280F8002840A2908A8
:102F5200031C290A8002033084022E1420308400CC
:102F62000310800D840A800D840A800D840A800D6E
:102F72008403840384030130B202031DC12FC22FD4
:102F8200572FB31FC52FC62FE02F3308803A9F3E1D
:102F92000318CC2FCD2FCE2FEE2E01300310B10C03
:102FA200B00CAF0CAE0CFF3E031DCF2F0130A600BC
:102FB2002608B307031DDE2FDF2FCE2FF72F203079
:102FC2003302031CE52FE62FF22FEE2E0130A6006E
:102FD2000310AE0DAF0DB00DB10DA60BE92F0130F0
:102FE200B3023308031DF62FF72FE72F3108A30092
:0E2FF2003008A2002F08A1002E08A000080041
:103DCA00831203138C1EEA2EEB2EE52E1A08080026
:103DDA0064008001840A0406031900340406EE2EE6
:103DEA007508740473040319FB2EFC2EFE2E803012
:103DFA00F5060800F30083160313981C052F062FF7
:103E0A00002F73088312031399000800AC3433346B
:103E1A000034A83400340034E13408340034013466
:103E2A0000343934003438340034F400F3013A30C1
:103E3A0074020318212F222F2A2F30307402031CF8
:103E4A00272F282F2A2FF301F30A730C0800831651
:103E5A00031386018316031788018901831203134A
:103E6A0086010B17831603138C16831203138C1205
:103E7A008B1708007E088A007F0882000A168A15B6
:103E8A003F270A168A158000840A04087D0603194A
:103E9A000034FF0A0319FE0A432F831203138C1EF0
:103EAA00572F582F612F8C120A168A15E5260A16E3
:103EBA008A15F0007008FA0072088A00710E8300F1
:103ECA00FE0E7E0E090083120313AE00AD012E1CF6
:103EDA006F2F702F742F2B08AC002C08AD0703101E
:103EEA00AB0D0310AE0C2E08031D7C2F7D2F6C2FFB
:103EFA002D080800F500F601932F7608750784004F
:103F0A000A168A1100200A168A150A168A15FF2629
:103F1A000A168A150130F4007408F6077608750740
:103F2A0084000A168A1100200A168A15003A031D0F
:103F3A009F2FA02F822F0800831203135E085D04AF
:103F4A005C040319A92FAA2FAC2F8030DE065F0864
:103F5A00CF006008D0006108D1005C08D2005D087B
:103F6A00D3005E08D4000A128A1511210A168A158E
:103F7A00831203134F08DC005008DD005108DE00ED
:103F8A000800283083120313940083160313910147
:103F9A00831203132D08F4002E08F5002F08F600EB
:103FAA003008F70002300310F40DF50DF60DF70D89
:103FBA00FF3E031DD82F7708A3007608A2007508D4
:103FCA00A1007408A0000030A7007A30A6001230C1
:103FDA00A5000030A4000A168A1137220A168A158B
:103FEA00831203132008FF3E8316031393009401E0
:063FFA0087150716080000
:04400E00D420FF3F7C
:00000001FF
